:020000040800F2
:1000000050420020D100000879650008875D000893
:1000100000000000000000000000000000000000E0
:1000200000000000000000000000000073830008D2
:100030000000000000000000F16F0008BD8500080E
:10004000E3000008E3000008E3000008B92C000802
:10005000E3000008E3000008E3000008E3000008F4
:10006000E3000008710A0008810A0008610A00081C
:10007000E3000008E3000008E3000008E3000008D4
:10008000E3000008E5850008E3000008E30000083D
:10009000E3000008E3000008E3000008E3000008B4
:1000A000E3000008E3000008E3000008E3000008A4
:1000B0007D8F00088D8F0008E30000080348854607
:1000C00000F02CFC0048004719B200085042002004
:1000D0000448804704480047FEE7FEE7FEE7FEE7E6
:1000E000FEE7FEE7E1850008BD000008F0B51FB49B
:1000F0000646002082B005464024019100901BE096
:10010000019922460F46304600F0EFF9049A059B0C
:10011000801A994110D310461946224600F0D5F9AD
:10012000361A8F410197224601200021009F00F0DE
:10013000CCF938184D4100902046641E0028DFDCC1
:10014000019B00982946324607B0F0BDFFB585B047
:1001500006460698144602AD022846D3002C44D029
:10016000002003902846803806990027491EFF4347
:100170000191009023E06043801961438A19014690
:100180001046089A9047002804DCB8002958C9197D
:10019000295014E068682246604381190098C06FB6
:1001A0006043801908E00B789C4603780B70634627
:1001B0000370401C491C521E002AF4D17F42009853
:1001C0006968C06F8842D6DC22463046089BFFF73C
:1001D000BDFF00980699C06F2246091A401C604373
:1001E0008019491E089BFFF7B1FF09B0F0BD034617
:1001F0000B439B0703D009E008C9121F08C0042A5B
:10020000FAD203E00B780370401C491C521EF9D24D
:100210007047D2B201E00270401C491EFBD2704709
:100220000022F6E710B513460A4604461946FFF7C2
:10023000F0FF204610BDF8B502464A40D40F4200F8
:100240004B0052085B089A4202D202460846114609
:100250004A0023D0C30D4A00DDB2120EAD1A202D84
:1002600035DA49020126490AF6058A19002C00D020
:10027000524220214F1B1146B9402A411018C20D8D
:100280009A4221D0002C17D0012D08DCDA05801A03
:10029000D20F8019D207DBB200F040F9F8BDDA05C1
:1002A000801A012340001B06C01880185A4280188B
:1002B000CA0F1043490007E04908C2071143DA0595
:1002C000801A80194008801800F020F9F8BD6100FC
:1002D0000122511A001BF7E70122D2075140AAE779
:1002E0000122D2075040A6E7024670B54A40D30F1C
:1002F000DB0740002DD04A002AD0010E140E000268
:1003000012020919400A520A8418E50104465443AE
:10031000000A120A2E045043A4194219200CC543A6
:10032000AA18120C0125AD03521C521912047F3970
:10033000240400D0521C104301D44000491EC2B214
:100340000C06C0092018401C4008802A02D003E097
:10035000002070BD40084000002900DA002018434A
:1003600070BD70B502464A40D50F40004A00ED0707
:1003700040085208002814D0002A12D0C40DD30D12
:1003800041020120C0055202490A520AE41A091822
:1003900012187D34914201D3641C00E04900002C06
:1003A00001DA002070BD0023914201D3891A034372
:1003B000400849000028F7D100290AD0914202D113
:1003C0000121C90705E0914201D2012101E001218B
:1003D000C943E005C018401900F098F870BD01222B
:1003E000D207002800DB101A002900DB511A8142D5
:1003F00001D201207047002070470122D207002857
:1004000000DB101A002900DB511A814201D30120C0
:100410007047002070470122D207002800DB101A25
:10042000002900DB511A814201D9012070470020C8
:1004300070470122D207002800DB101A002900DBD8
:10044000511A814201D10120704700207047C21724
:10045000C10F504010B54018CA079623002100F084
:100460005DF810BDC20FD207400040080BD0C10D8F
:100470000723DB01C91840020905400A1143C208DD
:1004800040071143704700200146704770B504468D
:10049000002903D000202022012310E0002801D0F1
:1004A0000020C043C046C0460DE02546D5408D42E1
:1004B00005D30D469540641B1D46954040191546D1
:1004C000521E002DF1DC214670BD10B5202A04DB40
:1004D0000146203A9140002010BD914020239C1AF3
:1004E0000346E3401943904010BD10B5202A04DBB9
:1004F0000846203AD040002110BD0B46D340D040E2
:100500002024A21A91400843194610BD002904DA9C
:10051000401C490001D140084000704770B40024DD
:10052000050C05D11024000402D1002921D011248A
:10053000050E01D100020834050F01D10001241D70
:10054000850F01D18000A41C002801DB4000641C41
:10055000002908D020252E1B0D46F540A14000D0D3
:1005600001212943084301061B1B000ADB1D02D59C
:10057000002070BC7047DB05181880180029F8DAD5
:10058000401C4900F5D170BC400840007047000095
:10059000F0B507460846584087B0C00F04904800A1
:1005A0000E46590040084908BC1A884105D2384611
:1005B00031461E4617460B46024658004008104377
:1005C0004CD0300D039040055900400D490D059069
:1005D000401A0290402872DA18030121000B090525
:1005E0000843019004980092002805D001995242D6
:1005F0000020884100920190029840210A1A019936
:100600000098FFF762FF05460C466B4607CB00F0EB
:1006100097F9C0197141039A0E0D0023D717564060
:100620001A467A40164344D0049A002A2DD0029AE2
:10063000012A039A15DC1205C01A914101263605DC
:10064000001C7141D20F059ED207009301920296C1
:100650002A46234600F094F907B0F0BD38463146EB
:10066000FAE71605224A0F46B218C01AB74101210F
:100670000905001C4F4100187F41114618187941A7
:10068000E20F10436D19644113E0E2076D08154352
:100690006408C2071443039A01261205C01A914147
:1006A0003605001C7141CE07400830434908C01888
:1006B00051412A46234600F056F9CDE7FFE704985A
:1006C00001224000C117121A00238B4104983146C1
:1006D000C417381AA141EEE730B40124E40763409F
:1006E00030BC55E730B40124E407614030BC4FE72B
:1006F0000000E0FFF0B51FB488B00B990998002402
:1007000048400999C00F490049080991C0070B9951
:100710000090490049080B9109990898A64608439A
:100720001CD00B990A98084318D00998012440005E
:10073000420D4800410D099824050003000B204399
:1007400009900B980003000B20430B9050181C4994
:100750004018002201901446104605E00020014692
:100760000DB0F0BD032801DA034600E003239C46E8
:10077000C11A0AAE0AE05F0008ADED5B4F00F75BFF
:100780007D430027AA187C41491C5B1E6145F2DDB0
:10079000410004AB5A522104120C0A43240C401CA1
:1007A0000828DFDB019802900099704601910090C3
:1007B000059B049A0799069800F0E2F8D0E700003C
:1007C0000DFCFFFFF0B50C465C4085B0E40FE4077C
:1007D00003944C00002664085900944649080246D8
:1007E0000296224321D062460A431ED06200570D72
:1007F0004A000E032303550D012402462C4924050B
:10080000781B1B0B360B4018234326436146009090
:100810001C46501AB44103D30098401C009002E0DB
:10082000921800985B41002803DA0020014605B0C9
:10083000F0BD0020012109050746864611E0644607
:100840001D46141BB54106D36546521BB341744681
:1008500007430C43A646CD07400849082843921891
:100860005B4105460D43EAD11046184313D060465C
:10087000194650407140084306D06046101AB341F3
:1008800006D20122002306E000220123DB0702E05A
:100890000122D2435310009874460105381C61416F
:1008A000029C039D0019694100F05DF8BFE700005C
:1008B000FD0300004A0009030123090B1B0519432E
:1008C0000A4B10B5520D9A4202DA0020014610BDC3
:1008D000064B34339A4203DC9A1AFFF706FE10BD2A
:1008E000034BD218FFF7F1FD10BD0000FF0300001D
:1008F000CDFBFFFF10B5002904DB0124E4074042D3
:100900008C412146002B04DB1C460123DB075242AD
:10091000A341994200D1904210BD0000064C012530
:10092000064E05E0E36807CC2B430C3C9847103497
:10093000B442F7D3FFF7C6FB6CE300088CE3000872
:1009400010B5202A06DBCB170846203A1041C11704
:100950000B4306E00B461341D0402024A21A9140DD
:100960000843194610BD10B5002B08DA0024401CBE
:10097000614192185B411A4301D14008400010BD0B
:10098000F0B51FB482B005460C0003D008460CF049
:1009900097FF02E00CF094FF2030024600902146C1
:1009A0002846FFF792FD049B059A04460F4618431C
:1009B0001143084314D0184610431BD0009840211F
:1009C0000A1A18460599FFF790FD05460E46009A4B
:1009D00005990498FFF779FD084305D0012004E04C
:1009E0002046394607B0F0BD0020C11705430E432D
:1009F0002C43374300990E986305401A7905E40AA1
:100A000000220C43FD0A0A3002D500200146E9E726
:100A10000105101969410C9C0D9D00196941FFF7F2
:100A2000A2FFDFE730B58C180278401C13071B0FBC
:100A300001D10378401C120906D10278401C03E062
:100A400005780D70401C491C5B1EF9D101E00B704C
:100A5000491C521EFBD1A142E6D3002030BD00004C
:100A600080B5024802F0DEFB80BDC046C80A002007
:100A700080B5024802F0D6FB80BDC046A809002020
:100A800080B5034802F0CEFB024802F0CBFB80BDEC
:100A9000080A0020680A0020F0B591B00320000683
:100AA000EF490F680740012670050A90ED4DEF48A9
:100AB000002F07D031068F4209D1ED4909680A9A03
:100AC000114204D10468A102E748014002E0046831
:100AD0006102294030040F90FFF7D8FC60020690B5
:100AE00028400790C80A10900A300E90002000900D
:100AF000C0430B90F00609900C940D960A20002F2D
:100B00000BD031068F4205D1D94909680A9A1142A2
:100B1000D54A03D009202A4600E0D34A2146814025
:100B200011400F98FFF7B2FCC80A16300521089152
:100B30001099814200D382E10846C8020A22002FA0
:100B40000BD031068F4205D1C94909680A9B194269
:100B5000C54B03D009222B4600E0C34B0999451829
:100B60002146914019400F98FFF790FC002F0BD0C1
:100B700031068F420C99079A0AD1BD4909680A9A31
:100B800011420C99079A03D1A202B7490A402146A3
:100B900050432A58281842680824024622435368C2
:100BA0001268102502462A435368126818263043FB
:100BB00042680B9B5A400068584010430CD10E9875
:100BC0000B300E9010980B3010900C460D9EA54DDA
:100BD0000A20002F95D1A0E7A2480699014006916E
:100BE0000C980590109807901AE0049B99029E4A71
:100BF000114005934843039A115810184168014663
:100C000021434A680968014629434A680968304314
:100C100041680B9A514000685040084300D10EE1F2
:100C20000798C3020A20002F0CD00D9909068F42A5
:100C300005D18F4909680A9A11428B4A03D00920CD
:100C4000884A00E0884A8B49029359180391059914
:100C5000814011400F98FFF719FC002F0ED00D991D
:100C600009068F420C99049106990CD180490968B4
:100C70000A9A11420C990491069904D1059B990294
:100C8000794A114004934843039A11581018416857
:100C9000014621434A680968014629434A680968B0
:100CA000304341680B9A514000685040084300D1DE
:100CB000C5E00798811CC8020A22002F01910CD0C0
:100CC0000D9909068F4205D1694909680A9B1942A5
:100CD000654B03D00922634B00E0634B0999401830
:100CE00003900499914019400F98FFF7CFFB002F14
:100CF0000ED00D9909068F420C99059106990CD1D9
:100D00005B4909680A9A11420C990591069904D128
:100D1000049B9902544A114005934843039A115881
:100D200010184168014621434A6809680146294371
:100D30004A680968304341680B9A51400068504046
:100D40000843029B7BD00E98019988427AD00A20F2
:100D5000002F0CD00D9909068F4205D1444909682E
:100D60000A9A1142404A03D009203E4A00E03E4A16
:100D70004149591803910599814011400F98FFF797
:100D800085FB002F0ED00D9909068F420C99049116
:100D900006990CD1364909680A9A11420C990491B6
:100DA000069904D1059B99022F4A114004934843A8
:100DB000039A115810184168014621434A6809688E
:100DC000014629434A680968304341680B9A5140FB
:100DD00000685040084332D00798001D0790C002B9
:100DE0000A22002F0CD00D9909068F4205D1204907
:100DF00009680A9B19421C4B03D00922194B00E0D9
:100E0000194B0999401803900499914019400F9883
:100E1000FFF73CFB002F00D1E7E60D9909068F4252
:100E20000C990591069900D0E4E6114909680A9ADF
:100E300011420C990591069900D1D6E6DAE6089898
:100E400011B0F0BD0B21109801F0C0FE00280D98E4
:100E500001D011B0F0BD01F04FFE009811B0F0BD0F
:100E60000075FF1F00FE070000FC0F00E075FF1F6C
:100E700020200240000800080018000880B501F09A
:100E80003FFE80BDF0B599B0064601F036FE002861
:100E900003D00E24204619B0F0BD03200006E3491C
:100EA00009680391049001400124600502900A2022
:100EB000E04A009200290BD02206914205D1DE497A
:100EC0000968029A1142DB4A03D00920D84A00E09F
:100ED000D84ADA4909688140114020040690FFF79A
:100EE000D5FACD0A002E00D134E1079500200190FB
:100EF000C643059402E00798401C0790039F04989E
:100F0000074007D02006874209D1CB4800680299E4
:100F1000084204D1C9480568A902C64803E0C74889
:100F200005686902C24801400698FFF7AFFAC80A8F
:100F300016300799814200D32BE1E006C9020A244A
:100F4000002F2246BB4B0CD0059A1206974206D1C1
:100F5000B94A1268029B1A422246B64B01D00922B6
:100F6000B34B18940C182946914019400698FFF786
:100F70008DFA002F0ED0059909068F422346189C42
:100F800005D1AD490968029A1142AA4905D0092440
:100F9000A74902E0A7492346189CA5400D40684395
:100FA00018180721CA4311210891019B06E08033DC
:100FB000189A8032D108FF2900D3B1E01892C158A5
:100FC0001791C1184968714008221A43841864684F
:100FD00074400C438158169110221946099211430E
:100FE0004218526872402243415815911821194302
:100FF00044186468744014434158149120211943E3
:1010000042185268724022434158139128211943D3
:1010100044186468744014434158129130211943B4
:1010200042185268724022434158119138211943A5
:101030004418646874401443415810914021194386
:10104000421852687240224341580F914821194377
:10105000441864687440144341580E915021194358
:10106000421852687240224341580D915821194349
:10107000441864687440144341580C91602119432A
:101080004218526872402243455868211943441857
:1010900064687440144341580A91702119434758B9
:1010A0000B9741184F68774078221A438118496896
:1010B000714039432143179C7440169F7740274362
:1010C000159C74403C43149F77402743139C744005
:1010D0003C43129F77402743119C74403C43109F30
:1010E000774027430F9C74403C430E9F7740274333
:1010F0000D9C74403C430C9F7740274375403D4313
:101100000A9C74402C4327460B9D754084587440BC
:101110002C433C430C4300D149E70999089146E729
:10112000089880B21028059C00D0E4E60798214674
:1011300001F04CFD002800D0ACE63C48006803906C
:10114000D9E628460124214601F040FD6D1C002807
:1011500000D09FE6354801680A20049A11400CD05F
:1011600001221206914205D133490968029A1142BF
:10117000304A03D009202E4A00E02E4A2F49096840
:10118000814011400698FFF781F9C90A16318D4256
:10119000D7D301F0B1FC254801680A20049A114018
:1011A0000CD001221206914205D123490968029A06
:1011B0001142204A03D009201D4A00E01D4A1F4960
:1011C0000968814011400698FFF760F9C80A0224B7
:1011D000214607F0CFF8002800D05BE6184C00202D
:1011E00005466080114801680A20049A11400BD01E
:1011F00001221206914204D10F490968029A114254
:1012000002D009200A4900910C4909680D4A20239F
:1012100013608140009801400698FFF737F9C80A2B
:1012200020702C46204619B0F0BDC0460075FF1F47
:1012300000FE070000FC0F0020200240E075FF1FA9
:10124000F001002044010020F0B59DB0044601F0FB
:1012500054FC002803D00E2630461DB0F0BD029489
:1012600001273803E7490A6802430A600968014018
:101270001C911C98E448E549C16001680822159258
:1012800011431022079291430160E14D6F700320DA
:1012900005900006DF49096814910890014078051F
:1012A00017900A20DC4BDD4E00290BD03A06914204
:1012B00005D1DB490968179A1142324603D009204B
:1012C0001A4600E03246D7490968814011403C0483
:1012D0002046FFF7DBF8C80A1B9039463F02FF2083
:1012E000C0001A901191C8060A900720C0430690CA
:1012F0001994149A1146089801401891149208D034
:101300001198000681420AD1C54800681799084221
:1013100005D1C448006816908102314005E0C148FB
:10132000006816904102BC4801402046FFF7AEF825
:10133000C80A16301B99814200D302E10846C80250
:101340000A243346189E002E22460CD0012109069D
:101350008E4206D1B2490968179A11422246AF4B14
:1013600001D00922AC4B0A9940181490169991406B
:1013700019401998FFF78AF8002E0CD001210906B0
:101380008E4205D1A6490968179A1142A34903D094
:101390000924A14900E0A149169AA2400A405043FD
:1013A000149908180021069A159E43186B6044583A
:1013B0005B680B463343C4186C60C35863681023E2
:1013C0000B43C4186C60C358636818230B43C418DC
:1013D0006C60C358636820230B43C4186C60C35807
:1013E000636828230B43C4186C60C35863683023B8
:1013F0000B43C4186C60C358636838230B43C4188C
:101400006C60C358636840230B43C4186C60C358B6
:10141000636848230B43C4186C60C3586368502347
:101420000B43C4186C60C358636858230B43C4183B
:101430006C60C358636860230B43C4186C60C35866
:10144000636868230B43C4186C60C35863687023D7
:101450000B43C4186C60C358636878230B43C418EB
:101460006C60C358636880230B43C4186C60C35816
:10147000636888230B43C4186C60C3586368902367
:101480000B43C4186C60C358636898230B43C4189B
:101490006C60C3586368A0230B43C4186C60C358C6
:1014A0006368A8230B43C4186C60C3586368B023F7
:1014B0000B43C4186C60C3586368B8230B43C4184B
:1014C0006C60C3586368C0230B43C4186C60C35876
:1014D0006368C8230B43C4186C60C3586368D02387
:1014E0000B43C4186C60C3586368D8230B43C418FB
:1014F0006C60C3586368E0230B43C4186C60C35826
:101500006368E8230B43C4186C60C3586368F02316
:101510000B43C4186C60C3586368F8230B43C418AA
:101520006C60C3586368D219C9191A9B9A4200D2D9
:101530003BE7384802681B98401C1B90374E199CAB
:10154000D8E60020099068700A20189A002A0DD069
:10155000119909068A42304F05D131490968179A15
:101560001142324603D009203A4600E03246169F27
:101570003946814011402046FEF788FF7802264A0E
:1015800010400E90CA0A0999C8431B900D910C9106
:101590000B91189B05E0491C0D910C920B90129F2A
:1015A000521C13920A20002B0CD0012109068B42F9
:1015B00005D11B490968179A1142324603D0092008
:1015C000154A00E032463946814011402046FEF778
:1015D0005DFFC80A16301399814200D382E0C80229
:1015E0000A22189B002B1FD0012109068B4205D12E
:1015F0000B490968179B1942334616D00922064B3E
:1016000013E0C04638100240083002400580000058
:10161000F00100200075FF1F00FE070000FC0F0016
:1016200020200240E075FF1F33460A9944183946CE
:10163000914019401998FEF729FF189A002A0CD0FA
:10164000012109068A4216990E9A09D1EA490968C8
:10165000179A114216990E9A02D1BA0232403946AF
:101660001291504321581091211848680F900B4651
:10167000159A134358681A6810270F437C683F680F
:1016800018230B4359681B9E71401B6873400B4322
:1016900004D0DA4E199C189B139A80E7109B0F997F
:1016A000774074403C430AD00D990029139A1046A4
:1016B000D24E199C189B00D16DE70B986BE77340D5
:1016C0000F4677401F43791E8F4172407040104390
:1016D000119A199C189B00D13A46099880180990D4
:1016E000C64ED9E709980028149B00D147E2194655
:1016F000089801401291149309D001200006129914
:1017000081420BD1BC4800681799084206D1BC48F9
:10171000006881023140129EBA4F05E0B848006867
:101720004102B84F3940129E0D902046FEF7AEFEA2
:101730000D9B580238400B90C90A0E93139301E099
:101740001699491C16910A20002E0CD00121090679
:101750008E4205D1A8490968179A1142A74A03D0B9
:1017600009203A4600E0A54A1893194681401140E5
:101770002046FEF78BFEC80A16301699814200D328
:10178000E5E1C8020A22002E0CD0012109068E4292
:1017900005D199490968179B1942984B03D0092232
:1017A0003B4600E0954B0A9944181899914019401E
:1017B0001998FEF76BFE002E08D0012109068E4213
:1017C00009D18D490968179A114204D118998902E3
:1017D0008A4A114002E0189949023940159E48434F
:1017E0002318596820581A46324354681B9E744087
:1017F000126872402243541EA24110271C460F97C4
:101800003C4367687740246874403C43671EBC4192
:10181000182710973B435F6877401B6873403B4332
:10182000119E334600D12346002B334600D1134688
:101830001B9A50405140014348424841002B3146D9
:10184000704F199C00D101460029129E189B00D0B0
:1018500076E70A20002E0CD0012109068E4205D120
:1018600065490968179A1142644A03D009203A462B
:1018700000E0624A1946814011402046FEF706FE0C
:10188000C80A169981421DD00A20002E0DD00121D0
:1018900009068E42189B05D157490968179A1142CB
:1018A000564A04D009203A4601E0544A189B19468A
:1018B000814011402046FEF7E9FDC80A0B30169919
:1018C00081424BD10A27002E38464C4C22460CD080
:1018D00001200006864206D1474800681799084251
:1018E0003846224601D00920464A139981401140CA
:1018F0001998FEF7CBFDC80A1699081A401C162144
:10190000FEF7C4FD22460C46002E38460CD00120BE
:101910000006864206D138480068179908423846C2
:10192000364A01D00920374A13998140114019984D
:10193000FEF7ACFDE0020C1833480440002E65D0E1
:101940000120000686422D4E05D12B4800681799CC
:10195000084230465CD009272A4859E00A27002E61
:101960003846264A0CD001200006864206D122487D
:101970000068179908423846204A01D00920214AB8
:101980001899814011402046FEF780FDC80AC043E7
:101990001699081816301621FEF778FD0991002EC9
:1019A0003846164A0CD001200006864206D112485D
:1019B0000068179908423846104A01D00920114A98
:1019C0001899814011402046FEF760FD0998C00239
:1019D0000C180D480440002E75D0012000068642E8
:1019E000189A05D1044800681799084203486CD03A
:1019F0000927044869E0C0462020024000FC0F008F
:101A0000E075FF1F00FE070000F81F00F44E30468F
:101A10000A990C431399B94001401998FEF736FD15
:101A2000129900290FD001210906129A8A420D99B4
:101A300013910B990BD1FB490968179A11420D9923
:101A400013910B9903D10E9A91023140139248439E
:101A500001591891071978680E903B461598034371
:101A60005A681B680F9838434468066810993943D0
:101A70004F681B98474009684140394315D146409B
:101A80004440344311D1434042401A43E64F199C2D
:101A9000129E169912D1189A42400E9B434013434E
:101AA00013980E90034650D1DDE013980E90034634
:101AB000DD4F199C129E1699491C43E613980E900F
:101AC0000346491C3EE6D648189A0A990C43BA4088
:101AD000024019981146FEF7D9FC002E08D00121CA
:101AE00009068E420AD1CF490968179A114205D1D9
:101AF00013998902CA4A1140CB4F03E01399490256
:101B0000C94F394048430159001941680146159AA7
:101B100011434A6809680F9A024351681B9B594058
:101B200012685A400A4351425141109A0243506888
:101B3000584012685A400243119800D108460028C4
:101B4000139B199C169900D18DE0491CFAE50020E1
:101B50000190B34A149908980140149100D197E07C
:101B600001200006814205D1AE480068179908425D
:101B700000D18DE0AD480668710239408CE00D98C7
:101B8000002801D100F02FFC32460A2618990029BE
:101B900030460CD001200006814206D1A1480068E1
:101BA0001799084230469E4A01D009209E4A39467C
:101BB000814011402046FEF769FCC80AC0430B99DA
:101BC000081816301621FEF761FC189B1691002BA1
:101BD0003046934A0CD001200006834206D191483A
:101BE00000681799084230468D4A01D009208E4A74
:101BF0003946814011402046FEF748FC189B169854
:101C0000C0020C188A480440002B3046844A0CD08D
:101C100001200006834206D18248006817990842D5
:101C200030467F4A01D009207F4A0A990C43394641
:101C3000814011401998FEF729FC189A002A01D119
:101C400000F086FE012109068A42149B07D17549DE
:101C50000968179A1142724901D100F07BFE0926EA
:101C6000714900F077FE29700020012601463246B6
:101C700004F0C4FC3102884200D0BBE36D48016827
:101C800011980190664A08980140149100D067E7C6
:101C900066480668B102114009962046FEF7F6FB39
:101CA000700238400490C80A00210D910B961096DE
:101CB00018960646149A0CE0139F0E900F917340ED
:101CC00072401A43199C6FD0169E0C96564F149A68
:101CD000761C0A20002A0CD0012109068A4205D16F
:101CE00050490968179A11424D4A03D009203A46D3
:101CF00000E04B4A1899814011402046FEF7C6FB90
:101D0000C80A1630864200D3E1E1F0020A22149B91
:101D1000002B0CD0012109068B4205D141490968ED
:101D2000179B19423E4B03D009223B4600E03C4B37
:101D30000A9944181899914019401998FEF7A6FB82
:101D4000149A002A169608D0012109068A4209D160
:101D500034490968179A114204D118998902304A06
:101D6000114002E01899490239404843215824188B
:101D700060682146159801434868129008681390DE
:101D80001020234603435A681B6818210C436768D8
:101D90001B9E7740246874403C438DD0224F199C91
:101DA000149A169E761C94E738467040129F77402E
:101DB000074312D00A20149A002A13D001210906E1
:101DC0008A42194C169E05D116490968179A114284
:101DD000134A0AD00920224607E0134FE0E7C04625
:101DE00000FC0F000E4A104C169E189981401140BD
:101DF0001998FEF74BFBC80A864228D00A20149A8D
:101E0000002A19D0012109068A4205D1054909682D
:101E1000179A1142024A10D0092022460DE0C0460E
:101E200000FC0F002020024000FE0700E075FF1FAD
:101E300000F81F000075FF1FED4A189981401140FE
:101E40001998FEF723FBC80A0B3086424DD10A27AA
:101E5000149900293846E64C22460CD00120000691
:101E6000814206D1E3480068179908423846224665
:101E700001D00920E04A1099814011401998FEF7DD
:101E800005FBC80A301A401C1621FEF7FFFA149B06
:101E900022460E46002B38460CD001200006834215
:101EA00006D1D4480068179908423846D04A01D074
:101EB0000920D14A1099814011401998FEF7E6FA9D
:101EC000149AF0020C18CD480440002A5CD001207E
:101ED00000068242C64E05D1C648006817990842DE
:101EE000304653D00927C44850E00A2714990029E6
:101EF0003846BF4A0CD001200006814206D1BD48B9
:101F00000068179908423846B94A01D00920BA4AF0
:101F1000189981401140199C2046FEF7B7FAC80A6B
:101F2000C043301816301621FEF7B0FA149B1691F4
:101F3000002B3846AE4A0CD001200006834206D161
:101F4000AC480068179908423846A94A01D00920D0
:101F5000A94A1899814011402046FEF797FA149A31
:101F60001698C0020C18A5480440002A5FD0012032
:101F70000006824205D19F480068179908429C4894
:101F800056D009279C4853E0994E30460A990C4395
:101F90001099B94001401998FEF778FA149A002A6E
:101FA0000ED0012109068A420999109104990BD19A
:101FB00090490968179A114209991091049903D11F
:101FC0000B9A910231401092484301591891071918
:101FD000786813903B46159803435A681B680E981F
:101FE0003843446806680F9939434F681B98474047
:101FF00009684140394366D14640444034437E4FEE
:1020000011D1434042401A430DD118994140139ACF
:1020100042400A4310980B90199C149A169E47D080
:1020200010980B904CE010980B901890B7E6704801
:102030000A990C431899B94001401998FEF726FAFD
:10204000149A002A08D0012109068A420AD1694956
:102050000968179A114205D110998902644A114002
:10206000654F03E010994902634F39400E9B484386
:102070000159001941680146159A11434A680968D7
:10208000034359681A461B9B594012685A400A4339
:10209000514251410F9A02435068584012685A40C9
:1020A0000243119800D108460028199C149A06D1C1
:1020B0000D98002800D0F4E22E7001200D901098A9
:1020C0001890761C05E610980B90189066E60D980F
:1020D0000028149900D153E1494820210F91016053
:1020E00000201690688028780D90C0020E90402045
:1020F0001390414F434802681646089806401892CC
:1021000008D00120000686420AD13A480068179993
:10211000084205D13C480468A1023548014003E06B
:1021200039480468610239401998FEF7AFF90A216D
:10213000002E0DD00122120696422D4E05D12D4AB9
:102140001268179B1A42324603D009213A4600E032
:10215000274A0A9B0F9EF3180E9E9B198C40144031
:10216000604319581B9A514010931818406850400A
:10217000084300D142E11398183821490860012032
:10218000169B129003436B801E48026816460898FF
:102190000640149308D01298000686420BD11548C9
:1021A00000681799084206D1174617480468A1022B
:1021B0000F48014005E03B4617461348046861029A
:1021C00019401998FEF762F90A21002E1ED0129AC2
:1021D000120696423B46084F07D1064A12681E4631
:1021E000179B1A423346024A13D009213A4610E09F
:1021F00000FC0F002020024000FE070000F81F0036
:10220000440100200075FF1FE075FF1FEA4A3B46AE
:10221000EA4F8C401440604310990818C1681B9A1B
:10222000514080685040084300D1EAE013981038CC
:10223000E349086002201699084314906880E14839
:10224000026816460898064008D012980006864292
:102250000AD1DD4800681799084205D11746DB48C6
:102260000468A102D44804E01746D8480468610213
:10227000D24801401998FEF709F90A21002E10D022
:10228000129A120696423B46CC4F07D1CE4A1268AC
:102290001E46179B1A423346C74A05D009213A46C3
:1022A00002E0C54A3B46C54F8C401440604310993C
:1022B000081841691B9A514000695040084300D1F9
:1022C0009FE0139E083EBE480660169B0598034398
:1022D0006B80BC4802681746089807401892149310
:1022E00008D012980006874209D1B74800681799AC
:1022F000084204D1B5480468A102AF4803E0B348DE
:1023000004686102AD4801401998FEF7BFF80A2140
:10231000002F11D0129A12069742A84F189B08D18D
:10232000A94A12681F46179B1A423B46A34FA24A6E
:1023300005D009213A4602E09F4AA04F189B8C40E5
:102340001440604310990818C1691B9A5140806974
:102350005040084355D09A48139901601698001DC3
:1023600016906880203113910F9820300F901A98A2
:10237000864200D2BEE6934803681698149040E067
:102380000A24002920468C4A8C4F0CD001200006DC
:10239000814206D18C480068179908422046864A37
:1023A00001D009203A461899814011401998FEF74A
:1023B0006DF8C80A0C99081A401C1621FEF766F839
:1023C000149A0E46002A00D116E30120000682422C
:1023D00006D17D48006817990842774800D10CE380
:1023E0000924384609E30020FEF74CFD0646304636
:1023F0001DB0F0BD0C2630461DB0F0BD16981490EF
:10240000189B089803400D9804906B4E199C1893E4
:10241000002B0ED001200006834204D16A480068D8
:102420001799084205D06948006816904102394062
:1024300004E0664800681690810231402046FEF7AD
:1024400025F8C80A0499814200D1C1E00A20189AEF
:10245000002A0CD0012109068A4205D15A4909688F
:10246000179A1142324603D009203A4600E032461C
:102470001699814011402046FEF708F8C80A0B3033
:102480000499814200D1A3E00A271899002938460F
:1024900032460CD001200006814206D14A4800682D
:1024A000179908423846324601D00920434A169906
:1024B000814011402046FDF7E9FFC80AC043049956
:1024C000081816301621FDF7E1FF189B32460E461C
:1024D000002B38460CD001200006834206D13A4832
:1024E0000068179908423846334A01D00920334A18
:1024F0001699814011402046FDF7C8FF189BC80A75
:1025000080190490C402002B38462B4E32460CD062
:1025100001200006834206D12B4800681799084223
:102520003846324601D00920244A0A990C431699AC
:10253000814011401998FDF7A9FF189A002A0CD084
:10254000012109068A4205D11F490968179A1142DB
:10255000314603D00927194900E03146169ABA409E
:102560000A4050432158201841680146159A1143EA
:102570004A6809680146079A11434A681B9C6240F1
:102580000B68634013435942594118220243506873
:102590006040126862400243119800D1084600284A
:1025A000064F199C7DD11498FC3014906880189BBC
:1025B000002B00D02EE73CE700FC0F0000FE0700D8
:1025C000440100200075FF1F20200240E075FF1F1E
:1025D0000A2518990029284632460CD00120000609
:1025E000814206D1D94800681799084228463246E8
:1025F00001D009203A461699814011402046FDF746
:1026000045FFC80A0D99081A401C1621FDF73EFF28
:10261000189B32461591002B28460CD0012000064D
:10262000834206D1F2480068179908422846F14AC9
:1026300001D009203A4616998140114020461E4695
:10264000FDF724FFC80A002E2A46EA4B0CD00121D0
:1026500009068E4206D1E6490968179A11422A46B0
:10266000FB4B01D009223B4615994018039016995F
:10267000914019402046FDF709FF002E15D0012199
:1026800009068E42F24B05D1F2490968179A1142A8
:10269000194601D009253946049A039B934209D073
:1026A0001FE00A2630461DB0F0BDE949049A039B9D
:1026B000934216D100F020FA01980026002801D09C
:1026C000FEF7CAFD3046314608F0E8F8421E0146E2
:1026D0009141122801D1FEF7BFFD4E0030461DB0DA
:1026E000F0BD039AD2020A9B1A43169BAB400B40E3
:1026F0005843101809900AE009261946B5400D40C4
:10270000684320180990049803998142D2D0029816
:10271000002800D1A3E01120059006991B9D05E03B
:10272000189980311A98814200D394E00998189141
:10273000431898681690D868684059696940014301
:1027400018691590D8696840084399691491596AC5
:1027500069400143186A1390D86A68400843996A2F
:102760001291596B69400143186B1190D86B684006
:102770000843996B1091596C69400143186C0F9094
:10278000D86C68400843996C0E91596D69400143BB
:10279000186D0D90D86D684008439F6D596E694063
:1027A00001431D6EDE6E1B9846400E439C6E586FB3
:1027B0001B9948403043196F0B91996F0C91D96F59
:1027C0001B9A51401A46803252681B9E72400A433F
:1027D00002431B98169941401B98159E46400E4394
:1027E0001B981499414031431B98139E46400E4359
:1027F0001B981299414031431B98119E46400E434D
:102800001B981099414031431B980F9E46400E4340
:102810001B980E99414031431B980D9E46400E4334
:102820001B98474037431B9845403D431B98444005
:102830002C431B9D0B986840204301460C9C6C4028
:1028400080201858684020430843104300D167E7B0
:102850000798059064E7059880B2102808D10126F2
:102860000398314600F0B2F9002801D0FEF7F4FCDD
:10287000D24807680898074008D001200006874220
:102880000AD1744800681799084205D1CE480568F6
:10289000A902CB4C214005E0CB4805686902C94834
:1028A0000140C74C1998FDF7F1FDC80A0399081AB1
:1028B000401C1621FDF7EAFD18910A26002F30462C
:1028C00022460CD001200006874206D1F548006858
:1028D000179908423046F24A01D00920EF4A2946AA
:1028E000814011401998FDF7D1FDC80A1899401888
:1028F0000390C402002F3046E94A0CD001200006A4
:10290000874206D1E7480068179908423046E44AF2
:1029100001D00920E14A0A990C432946814011401F
:102920001998FDF7B3FD002F0DD0012109068F4244
:10293000DA4B00D0E0E6DB490968179A1142D84922
:1029400000D0D9E6DAE6D649D8E6C04620200240D3
:10295000D349149B3A46B2400A40504301590019EA
:1029600041680146159A11434A68096810210143DC
:102970004A6809681821014348681B9A5040096851
:1029800051400143C64E199C01D1FEF7B0FE0A2406
:1029900018990029204632460CD0012000068142B9
:1029A00006D1C0480068179908422046324601D037
:1029B0000920BA4A3946814011401998FDF766FD51
:1029C000C80A0C99081A401C1621FDF75FFD189AD9
:1029D0001691002A24D001200006824205D1B14878
:1029E00000681799084230461BD00924AB4818E00C
:1029F0002020024000FC0F00A9481899A140014086
:102A00001998FDF743FDC80A80192870022631463F
:102A100005F0B0FC002801D0FEF71EFCFFF75CFBC0
:102A20003046A7400740199C20463946FDF72EFD49
:102A3000C80A16994018012105F09CFC002803D013
:102A4000022630461DB0F0BD93480368FEF74FFEE6
:102A500000FC0F002020024010B582B00C46411E41
:102A6000124A914208D80021019101A904F02AFBE1
:102A70000199216002B010BD082002B010BDC0460F
:102A8000B0B50C460546401E084988420BD828467A
:102A9000214607F003FF122804D1002228462146D0
:102AA00003F0ACFDB0BD0820B0BDC046FDFF000086
:102AB000EFF3108072B6FEE710B502460D4B587A60
:102AC000002801D0012010BD5C7A002018555C7AE6
:102AD000A4001C1962605A7A9A1810725A7A541C0F
:102AE0005C72C8702F238B703A234B7030320A709F
:102AF00010BDC046C006002070470020704700008F
:102B0000F0B50146AF4A50680123184350600020D9
:102B100008604860032424065F4D2E6826400A257D
:102B20005F4C002E07D01F06BE4202D1967CB6062F
:102B300001D55A4C09255C4E3668AE402640DC066D
:102B400034198C420DD9190414680C4216D014683B
:102B50000C4213D014680C4210D014680C42F3D10C
:102B60000CE0590414680C4208D014680C4205D0DB
:102B700014680C4202D014680C42F3D11168890722
:102B80000ED4116809070BD41168C90608D411685E
:102B9000890605D41168490602D41168090600D5D2
:102BA0000D201168C90700D0136051689943516026
:102BB000D90793680B439360F0BDC0460075FF1FB3
:102BC00000FC0F0000FE0700E075FF1FF0B589B0A4
:102BD0000C46019000200490032001062E48006856
:102BE00008400125690502912C492D4F002807D086
:102BF0002A06904209D12B4A1268029B1A4204D13C
:102C0000294A1668B2023A4003E0274A166872025F
:102C10000A4000920A22002803923B460BD02B0662
:102C2000984206D11F4A1368029A1342039A3B4600
:102C300001D009220B4600280AD02906884204D177
:102C4000184800680299084202D009200390134FE7
:102C50000894022005903C46374697401F402804C0
:102C60000099FDF713FC784301990791C9020818F0
:102C7000E9064018039A964026407118814201D80F
:102C8000E80300E00420069005A804A900F046FC33
:102C9000411E884109B0F0BD0075FF1F00FE07000E
:102CA00000FC0F0020200240E075FF1F80B50146A8
:102CB000012000F0F5FC80BD10B5094C20680949E1
:102CC000084204D00120800721680143216000F000
:102CD00093FC0120000621680143216010BDC0461D
:102CE000182002401E00040010B5074A1468074B64
:102CF0002340042802D0012040031B18C8001843B9
:102D000003490143116010BD1420024007C0FFFFBA
:102D100002000100F0B583B005460320029000F0E8
:102D200085FE0646274F38688003800F18D002982A
:102D30000404681C11D000F079FE801BA8423ED22A
:102D400038682042F7D10BE03868204208D0386854
:102D5000204205D03868204202D038682042F3D1A2
:102D60003968194838601948084004D01849486043
:102D7000012003B0F0BD38680021400302D40846AA
:102D800003B0F0BD01208404681C14D0019100F050
:102D90004DFE801BA84212D238682042F7D101981C
:102DA00003B0F0BD38682042E9D038682042E6D050
:102DB00038682042E3D038682042F3D1DFE7029838
:102DC00003B0F0BD10200240FBC30800FAC30000AE
:102DD00060100020F0B58FB003221306D4490F68AD
:102DE0001F400125EC06D34909780B91CB026905F8
:102DF0000C91D2490991002F0892079009D0290619
:102E00008F420BD1CE49096826460C9C214234469C
:102E100004D1CC490E68B102C84803E0C9490E6824
:102E20007102C548014006941C1928040E90FDF754
:102E30002DFB0A21002F0D950BD02A06974205D1B4
:102E4000BF4A12680C9B1A42BC4A03D00921BA4AF5
:102E500000E0BA4A0A9633468B4013405843215843
:102E600002912518686808212A4603910A4356688A
:102E7000126810212C4604910C43636824681821C1
:102E800005910D4369682D680D40691C0025ED43CF
:102E9000002902D00420029016E002996C406B4099
:102EA000234302D0032002900EE06A406E40164396
:102EB00002D00220029007E00A466A4001466940BB
:102EC0001143481E814102910A9E0A950A24002F4F
:102ED00020469A4A0CD00D980006874206D19848A1
:102EE00000680C9908422046944A01D00920924A71
:102EF0003146814011400E98FDF7C8FAC80A0B9977
:102F0000081A401C1621FDF7C1FA0D46002F204675
:102F10008A4A0CD00D980006874206D1884800687E
:102F20000C9908422046854A01D00920824A314640
:102F3000814011400E98FDF7A9FAC80A4019019086
:102F4000C502002F20467D4A0CD00D98000687420E
:102F500006D17B4800680C9908422046774A01D088
:102F60000920754A06990D433146814011400E985B
:102F7000FDF78CFA002F0DD00D9909068F42039BA7
:102F800005D16F4909680C9A11426C4904D0092493
:102F9000694901E06949039B3246A2400A40504317
:102FA000295800912918486803900B4358680690E7
:102FB0001A680498084344680568059808434168FE
:102FC0000A9B594000685840084303D004200890E9
:102FD0000D9916E05D405C402C430D9911D10A9883
:102FE00013464340069A42401A4302D002200890FA
:102FF00007E0009B4340039A42401A43501E82411F
:1030000008920A24002F20464C4A0BD0080687421B
:1030100006D14B4800680C9908422046474A01D027
:103020000920454A3146814011400E98FDF72EFA9D
:10303000C80AC0430B99081816301621FDF726FA66
:103040000D46002F0BD00D980006874204D13C4856
:1030500000680C99084202D0092437480990A6401C
:10306000099806400E983146FDF710FA0798002897
:1030700010D002281BD0012816D1029801280A9DE1
:103080001CD0022844D1304C2068C00A1DD10B98B6
:103090000FB0F0BD029A022A0B980DD0012A03D17D
:1030A000C80A40190FB0F0BD0A980FB0F0BD0898DB
:1030B0000028019800D00A980FB0F0BD224C20687B
:1030C000C00A18D10B980FB0F0BD0898042803D19E
:1030D000FDF7E2FC00281BD103210B9805F04AF90B
:1030E000002815D10221019E304605F043F9002841
:1030F0002846E1D117E00898042803D1FDF7CCFC5D
:10310000002805D103210B9805F034F9002802D0DE
:1031100028460FB0F0BD0121019E304605F02AF986
:1031200000282846C8D12020206030460FB0F0BDCE
:103130000075FF1FF001002000FE070000FC0F00DB
:1031400020200240E075FF1F44010020B0B5002898
:103150002AD0014624314A78022A27D104682268FD
:103160000E239A432260826C15682D4B1D4015601A
:103170002568012295432560446C1C252540144692
:10318000AC40056C6C60C46C056D6560446D002CD2
:1031900005D025681D402560836DC06D58604A705C
:1031A000002000220A70B0BD0120B0BD0422C2631D
:1031B000012000220A70B0BDB0B5014624314A7822
:1031C000022A29D103681A680E24A2431A601C68D7
:1031D000012294431C60846C2568114B1D402560BE
:1031E000446C1C2525401446AC40056C6C60C46CD6
:1031F000056D6560446D002C05D025681D40256077
:10320000836DC46D5C6000240C704A70816B002972
:1032100000D088472046B0BD0421C1630120B0BD65
:10322000FFFEFFFFF0B585B0016C03910B680668E7
:103230003268042502922A40514251410490426C66
:1032400018461C2313402F469F403A4602405442E2
:1032500054410C432ED0019601220227029E314692
:1032600039404D424D419F400742009200D02A46CE
:10327000049C25462435002A2CD008210E40774294
:103280007741D8400007009800D5384600281FD164
:10329000019A10680E218843106001200146994070
:1032A000039A5160E063002129706870616B002906
:1032B0000CD10DE03068800602D43068A84330603D
:1032C00003984760049C216B002901D02046884761
:1032D00005B0F0BD019B1868800605D418680A2166
:1032E000884318600120687000202870054A104645
:1032F0007C30834200D9044A1760E16A0029E5D195
:10330000E6E7C0460400024004040240F0B587B07E
:10331000002812D00446014624310220069148704C
:103320003C480146083126688E4200D23A48206463
:103330008E42039104D33A4803E0012007B0F0BD68
:103340003648801914210291FDF7A0F880000590FD
:1033500060643068334901403160A768E168254600
:1033600010352DCD0195256A049508431043184367
:10337000019908430499084331680143049739438C
:103380003160294D28468030E064FC203040083808
:103390000299FDF77BF8039FBE4200D3C01D1F2298
:1033A000024001210B4693402365BE4200D31C35E9
:1033B00005982D18A5648A031C48049E964206D1E0
:1033C00000222A60626003601546134618E06268B6
:1033D0007F2616402E600360531E0022032B1546E5
:1033E00013460DD8731E9A0082180025D567032551
:1033F0001D400B46AB400E4D2B607C32BC30054669
:103400000020E0636265A565E365069A107051705F
:1034100007B0F0BD0004024000000240F8FFFDBF0D
:10342000F8FBFDBF0F80FFFF000802408408024048
:1034300044090240F0B583B004462420205C0128F2
:1034400002D1022003B0F0BD2546243501202870AA
:103450006E78012E2DD10092022068700020E0636A
:1034600025682A6801260296B2432A60E26C266D1E
:103470005660626D0192002A02D0A26DE66D566020
:10348000226C666C1C273740029EBE4056606B6003
:10349000A368102B009E324600D00A46AA60102B6B
:1034A00000D03146E9602968226B002A07D00E223D
:1034B0000AE0002129708021E16303B0F0BD0422FD
:1034C000914329602A680A2111432960029909025F
:1034D000A26C1368DB0302D513680B431360019BD6
:1034E000002B02D01A680A431A602968029A114315
:1034F000296003B0F0BD0000B0B5044600F096FAB4
:103500000546601C02D004480078041900F08EFAC9
:10351000401BA042FAD3B0BD04000020F0B585B036
:103520000446C94F3878012802D1022005B0F0BD09
:10353000029100267E600120049038707D20C50035
:103540002846FFF7E7FB3246002802D03A7005B064
:10355000F0BD2E46206804280FD124480168154686
:1035600062680A4304990904114301603046FFF779
:10357000D1FB2A463A7005B0F0BDD04302990860ED
:103580001146A568E068401985420192104624D290
:10359000EF00049A1004801C03901448006814493A
:1035A00008406168042901D0510340183843039949
:1035B00008430E4908603046FFF7ACFB002809D1EC
:1035C000A068E168081808376D1C8542049AE4D3A6
:1035D000019801E002990D609B4F044B196802228B
:1035E00091431960019A3A7005B0F0BD1420024071
:1035F00007C0FFFF7047000070B5944D28689549DB
:103600000840914EB26853070BD46B6893436B60CC
:10361000214B1A423AD032460C321468002805D1A8
:103620000DE0324610321468002808D029600021CD
:10363000B160716801437160204600F02FF828687E
:10364000C00703D1B068002818D070BD01202860E1
:10365000B06802280AD1B069401EB06106D0706916
:10366000411C71613069FFF73FFB01E00020B06051
:103670002046FFF7BFFFB0680028E6D10020307079
:103680000320000669688143696070BD32461432C8
:1036900014680028CAD1D2E7010004007047000076
:1036A000F0B589B00E4668490C78012C03D1022789
:1036B000384609B0F0BD01930292039000200690B5
:1036C000486001200590087003200490040400F075
:1036D000ADF905465D4800688003800F0AD07D2063
:1036E000C70000F0A3F9401BB84232D25748006827
:1036F0002042F6D155490868554A0A60554A10409B
:1037000003D051494860059F89E07D20C0000890A2
:103710000127B8040790086840030AD500F086F92D
:10372000401B0899884214D248480068079908420B
:10373000F4D1039801280FD1444A50680121014374
:10374000516002983060BFF36F8F01987060164629
:103750004AE0049F3C4962E005973C494868079A63
:1037600010434860EFF310800490EFF3108172B6BD
:10377000069A1146029843587350731845186F689B
:103780005F60AF689F60EF68DF602F691F616F69DE
:103790005F61AF699F61EF69DF612F6A1F626F6AC6
:1037A0005F62AF6A9F62EF6ADF622F6B1F636F6BAE
:1037B0005F63AF6B9F63ED6BDD630F23134340319A
:1037C00010323F2BD7D3214E3168214208D03168C7
:1037D000214205D03168214202D031682142F3D123
:1037E000049880F31088059F00F020F905463068A2
:1037F000204208D000F01AF9401B08998842F6D3FD
:103800000327114907E03068114931601149084028
:103810000AD00D494860039A70689043706006981A
:103820000870384609B0F0BD306800270799084293
:10383000E7D000F0FBF8401B08998842E0D23068DE
:1038400007990842F5D1DCE7601000201020024003
:10385000FBC30800FAC300000648C168002901D470
:10386000002070470449016004490160C068C00F2E
:103870007047C0460820024023016745AB89EFCD61
:10388000F0B589B006900B68002B00D1B6E05C481B
:10389000069A824202D00846052501E00846042522
:1038A0000B210907069A54180A21CC410094042CD4
:1038B00000D3009500273E463D463C460146079012
:1038C0000EE02943059D504801600799641C0B6870
:1038D0001846E040BF1C361D0835002800D18DE099
:1038E0000120A04003400293F0D0059504960B46BA
:1038F00003263146B940C9433A465F683D463540E4
:103900006B1E012B08910397019211D806998B68C1
:10391000089E3340079EF66896401E438E60FB0665
:10392000DB0FA3404E6886431E434E60089906E0B5
:10393000032D04D135460799049E019F1FE0069A86
:10394000D068084007998B68019FBB400343D36050
:10395000022D049E13D11C2030400F218140E3082A
:103960009B00069AD3181D6A8D4307990969814007
:103970002943196207994868032503900540BD4013
:10398000069A1068089B184028431060039880032B
:10399000800F059D9AD0182028400A460F218140AB
:1039A000032325469D43174E73191D6E8D430099C1
:1039B00081402943196631685068C30202D5029DCF
:1039C000294301E0029DA943049E0E4B19605968EA
:1039D000830201D5294300E0A9430A4B59600A49F3
:1039E0004968830301D5294300E0A943064B596088
:1039F0001968C00300D564E7A94363E709B0F0BDC7
:103A000000100050001802408018024042690B4626
:103A100093430A401104C91881617047002A02D0FB
:103A20001822815070472822815070476C480068E6
:103A30007047C046B0B50246034640335C7802206A
:103A4000202C17D11C78012C14D024205870106819
:103A500002680124A24302602203056895430560C1
:103A600002680A4302600168214301600020187067
:103A700020215970B0BDB0B50246034640335C7892
:103A80000220202C17D11C78012C14D0242058702F
:103A9000106802680124A24302600F221202056826
:103AA0009543090229430160016821430160002018
:103AB000187020215970B0BDF0B581B0002822D017
:103AC0000446054640356878002804D10020287057
:103AD000204600F04BF8242068702068026801211D
:103AE0008A4302600F22120663689343036183686E
:103AF0001C4A13408360A368E668012E06D1CE03FA
:103B0000334383600CE0012001B0F0BD2127BF02E8
:103B10003B438360022E03D1CB0246681E4302E082
:103B2000CB0246689E43466043680F4E1E43466084
:103B3000C3681340C360226963691343A269120218
:103B40001A43C260E269236A1343036002680A43AE
:103B5000026000206064202169702063A87001B0B9
:103B6000F0BDC046FF7FFFFF0080000210B586B0A9
:103B700000681349884201D006B010BD114C20687E
:103B8000022108432060206808400090062005902C
:103B900000200490039012200290182001900098B9
:103BA000094801A9FFF76CFE0120C005A168014387
:103BB000A160A16801400091009806B010BDC04608
:103BC0000088004034100240000400500348007890
:103BD00003490A68101808607047C04604000020B6
:103BE000483E002010B50124200208490A6802431B
:103BF0000A60032000F00CF8002801D0204610BD18
:103C000000F052F80024204610BDC04600200240BB
:103C1000F0B585B0044633480168102211430160B5
:103C2000006810400190019801A8694600F0CAFDA3
:103C3000049F00F0DFFD174E1749184A3260002537
:103C4000B561B560F1603561791E8F41B8401449A6
:103C5000FCF71CFC401E7060304601F0CCF90028D7
:103C600001D005B0F0BD0B4801F0F2F90028F8D101
:103C7000112000F039F8032C09D8112021462A46DA
:103C800000F03EF807480460284605B0F0BD01206A
:103C900005B0F0BDEC0E0020E7030000001000406E
:103CA00040420F000800002010B582B00D494A685C
:103CB000012002434A604A6802400192019A0207C9
:103CC0000B6813430B600968114000910099C043D1
:103CD00003240022214600F013F8600201F07EF96F
:103CE00002B010BD3C100240002805D41F2108403E
:103CF00001218140014801607047C04600E100E0B9
:103D0000002805D40322034693430A4A9A1803E085
:103D10000C220240064BD2188007C00E8901C9B29E
:103D20008140FF2383401068984308431060704728
:103D300014ED00E000E400E0B0B5B3218A000021FA
:103D4000815403685C6D01252C435C658018856097
:103D5000586D022202435A650846B0BDB0B528240A
:103D60000D060BD5072529404C4300191430002AB5
:103D70000BD08360012101730020B0BD4C430019BA
:103D8000552189004018002AF3D1C3800021017316
:103D90000020B0BD10B507220A4049B2002908D45E
:103DA00028215143411855239B00C91800234B700B
:103DB00005E028215143411801234B7514310A7045
:103DC000A5229200835C012B01D1022010BD841832
:103DD00001222270006805F01DFE0020207010BD39
:103DE000B0B50F220A4003799A4201D90120B0BD33
:103DF00007220A4049B2002908D42821514341181A
:103E000055239B00C91800234B7005E0282151431E
:103E1000411801234B75143100248C700A70A522BF
:103E20009200835C012B01D10220B0BD85180122D4
:103E30002A70006805F05CFE2C702046B0BD10B5FD
:103E4000A5229200835C012B01D1022010BD8418B1
:103E50000122227000684AB2002A04D406F006FD4E
:103E60000020207010BD0722114006F001FD002047
:103E7000207010BD07220A40282151434018172105
:103E8000090140587047B0B507240C4049B20029D9
:103E900008D42821614341185525AD004919002552
:103EA0004D7005E028216143411801254D751431FD
:103EB0000A61CB700C70022B01D100220A71A5227D
:103EC0009200835C012B01D10220B0BD8418012235
:103ED0002270006805F080FC00202070B0BDB0B5F5
:103EE00007240C402821614341185525AD004C554D
:103EF000491900240D4614351CC54C70006805F0A6
:103F000049FE2046B0BD10B507220A4003799A4207
:103F100001D9012010BD4BB2002B08D428234B43FC
:103F2000C11855239B00C91800234B7005E02821B8
:103F30005143411801234B7514310A7001228A70D4
:103F4000A5239B00C45C012C01D1022010BDC41824
:103F50002270006805F000FE0020207010BD70B5D2
:103F600007250D40282169434118382401260E55A4
:103F700000248A62CB620C634B634E750D7514315D
:103F8000006805F007FE204670BDF0B585B000283A
:103F90001FD00446A520800025186878002804D189
:103FA00000202870204600F025F903276F70206854
:103FB00005F096FD2079002800D106E10740411E5A
:103FC000032904950390029107D20021002F46D1C6
:103FD0006BE00125284605B0F0BD0197FC230340A6
:103FE000274654370022114601267E743A603A6211
:103FF0007A62BA62FA743D46173D2E703D46283DFE
:104000002A603D462C3D2A603D46303D2A603D46B3
:104010003D3D2A703D46403D29703D463F3D2E7056
:104020003D1F2A603D46083D2A603D46153D2A70E9
:104030003D46183D481C28703846383046708D1C67
:104040003D74CD1C3826BD55BA64FA643A65C27019
:10405000091DA0379942C7D1019F002F25D02825DF
:104060002A464A433846A71800227A62BA62FA62A0
:10407000FA75397501267E750746012815D04F1C43
:104080002B467B43E3185A629A62DA62DA751F752F
:1040900007465E75022808D0891C4D4363195A6291
:1040A0009A62DA62DA7519755E75039E002E049DB8
:1040B00000D18AE00298032803D20021002F56D1B4
:1040C00083E0792189006218FC210E400023194603
:1040D00010466738037010467838036010467C3805
:1040E000036010468038036010468D380370104618
:1040F0009038017010468F38037010463F380370B7
:104100001046503803601046543803601046583843
:104110000360104665380370104668384D1C057002
:1041200010461738037010462838036010462C38A4
:10413000036010463038036010463D380370104667
:1041400040388D1C05701360101F0360104608383E
:10415000036010461538037010461838CD1C0570E2
:10416000091DA032B142B3D1049D002F2DD02820CB
:1041700002464A43A21855239B00D1542E46D51817
:1041800000222A616A61AA61EA706A703546012FCD
:104190001BD02E464D1C0197374606466E43A61986
:1041A000F554F5182A616A61AA61EA706A703D46A1
:1041B000019E022E09D0891C48432018C154C01802
:1041C000026142618261C27042700FCC2E46257836
:1041D0000095103C05F077FC002565740120707097
:1041E000207B012800D0F5E62046FFF7A5FD2846F4
:1041F00005B0F0BDB0B594B0044601A8001D48213B
:10420000FCF70EF820681749884201D014B0B0BD01
:1042100001242006019001A800F088F8002801D0B0
:10422000FEF746FC6003104D2968014329602968A8
:104230000140009100982868C0000ED42407286827
:1042400020432860286820400090009800F064F81F
:104250002868A043286014B0B0BD00F05DF814B029
:10426000B0BDC046005C00403C100240B0B5044602
:10427000A5208000215C012901D10220B0BD2518B4
:1042800001202870206806F0E9FA206805F014FC87
:1042900000202870B0BD0000F0B581B00325690290
:1042A0001A4E3246143A13688B43034313600124B9
:1042B00061020022884226D1154801683068400515
:1042C00021D50092A702062048431249FCF7DEF8E8
:1042D000201A022816D0316839420FD0012811D097
:1042E000316839420AD000280CD03168394205D0F3
:1042F000001D032806D031683942EAD1009A1046E1
:1043000001B0F0BD2A46104601B0F0BD1470004067
:104310007400002040420F000120800202490A6818
:1043200002430A607047C04604700040F0B587B091
:104330000446012630020590A07880079F4F04961E
:1043400005D4002003902068C10751D156E0300702
:10435000394618390191096802900140009108D14D
:10436000019A10680299084310601068084006908E
:104370000698944E3068059908433060FFF756FB65
:10438000054630680599084206D1FFF74FFB401BF0
:104390000228F6D903201EE0032003900102B8682A
:1043A000084011D0216C88420BD0B86804990904E8
:1043B000BA680A43BA60BA688A43BA60804908405A
:1043C000B860C00700D0EBE0B8687D490840216CB8
:1043D0000143B960002003900098002804D1019A9D
:1043E0001068029988431060049E2068C10705D0B8
:1043F00039680322914362680A433A60810711D405
:10440000410717D4C1061DD4C10424D481052AD480
:10441000410531D481066C4938D442063DD442046A
:1044200044D452E039680C229143A2680A433A60AE
:104430004107E7D5396830229143E2680A433A6080
:10444000C106E1D5032189023A688A4321691143F3
:104450003960C104DAD53968594A114062690A43A2
:104460003A608105D4D5032189043A688A43A16A58
:10447000114339604105CDD5032109053A688A43C6
:10448000E16A1143396081064F49C6D53A680A404E
:10449000A36913433B604206C1D5032292033B68E4
:1044A0009343E2691A433A6042040ED53A68474B97
:1044B0001A40256B2A433A605A1C954205D13204B2
:1044C0003B46483B1D6815431D60020305D53A680D
:1044D00040239A43636B13433B60B3053206850266
:1044E0000DD53D689D43A66B35433D609E42049EBD
:1044F00005D13D46483D2E6816432E60049E184265
:104500000BD03B689343E56B2B433B60954204D152
:104510003B46483B1D6815431D6003050ED57B686F
:104520000325AB43256A2B437B60012D06D1330461
:104530003D46483D2E681E432E60049E83040ED5E2
:104540007B680C25AB43656A2B437B60042D06D149
:1045500033043D46483D2E681E432E60049E1042A3
:104560000CD073037D680D40616C0D437D609942F2
:1045700004D1394648390B6813430B6080010CD5D0
:1045800078680F490840A16C08437860059881421B
:1045900003D1483F386810433860039807B0F0BD36
:1045A000FFF744FA0646844DB868800700D50BE74C
:1045B000FFF73CFA801BA842F6D90DE754100240E1
:1045C000FFFCFFFF00700040FFCFFFFFFFFFFF3F3A
:1045D000F0B583B00D46012100281BD00191029057
:1045E0008348006807242040A84216D28049086802
:1045F000A04328430860704EFFF718FA07467C482E
:1046000000682040A84208D0FFF710FAC01BB04253
:10461000F5D90321084603B0F0BD029E306881073A
:104620009C4B0CD5410703D521031A680A431A6035
:104630000F2109021A688A43B16811431960C00743
:104640001BD16B4800682040A8422CD968490868F3
:10465000A04328430860584FFFF7E8F9064664482E
:1046600000682040A8421ED0FFF7E0F9801BB84246
:10467000F5D90321084603B0F0BD0298406803282D
:104680005DD8810001A251588F46C0469D46000862
:10469000434700084D4700085747000819460839A6
:1046A0000968490559E0029A10784007794B05D509
:1046B000200319688143D068084318601868800691
:1046C000400F22D01A6838210A407348082A23D0A4
:1046D0001A680A40102A5ED1596803220A40032A48
:1046E00000D06E4859684906490F491CFBF7CEFEB9
:1046F000684949684904490E484366494968490F71
:10470000491CFBF7C3FE634B06E0184608380068F7
:104710008004410F6148C840196889093C220A4059
:10472000264989581F220A40D04039490860244848
:104730000068FFF76DFA0146084603B0F0BD596DF9
:104740000AE0194608390968890306E0194608395C
:104750000968890101E0996D8907019900D459E739
:104760001968A14301431960134FFFF75FF906462B
:10477000484800683821014002984068C0008142E2
:1047800000D15EE7FFF752F9801BB842F0D9032150
:10479000084603B0F0BD18680840202802D1012067
:1047A000C003B9E718680840182801D00020B3E713
:1047B0007D200002B0E7C046881300000CE200082C
:1047C00008000020B0B507220260324B1C6814407C
:1047D00044600F2424021D682540856014031B6873
:1047E0002340C3600248006810400860B0BDC04666
:1047F000002002400648006826490968890A1C22F0
:104800000A40044989581F220A40D0407047C046D8
:10481000740000204CE2000810B51E4C2068800691
:10482000400F06D0226838210A401B48082A07D1C9
:1048300010BD083C20688004410F1848C84010BDD6
:1048400022680A40102A15D1616803220A40032A0F
:1048500000D0124861684906490F491CFBF716FE53
:1048600061684904490E48436168490F491CFBF7D8
:104870000DFE10BD20680840202802D10120C00391
:1048800010BD20680840182801D0002010BD7D20F0
:10489000000210BD0810024000127A000024F4004B
:1048A000F0B587B00125002800D13AE204950590C3
:1048B0000078C007FD4F2DD10598007880074DD4B2
:1048C0000598007800070DD5B868382101401829EF
:1048D00000D0CEE0386E800704D5059880690028A6
:1048E00000D1A7E0059A1078400771D410788006AF
:1048F00000D5A3E00598046A002C00D101E2B86855
:1049000038210140102900D002E1012C00D071E1D2
:10491000049D06E2B868F968032422468A433821D8
:1049200001401020484082185042504101256E0439
:10493000082943D0002841D10598416828048142C4
:1049400008D005221204914200D0FCE0A9043A6884
:104950000A433A60396801433960FEE0B96838209B
:10496000084010214140FA6803252A4002235340A1
:10497000CA1851425141002836D0002934D1386834
:10498000059AD168002900D1F7E00721C9028843C0
:10499000116901433960012001023A680A433A6013
:1049A0008402FFF743F806463868204200D006E14B
:1049B000FFF73CF8801B0228F6D9B2E13868304294
:1049C00000D179E705984068002800D074E7A8E195
:1049D000B86838210140202962D1F86D800785D55B
:1049E0009068002882D125E039684905059B02D5E9
:1049F000D96800291ED07F2109027A688A43596943
:104A000009021143796000280DD10720C0023968DE
:104A1000814318690843386038688004400FC749EB
:104A2000C140C7480160C7480068FFF7F1F8002897
:104A300000D145E7049D284607B0F0BD3868012144
:104A4000CC05059AD2698905002A00D1A7E0084360
:104A50003860FEF7EBFF05463868204200D049E792
:104A6000FEF7E4FF401B0228F6D90325284607B0CD
:104A7000F0BD386E05998969002900D1A9E00121AE
:104A800008433866FEF7D2FF0646386E800700D529
:104A900028E7FEF7CBFF801B03250228F5D940E16C
:104AA000012003900107F86B0840029006D1F86BD3
:104AB0000843F863F86B0840069006980191A248F5
:104AC0000068C00513D4039804029F490868204376
:104AD0000860FEF7ABFF06469B480068204206D1FF
:104AE000FEF7A4FF801B03250228F5D919E10598DC
:104AF0008068964C012806D0052800D0BFE0F86DEC
:104B000004210143F965F86D03990843F865C0E095
:104B1000012529063868039188433860FEF786FF2F
:104B20000646022C00D08FE0029568060490386893
:104B30000499084200D1BBE0FEF778FF801B0325F3
:104B40000228F4D9EDE03A6882433A60A8043A6852
:104B500082433A60002900D181E0FEF767FF0546F5
:104B60003868304200D0A7E6FEF760FF401B64289B
:104B7000F6D92546284607B0F0BD01210A02904328
:104B800038608C02FEF752FF06463868204200D19A
:104B900096E6FEF74BFF801B0228F6D9C1E088435A
:104BA0003860FEF743FF06463868204200D1A1E690
:104BB000FEF73CFF801B03250228F5D9B1E07F20DA
:104BC00000027968814305984069000208437860D3
:104BD00076E6012188433866FEF728FF0646386EE0
:104BE000800700D47EE6FEF721FF801B0325022804
:104BF000F5D996E0F86803210140059C626A91426C
:104C000000D017E770210140A26A914200D011E75D
:104C10007F2109020140E26A1202914200D009E7B5
:104C20001F2149040140226B914200D002E7072175
:104C30004A060240636B9A42049D72D149070840BC
:104C4000A16B88426DD15CE06C063868204254D07C
:104C5000FEF7ECFE801B03250228F6D961E0FEF783
:104C6000E5FE05463868304200D125E6FEF7DEFE57
:104C7000401B6428F6D92546284607B0F0BDF96DDB
:104C8000039A9143F965F96D04229143F96500286F
:104C90003BD0FEF7CBFE0646F86D800744D4FEF706
:104CA000C5FE801B0325A042F6D93AE00010024061
:104CB000F86828490140059E24367DCE08431043FC
:104CC00019020143214329433143F96038680399AC
:104CD0000843386002980007F9680143F960FEF75D
:104CE000A5FE04463868049908420AD1FEF79EFEE4
:104CF000001B03250228F5D913E0F8681449014088
:104D0000F9600025284607B0F0BDFEF78FFE064685
:104D1000F86D800708D5FEF789FE801B0325A042A9
:104D2000F6D9284607B0F0BD02980028059A00D0B1
:104D3000DCE5F86B01998843F863D7E50024F400BB
:104D4000740000200800002000700040881300005C
:104D5000FCFFFEEE8C80C11170B5002831D00446F6
:104D6000064628367078002807D1002030701120C0
:104D7000C0026060204600F057F802207070206882
:104D8000C168C9064AD4CA21416253214162C1683F
:104D9000490618D4C16880220A43C260FEF746FE65
:104DA00005462068C16849060DD4FEF73FFE401B4A
:104DB0007D21C9008842F4D9032070702168CA6837
:104DC0001AE0012070BD8169164A0A408261A1681B
:104DD00062690A43E169114382690A438261216978
:104DE0000161E168090402690A430261204602F098
:104DF00021F92168002802D0FF224A6270BD0720F5
:104E000040078A6982438A61206A626A0243A06914
:104E100010438A6902438A61FF2048620120707052
:104E2000002070BDBFFF8FFB10B594B0044601A8F1
:104E3000001D4821FBF7F4F920681049884201D091
:104E400014B010BD0124600211906004019001A80B
:104E5000FFF76CFA002801D0FDF72AFEE0030849AD
:104E60000A6A02430A62A0020A6802430A600968E9
:104E700001400091009814B010BDC04600280040C9
:104E80003C100240F0B585B000280CD00446054621
:104E90005C3541208600606A002807D00020206130
:104EA0002046143007E0012005B0F0BD6068B04234
:104EB00003D020461C30002101600027A7626878DB
:104EC000002804D100202870204600F059F8022064
:104ED0000495019068702068016840229143039016
:104EE0000160E168254A012591422A4600D33A46ED
:104EF0001203ED020D430F2738020290854201D0C4
:104F00000025A5626568A768354021239B023B40C8
:104F10005B192569019805401D436069012318400C
:104F20002843FC36A7693E400643E0693825054022
:104F30003543206A802606402E435803A56A054063
:104F40003543039E3560380C042505400298014026
:104F50000A432A43606A102101401143606B082212
:104F600002400A437260D802F1698143F161002076
:104F7000206604994B7005B0F0BDC04601070000E3
:104F800080B586B000681349884201D006B080BD64
:104F900001200103104AD3680B43D360D3680B4050
:104FA000019301991168014311601168014000915A
:104FB0000020059003210491039002200290E0203C
:104FC000019005200007009901A9FEF759FC06B0E1
:104FD00080BDC04600300140341002400321490228
:104FE000024A13688B43034313607047000001407B
:104FF000704770477047F0B581B0002824D0044650
:1050000005463C3507463E37064644366878002854
:1050100004D100202870204600F019F802206870A2
:1050200001CC214603F0E6FA012030713870787027
:10503000B870F8703871787130707070B070F0704E
:105040006870002001B0F0BD012001B0F0BD7047D4
:1050500010B53D21415C012915D101463D310222A7
:105060000A700168C86801221043C8601148814273
:105070000BDD114881420ED0104881420BD0104800
:10508000814208D010E0012010BD9007814202D07B
:105090000C48814208D188680B4B03400020062B46
:1050A00006D01404A34203D008681043086000200F
:1050B00010BDC046FF07004000080040004001400E
:1050C000002C014000040040070001007047000070
:1050D000F0B583B004460068C56802272946394008
:1050E0004A424A410169029139404B424B411343C4
:1050F00013D16C49FE31016101212177806980075C
:1051000003D02046FFF7E2FF05E0204600F0CEF88E
:10511000204600F0CCF80020207701260422294602
:1051200011404842484102994907314600D501469D
:10513000032000020190002916D1009220685949ED
:10514000FC310161277780690199084203D020462C
:10515000FFF7BCFF05E0204600F0A8F8204600F06D
:10516000A6F800202077009A0827294639404842AF
:10517000484102990907314600D50146002913D15B
:1051800020684849F83101612277C069800703D05F
:105190002046FFF79BFF05E0204600F087F82046F9
:1051A00000F085F80020207710212940484248412E
:1051B0000299C906314600D50146002914D120685C
:1051C0003849F03101612777C0690199084203D05D
:1051D0002046FFF77BFF05E0204600F067F82046F9
:1051E00000F065F80020207701212940484248411D
:1051F0000299C907314600D00146002906D120682E
:105200002849FF310161204600F052F880272F40E5
:10521000784278414121C901029A0A42314600D0C0
:105220000146002905D120681F4901612046FFF78A
:10523000E0FE784278410299C905314600D5014621
:10524000002905D12068174901612046FFF7D0FEEB
:10525000402129404842484102994906314600D53B
:105260000146002906D120680E49C031016120465F
:1052700000F02AF82020054068426841029989061A
:1052800003D4002E04D003B0F0BD0646002EFAD1A0
:1052900020680449E03101612046FFF7ABFE03B00E
:1052A000F0BDC046FFFEFFFF7FDFFFFF7047704786
:1052B00080B500680349884200D080BDFEF786FCB7
:1052C00080BDC046001000407047B0B58421415CED
:1052D000012901D10220B0BD02468432242151604F
:1052E00001680B680C680125AC430C606C07A34394
:1052F0000B60002141661170202050600846B0BD4F
:1053000070B504468C202058202810D10120002997
:1053100017D0002A15D001252803A368834208D19D
:10532000C80706D02069002803D1284670BD022096
:1053300070BDE56600262667204603F0E9FC0028DC
:1053400000D070BDE06E01282846FAD120681021F7
:105350000162EFF31080012282F310882268136843
:105360000B43136080F31088304670BDF0B583B0F6
:1053700000910446002002902D480068012827DB98
:105380000221091A0191434203202A4FA526B500A4
:105390003968A1421ED01918022919D07A19126849
:1053A000A24219D0019A1218032A11D0F200BA1899
:1053B0001268A24212D000290AD01F497918096840
:1053C000A1420CD031017F18001D19180329DDD12D
:1053D00003B0F0BDC01E02E0801E00E0401E009938
:1053E00045431448461929200701F05932180C3258
:1053F0000D1A706802AB11462A4607F0DCFDF05921
:1054000040197F210140F15109484068216F02296C
:1054100004D1002802D002A907F090F802980028D1
:10542000D6D0012000070549086003B0F0BDC04692
:10543000F801002020110020BC07000004ED00E06E
:1054400070470000F0B581B0054668352A7F012A13
:1054500002D1022001B0F0BD24222A62066837681A
:1054600032680124A243326007225206B368934394
:105470000B43B360406E0028204615D00097B768F4
:10548000B068400F2B49095C2B4A105CC000FAF74A
:10549000FDFF04463801009F400F2649095C264A5B
:1054A000105CC000FAF7F2FF28806C8037600020A3
:1054B00028772021296201B0F0BDC046F0B581B047
:1054C000054668352A7F012A02D1022001B0F0BDCD
:1054D00024222A620668376832680124A2433260B7
:1054E00007225207B36893430B43B360406E002812
:1054F000204615D00097B768B068400F0D49095C89
:105500000D4A105CC000FAF7C1FF04463801009F45
:10551000400F0849095C084A105CC000FAF7B6FF62
:1055200028806C803760002028772021296201B014
:10553000F0BDC046B0E20008A8E20008704770471E
:1055400070470000F0B58BB003460268D46920278D
:105550000125EE0231462F312140106809935C335A
:10556000089306929268202905970A9407920FD112
:105570000146394001231B071340C918044616D0C1
:105580000998416F002900D109E288470BB0F0BDAE
:1055900031460F310C42044609D02B46CE492140FA
:1055A0002D076F1C079A1740791800D099E0102238
:1055B0000494214611404B424B410A9E3146114012
:1055C0004C424C4109980746C16E491E4D1EA941E7
:1055D000214319433FD001250124A105079801402B
:1055E0004B424B413046F1022946069A00D51946F6
:1055F0000029059E00D105E1010608D58021049A05
:105600001140E205079B1340C91800D0B0E14022C9
:10561000049911404B424B414106294600D5194699
:10562000002900D145E1A107049A11404A424A41AC
:105630000102294600D51146002900D1A4E10499B0
:10564000002900DBA5E10024C10100D5A4E1002D63
:1056500000D0A4E1A5E106980262806816464006E3
:1056600000D5D6E008994B8808884A88002A00D1DE
:1056700095E1984200D192E10A93EFF31083012261
:1056800082F310880924640139463D682F68A743D6
:105690002F6083F31088EFF3108382F310880C6877
:1056A000A568C24F2F40A76083F31088059B089C14
:1056B000236300234B67CB66EFF3108382F31088DC
:1056C0000A681468B443146083F3108802220A67DE
:1056D0000A9A801A82B208461146FFF747FE0BB0BD
:1056E000F0BD0297019503960A991E4619404B4258
:1056F0004B41310221404D424D411D43069A05D197
:1057000001211162089D6B6B0B436B630120079FA6
:105710003B46049003405D425D410A988107314653
:1057200000D52946002906D1022111620898416B53
:1057300004250D4345635D425D410A9841073146AA
:105740000ED5294600290DD1042111620898416B1C
:1057500002230B4343630A980107099D15D505E011
:105760000029F1D00A980107099D0ED50298411E23
:105770008841A106314600D40146012905D10821FE
:1057800011620898436B0B434363049881062140E0
:105790004B424B410A98039908420DD01E46002EF9
:1057A000089E0CD103981062716B059801437163D8
:1057B000716B002907D1F2E0002E089EF2D0716BC8
:1057C000002900D1EBE005980A9901400AD001991F
:1057D0000F4004403C4305D0696F002902D02846A1
:1057E00088472A68706B2821014092684020024057
:1057F000511800D072E02846FFF7A2FE0020706327
:105800000BB0F0BD210511623846FFF798FE0BB0D2
:10581000F0BD089C606A006841688AB2002A00D125
:10582000BDE023889A4200D3B9E03D46618000681C
:10583000800633D4EFF31081012080F310885D4A95
:1058400020322B681C6814401C6081F31088EFF331
:10585000108180F310882A6893688343936081F3F2
:105860001088EFF3108180F310882A689368402431
:10587000A343089C936081F310880599216300215C
:10588000E966EFF3108180F3108828680268B2435C
:10589000026081F31088606AFDF758FC02202867D7
:1058A00020886188401A81B22846FFF75FFD0BB05F
:1058B000F0BDEFF3108084F3108839680B689343D0
:1058C0000B6080F310880021B9670899CE623846D2
:1058D00000F0E0F90BB0F0BD20010004EFF31081FF
:1058E000049E86F31088092252012B681C68944399
:1058F0001C6081F31088EFF3108186F310882A680A
:1059000093682A4C1C40946081F31088E96E012949
:105910000BD1EFF31081049A82F310882A68136880
:105920001024A343136081F31088089C0599216318
:105930000021E96669672968896849061FD5EFF380
:105940001081049A82F310882A68936883439360D5
:1059500081F31088606A002811D015498163FDF732
:105960002BFC00281BD0606A816B88470BB0F0BD10
:10597000B96F002913D0384688470BB0F0BD2846D0
:10598000FFF7DEFD0BB0F0BD3846FFF7D7FD0BB0DB
:10599000F0BDC10100D45AE62546002D01D00BB060
:1059A000F0BD3846FFF74CFD0BB0F0BDFEFFFFEF3A
:1059B00085880008DFFEFFFFB0B5002830D0044620
:1059C000054684356868002804D1002028702046E8
:1059D00000F028F824206860206801680125A943A8
:1059E0000160A06A002802D0204602F07FFE204617
:1059F00003F042F8012811D00920C00221684A684A
:105A000082434A6088682A2290438860086801229D
:105A100002430A60204602F0D3FE05462846B0BD88
:105A20000120B0BDF0B59BB0044600261A96199629
:105A300018961796169603A84C21FAF7F1FB0194D5
:105A400020685D49884255D05C49884200D0B1E069
:105A50000225039503A8FEF769FC002801D0FDF795
:105A600027F85748816801271A977A041143816003
:105A70008168114002910299016839430160006810
:105A8000384002901996189617950C201690029897
:105A90000520000716A9FDF7F3FE38034E4D2862D6
:105AA0002020802734214A4C2C606960AE60EE6073
:105AB0002F616E61AE61E8612846FDF727FC002882
:105AC00001D0FCF7F5FF0198C551A862434D1020A5
:105AD00035212E6214342C60696029460831C1C119
