:020000040800F2
:1000000080110020D100000861220008251B000893
:1000100000000000000000000000000000000000E0
:100020000000000000000000000000002331000874
:1000300000000000000000006322000825310008D5
:10004000E3000008E3000008E3000008E300000804
:10005000E3000008E3000008E3000008E3000008F4
:10006000E3000008E3000008E3000008E3000008E4
:10007000E3000008E3000008E3000008E3000008D4
:10008000E3000008E3000008E3000008E3000008C4
:10009000E3000008E3000008E3000008E3000008B4
:1000A000E3000008E3000008E3000008E3000008A4
:1000B000E3000008E3000008E30000080348854669
:1000C00000F096F8004800472150000880110020F9
:1000D0000448804704480047FEE7FEE7FEE7FEE7E6
:1000E000FEE7FEE72D310008BD000008F0B51FB4A3
:1000F0000646002082B005464024019100901BE096
:10010000019922460F46304600F061F8049A059B9B
:10011000801A994110D310461946224600F047F83C
:10012000361A8F410197224601200021009F00F0DE
:100130003EF838184D4100902046641E0028DFDC50
:10014000019B00982946324607B0F0BDD2B201E0CB
:100150000270401C491EFBD270470022F6E710B522
:1001600013460A4604461946FFF7F0FF204610BD25
:1001700070B50446002903D000202022012310E09E
:10018000002801D00020C043C046C0460DE02546EF
:10019000D5408D4205D30D469540641B1D469540C4
:1001A00040191546521E002DF1DC214670BD10B5D8
:1001B000202A04DB0146203A9140002010BD9140E6
:1001C00020239C1A0346E3401943904010BD10B50C
:1001D000202A04DB0846203AD040002110BD0B46FF
:1001E000D340D0402024A21A91400843194610BDA4
:1001F000064C0125064E05E0E36807CC2B430C3C7A
:1002000098471034B442F7D3FFF75CFF88510008D9
:10021000A851000830B58C180278401C13071B0F3A
:1002200001D10378401C120906D10278401C03E07A
:1002300005780D70401C491C5B1EF9D101E00B7064
:10024000491C521EFBD1A142E6D3002030BDEFF382
:10025000108072B6FEE7000010B502460D4B587ACA
:10026000002801D0012010BD5C7A002018555C7A6E
:10027000A4001C1962605A7A9A1810725A7A541C97
:100280005C72C8702F238B703A234B7030320A7027
:1002900010BDC046C0050020F0B589B006900B68BF
:1002A000002B00D1B6E05C48069A824202D0084694
:1002B000052501E0084604250B210907069A541874
:1002C0000A21CC410094042C00D3009500273E461F
:1002D0003D463C46014607900EE02943059D5048A7
:1002E00001600799641C0B681846E040BF1C361D6E
:1002F0000835002800D18DE00120A0400340029382
:10030000F0D0059504960B4603263146B940C94303
:100310003A465F683D4635406B1E012B08910397B6
:10032000019211D806998B68089E3340079EF668A3
:1003300096401E438E60FB06DB0FA3404E6886434B
:100340001E434E60089906E0032D04D135460799F7
:10035000049E019F1FE0069AD068084007998B68A9
:10036000019FBB400343D360022D049E13D11C2088
:1003700030400F218140E3089B00069AD3181D6A84
:100380008D43079909698140294319620799486893
:10039000032503900540BD40069A1068089B18404D
:1003A0002843106003988003800F059D9AD0182081
:1003B00028400A460F218140032325469D43174EBE
:1003C00073191D6E8D430099814029431966316868
:1003D0005068C30202D5029D294301E0029DA94352
:1003E000049E0E4B19605968830201D5294300E031
:1003F000A9430A4B59600A494968830301D5294337
:1004000000E0A943064B59601968C00300D564E7B2
:10041000A94363E709B0F0BD001000500018024086
:1004200080180240002A02D01822815070472822EA
:1004300081507047844800687047C046B0B5024696
:10044000034640335C780220202C17D11C78012C05
:1004500014D024205870106802680124A24302605E
:10046000220305689543056002680A43026001683B
:10047000214301600020187020215970B0BDB0B533
:100480000246034640335C780220202C17D11C78AA
:10049000012C14D024205870106802680124A24353
:1004A00002600F2212020568954309022943016088
:1004B0000168214301600020187020215970B0BDEF
:1004C000F0B581B0002822D0044605464035687852
:1004D000002804D100202870204600F04BF824208A
:1004E00068702068026801218A4302600F221206A8
:1004F00063689343036183681C4A13408360A36865
:10050000E668012E06D1CE03334383600CE0012060
:1005100001B0F0BD2127BF023B438360022E03D10F
:10052000CB0246681E4302E0CB0246689E4346600B
:1005300043680F4E1E434660C3681340C360226980
:1005400063691343A26912021A43C260E269236A13
:100550001343036002680A430260002060642021A4
:1005600069702063A87001B0F0BDC046FF7FFFFF37
:100570000080000210B586B000681349884201D09F
:1005800006B010BD114C206802210843206020688D
:10059000084000900620059000200490039012204F
:1005A0000290182001900098094801A9FFF774FEF5
:1005B0000120C005A1680143A160A168014000912C
:1005C000009806B010BDC0460088004034100240BC
:1005D00000040050B0B5002823D004460068134939
:1005E00001601349016061684160A1688160FFF7A3
:1005F00021FF05462068C16849070AD0FFF71AFFA6
:10060000411B20683229F6D3C1684907F3D0032083
:10061000B0BDE16802698A4205D106490160002047
:10062000B0BD0120B0BD01610020B0BDCCCC000048
:1006300055550000AAAA00001F48007802490A6820
:10064000101808607047C046780D002010B50124CE
:10065000200208490A6802430A60032000F00CF8EF
:10066000002801D0204610BD00F02AF800242046C2
:1006700010BDC0460020024070B50F4E31780124F5
:10068000002916D005467D20C000FFF771FD014608
:100690000A480068FFF76CFD01F0F8F8032D08D850
:1006A000002806D10024E0432946224600F024F821
:1006B0007560204670BDC04600000020700000201C
:1006C00080B582B00B484168012211434160416806
:1006D000114001910199110702680A430260006804
:1006E0000840009000980320400201F0C5F802B0D5
:1006F00080BDC0463C100240002805D403220346BA
:1007000093430A4A9A1803E00C220240064BD2187F
:100710008007C00E8901C9B28140FF238340106861
:10072000984308431060704714ED00E000E400E0D7
:10073000B0B5B3218A000021815403685C6D0125A6
:100740002C435C6580188560586D022202435A650F
:100750000846B0BDB0B528240D060BD507252940A5
:100760004C4300191430002A0BD08360012101731F
:100770000020B0BD4C430019552189004018002AC3
:10078000F3D1C380002101730020B0BD10B5072252
:100790000A4049B2002908D4282151434118552361
:1007A0009B00C91800234B7005E0282151434118D4
:1007B00001234B7514310A70A5229200835C012B32
:1007C00001D1022010BD841801222270006803F0BC
:1007D000E3FC0020207010BDB0B50F220A40037961
:1007E0009A4201D90120B0BD07220A4049B200292E
:1007F00008D428215143411855239B00C9180023D0
:100800004B7005E028215143411801234B751431E9
:1008100000248C700A70A5229200835C012B01D108
:100820000220B0BD851801222A70006803F022FD65
:100830002C702046B0BD10B5A5229200835C012B20
:1008400001D1022010BD84180122227000684AB232
:10085000002A04D404F0CCFB0020207010BD072235
:10086000114004F0C7FB0020207010BD07220A4091
:100870002821514340181721090140587047B0B54D
:1008800007240C4049B2002908D4282161434118AB
:100890005525AD00491900254D7005E0282161431B
:1008A000411801254D7514310A61CB700C70022B73
:1008B00001D100220A71A5229200835C012B01D193
:1008C0000220B0BD841801222270006803F046FBAC
:1008D00000202070B0BDB0B507240C402821614332
:1008E00041185525AD004C55491900240D461435C5
:1008F0001CC54C70006803F00FFD2046B0BD10B55C
:1009000007220A4003799A4201D9012010BD4BB257
:10091000002B08D428234B43C11855239B00C9182A
:1009200000234B7005E028215143411801234B75EA
:1009300014310A7001228A70A5239B00C45C012C2B
:1009400001D1022010BDC4182270006803F0C6FC5B
:100950000020207010BD70B507250D402821694387
:100960004118382401260E5500248A62CB620C639C
:100970004B634E750D751431006803F0CDFC2046B5
:1009800070BDF0B585B000281FD00446A5208000BA
:1009900025186878002804D100202870204600F02F
:1009A00025F903276F70206803F05CFC207900288C
:1009B00000D106E10740411E0329049503900291EE
:1009C00007D20021002F46D16BE00125284605B053
:1009D000F0BD0197FC2303402746543700221146FF
:1009E00001267E743A603A627A62BA62FA743D46CF
:1009F000173D2E703D46283D2A603D462C3D2A601D
:100A00003D46303D2A603D463D3D2A703D46403DD5
:100A100029703D463F3D2E703D1F2A603D46083DF2
:100A20002A603D46153D2A703D46183D481C2870F9
:100A30003846383046708D1C3D74CD1C3826BD5567
:100A4000BA64FA643A65C270091DA0379942C7D1E9
:100A5000019F002F25D028252A464A433846A7184B
:100A600000227A62BA62FA62FA75397501267E75D9
:100A70000746012815D04F1C2B467B43E3185A62CA
:100A80009A62DA62DA751F7507465E75022808D029
:100A9000891C4D4363195A629A62DA62DA751975D4
:100AA0005E75039E002E049D00D18AE00298032803
:100AB00003D20021002F56D183E0792189006218EA
:100AC000FC210E400023194610466738037010467B
:100AD0007838036010467C38036010468038036025
:100AE00010468D38037010469038017010468F38CC
:100AF000037010463F3803701046503803601046AC
:100B00005438036010465838036010466538037047
:100B1000104668384D1C0570104617380370104693
:100B20002838036010462C380360104630380360C4
:100B300010463D380370104640388D1C0570136018
:100B4000101F036010460838036010461538037004
:100B500010461838CD1C0570091DA032B142B3D122
:100B6000049D002F2DD0282002464A43A218552369
:100B70009B00D1542E46D51800222A616A61AA61D1
:100B8000EA706A703546012F1BD02E464D1C019726
:100B9000374606466E43A619F554F5182A616A6170
:100BA000AA61EA706A703D46019E022E09D0891C36
:100BB00048432018C154C018026142618261C2706A
:100BC00042700FCC2E4625780095103C03F03DFB7B
:100BD0000025657401207070207B012800D0F5E6A7
:100BE0002046FFF7A5FD284605B0F0BDB0B594B08E
:100BF000044601A8001D4821FFF7AFFA20681749F5
:100C0000884201D014B0B0BD01242006019001A893
:100C100000F088F8002801D0FFF719FB6003104DA1
:100C200029680143296029680140009100982868DB
:100C3000C0000ED42407286820432860286820407C
:100C40000090009800F064F82868A043286014B071
:100C5000B0BD00F05DF814B0B0BDC046005C00400F
:100C60003C100240B0B50446A5208000215C01295B
:100C700001D10220B0BD251801202870206804F0A1
:100C8000AFF9206803F0DAFA00202870B0BD000048
:100C9000F0B581B0032569021A4E3246143A136842
:100CA0008B4303431360012461020022884226D152
:100CB000154801683068400521D50092A70206203A
:100CC00048431249FFF754FA201A022816D0316817
:100CD00039420FD0012811D0316839420AD000289A
:100CE0000CD03168394205D0001D032806D0316888
:100CF0003942EAD1009A104601B0F0BD2A461046AA
:100D000001B0F0BD147000407000002040420F00A0
:100D10000120800202490A6802430A607047C04607
:100D200004700040F0B587B00446012630020590FB
:100D3000A07880079F4F049605D400200390206878
:100D4000C10751D156E03007394618390191096879
:100D500002900140009108D1019A1068029908435D
:100D600010601068084006900698944E3068059907
:100D700008433060FFF75EFB05463068059908427E
:100D800006D1FFF757FB401B0228F6D903201EE0CF
:100D9000032003900102B868084011D0216C8842FA
:100DA0000BD0B86804990904BA680A43BA60BA68F3
:100DB0008A43BA6080490840B860C00700D0EBE0C1
:100DC000B8687D490840216C0143B9600020039058
:100DD0000098002804D1019A106802998843106095
:100DE000049E2068C10705D03968032291436268D8
:100DF0000A433A60810711D4410717D4C1061DD4B4
:100E0000C10424D481052AD4410531D481066C491A
:100E100038D442063DD4420444D452E039680C220E
:100E20009143A2680A433A604107E7D53968302206
:100E30009143E2680A433A60C106E1D50321890281
:100E40003A688A43216911433960C104DAD53968A7
:100E5000594A114062690A433A608105D4D5032199
:100E600089043A688A43A16A114339604105CDD5A6
:100E7000032109053A688A43E16A11433960810612
:100E80004F49C6D53A680A40A36913433B604206FE
:100E9000C1D5032292033B689343E2691A433A6047
:100EA00042040ED53A68474B1A40256B2A433A60F4
:100EB0005A1C954205D132043B46483B1D681543F8
:100EC0001D60020305D53A6840239A43636B1343C0
:100ED0003B60B305320685020DD53D689D43A66B88
:100EE00035433D609E42049E05D13D46483D2E68F7
:100EF00016432E60049E18420BD03B689343E56B6B
:100F00002B433B60954204D13B46483B1D6815434B
:100F10001D6003050ED57B680325AB43256A2B4373
:100F20007B60012D06D133043D46483D2E681E43AB
:100F30002E60049E83040ED57B680C25AB43656A46
:100F40002B437B60042D06D133043D46483D2E687B
:100F50001E432E60049E10420CD073037D680D402A
:100F6000616C0D437D60994204D1394648390B6864
:100F700013430B6080010CD578680F490840A16CC1
:100F8000084378600598814203D1483F3868104390
:100F90003860039807B0F0BDFFF74CFA0646854D60
:100FA000B868800700D50BE7FFF744FA801BA8421A
:100FB000F6D90DE754100240FFFCFFFF007000401F
:100FC000FFCFFFFFFFFFFF3FF0B583B00D460121CC
:100FD00000281BD00191029075480068072420402A
:100FE000A84216D272490868A04328430860714E8F
:100FF000FFF720FA07466E4800682040A84208D054
:10100000FFF718FAC01BB042F5D90321084603B018
:10101000F0BD029E30688107914B0CD5410703D586
:1010200021031A680A431A600F2109021A688A43C9
:10103000B16811431960C0071BD15D4800682040AA
:10104000A8422CD95A490868A04328430860594F40
:10105000FFF7F0F90646564800682040A8421ED027
:10106000FFF7E8F9801BB842F5D90321084603B021
:10107000F0BD0298406803285DD8810001A2515854
:101080008F46C046951000083B1100084511000826
:101090004F110008194608390968490559E0029AB4
:1010A000107840076E4B05D5200319688143D0683E
:1010B0000843186018688006400F22D01A6838214B
:1010C0000A406848082A23D01A680A40102A5ED1CC
:1010D000596803220A40032A00D063485968490628
:1010E000490F491CFFF744F85D4949684904490E16
:1010F00048435B494968490F491CFFF739F8584B89
:1011000006E01846083800688004410F5648C84079
:10111000196889093C220A40274989581F220A4038
:10112000D0402E49086025480068FFF7A5FA01461F
:10113000084603B0F0BD596D0AE019460839096840
:10114000890306E0194608390968890101E0996DAB
:101150008907019900D459E71968A143014319602F
:10116000144FFFF767F906463D48006838210140F3
:1011700002984068C000814200D15EE7FFF75AF94B
:10118000801BB842F0D90321084603B0F0BD1868AF
:101190000840202802D10120C003B9E718680840A0
:1011A000182801D00020B3E77D200002B0E7C04638
:1011B0000020024088130000DC50000804000020DA
:1011C0000648006826490968890A1C220A40044921
:1011D00089581F220A40D0407047C0467000002046
:1011E0001C51000810B51E4C20688006400F06D028
:1011F000226838210A401B48082A07D110BD083C44
:1012000020688004410F1848C84010BD22680A4079
:10121000102A15D1616803220A40032A00D012481F
:1012200061684906490F491CFEF7A2FF616849043D
:10123000490E48436168490F491CFEF799FF10BDEC
:1012400020680840202802D10120C00310BD20687A
:101250000840182801D0002010BD7D20000210BDDC
:101260000810024000127A000024F400F0B587B0A4
:101270000125002800D13AE2049505900078C007C6
:10128000FD4F2DD10598007880074DD40598007842
:1012900000070DD5B86838210140182900D0CEE0EC
:1012A000386E800704D505988069002800D1A7E032
:1012B000059A1078400771D41078800600D5A3E015
:1012C0000598046A002C00D101E2B8683821014079
:1012D000102900D002E1012C00D071E1049D06E24A
:1012E000B868F968032422468A4338210140102057
:1012F000484082185042504101256E04082943D0CD
:10130000002841D1059841682804814208D005226F
:101310001204914200D0FCE0A9043A680A433A6002
:10132000396801433960FEE0B9683820084010216F
:101330004140FA6803252A4002235340CA1851420B
:101340005141002836D0002934D13868059AD16837
:10135000002900D1F7E00721C90288431169014340
:101360003960012001023A680A433A608402FFF7BB
:1013700061F806463868204200D006E1FFF75AF8C7
:10138000801B0228F6D9B2E13868304200D179E7F3
:1013900005984068002800D074E7A8E1B8683821B3
:1013A0000140202962D1F86D800785D5906800281A
:1013B00082D125E039684905059B02D5D968002905
:1013C0001ED07F2109027A688A43596909021143B4
:1013D000796000280DD10720C0023968814318695F
:1013E0000843386038688004400FC749C140C74887
:1013F0000160C7480068FFF73FF9002800D145E7C2
:10140000049D284607B0F0BD38680121CC05059A37
:10141000D2698905002A00D1A7E008433860FFF7A8
:1014200009F805463868204200D049E7FFF702F87E
:10143000401B0228F6D90325284607B0F0BD386EB8
:1014400005998969002900D1A9E00121084338667E
:10145000FEF7F0FF0646386E800700D528E7FEF756
:10146000E9FF801B03250228F5D940E10120039004
:101470000107F86B0840029006D1F86B0843F86347
:10148000F86B0840069006980191A2480068C005D4
:1014900013D4039804029F49086820430860FEF7AC
:1014A000C9FF06469B480068204206D1FEF7C2FFEE
:1014B000801B03250228F5D919E105988068964C10
:1014C000012806D0052800D0BFE0F86D04210143B3
:1014D000F965F86D03990843F865C0E00125290610
:1014E0003868039188433860FEF7A4FF0646022C53
:1014F00000D08FE00295680604903868049908428D
:1015000000D1BBE0FEF796FF801B03250228F4D92B
:10151000EDE03A6882433A60A8043A6882433A6050
:10152000002900D181E0FEF785FF0546386830428A
:1015300000D0A7E6FEF77EFF401B6428F6D92546BB
:10154000284607B0F0BD01210A02904338608C02A2
:10155000FEF770FF06463868204200D196E6FEF797
:1015600069FF801B0228F6D9C1E088433860FEF786
:1015700061FF06463868204200D1A1E6FEF75AFF17
:10158000801B03250228F5D9B1E07F20000279688D
:1015900081430598406900020843786076E601219E
:1015A00088433866FEF746FF0646386E800700D44B
:1015B0007EE6FEF73FFF801B03250228F5D996E063
:1015C000F86803210140059C626A914200D017E748
:1015D00070210140A26A914200D011E77F210902E7
:1015E0000140E26A1202914200D009E71F2149043A
:1015F0000140226B914200D002E707214A060240D7
:10160000636B9A42049D72D149070840A16B8842DE
:101610006DD15CE06C063868204254D0FEF70AFFBA
:10162000801B03250228F6D961E0FEF703FF05467B
:101630003868304200D125E6FEF7FCFE401B6428E6
:10164000F6D92546284607B0F0BDF96D039A9143B7
:10165000F965F96D04229143F96500283BD0FEF746
:10166000E9FE0646F86D800744D4FEF7E3FE801BD2
:101670000325A042F6D93AE000100240F868284954
:101680000140059E24367DCE0843104319020143D4
:10169000214329433143F96038680399084338608E
:1016A00002980007F9680143F960FEF7C3FE04469B
:1016B0003868049908420AD1FEF7BCFE001B0325D6
:1016C0000228F5D913E0F86814490140F9600025B3
:1016D000284607B0F0BDFEF7ADFE0646F86D800760
:1016E00008D5FEF7A7FE801B0325A042F6D92846A1
:1016F00007B0F0BD02980028059A00D0DCE5F86B31
:1017000001998843F863D7E50024F40070000020B5
:10171000040000200070004088130000FCFFFEEE73
:101720008C80C111F0B585B000280CD00446054668
:101730005C3541208600606A002807D000202061C7
:101740002046143007E0012005B0F0BD6068B042CB
:1017500003D020461C30002101600027A762687872
:10176000002804D100202870204600F059F80220FB
:1017700004950190687020680168402291430390AD
:101780000160E168254A012591422A4600D33A4684
:101790001203ED020D430F2738020290854201D05B
:1017A0000025A5626568A768354021239B023B4060
:1017B0005B192569019805401D43606901231840A4
:1017C0002843FC36A7693E400643E06938250540BA
:1017D0003543206A802606402E435803A56A0540FB
:1017E0003543039E3560380C0425054002980140BE
:1017F0000A432A43606A102101401143606B0822AA
:1018000002400A437260D802F1698143F16100200D
:10181000206604994B7005B0F0BDC046010700007A
:1018200080B586B000681349884201D006B080BDFB
:10183000B948C268012103910B031A43C260C26810
:101840001A400092009A02680A4302600068084049
:101850000090002005900320049002200290E020D8
:10186000019005200007009901A9FEF715FD06B0BB
:1018700080BDC0460030014003214902024A13687E
:101880008B4303431360704700000140401E010E6C
:1018900001D0012070470749074A50600748036894
:1018A0000B4003218907591801600020906007212F
:1018B00011607047FFFFFF0010E000E020ED00E046
:1018C000B0B58421415C012901D10220B0BD02469E
:1018D00084322421516001680B680C680125AC43F7
:1018E0000C606C07A3430B6000214166117020203F
:1018F00050600846B0BD0000F0B581B005466835BF
:101900002A7F012A02D1022001B0F0BD24222A62DE
:101910000668376832680124A24332600722520603
:10192000B36893430B43B360406E0028204615D044
:101930000097B768B068400F2B49095C2B4A105CD0
:10194000C000FEF715FC04463801009F400F2649F1
:10195000095C264A105CC000FEF70AFC28806C80F7
:101960003760002028772021296201B0F0BDC046F1
:10197000F0B581B0054668352A7F012A02D10220E0
:1019800001B0F0BD24222A6206683768326801245B
:10199000A243326007225207B36893430B43B360FC
:1019A000406E0028204615D00097B768B068400FF9
:1019B0000D49095C0D4A105CC000FEF7D9FB0446D6
:1019C0003801009F400F0849095C084A105CC000BC
:1019D000FEF7CEFB28806C8037600020287720211E
:1019E000296201B0F0BDC04680510008785100085E
:1019F000B0B5002830D00446054684356868002814
:101A000004D100202870204600F028F824206860C7
:101A1000206801680125A9430160A06A002802D05E
:101A2000204601F084FB204601F04CFC012811D037
:101A30000920C00221684A6882434A6088682A22D5
:101A4000904388600868012202430A60204601F042
:101A5000D7FB05462846B0BD0120B0BDB0B59AB051
:101A6000044600251995189517951695159502A801
:101A70004C21FEF772FB20682549884220D0254979
:101A8000884243D10220029002A8FFF74BF90028B8
:101A900001D0FEF7DCFB012460041F498A68024381
:101AA0008A608A68024001920198086820430860B1
:101AB0000868204001900198052000070C211CE0D7
:101AC0000424029402A8FFF72DF9002801D0FEF7A4
:101AD000BEFB0120800410498A6802438A608A683C
:101AE00002400192019808680222104308600868C9
:101AF00010400190019809480949199418951795C3
:101B000002221692159115A9FEF7C6FB1AB0B0BDB8
:101B100000480040004400403410024000040050DF
:101B200004080000FEE7000070B50446B520800000
:101B30002058800020180B2189014558002D16D00F
:101B40004320C00028180179002911D0EC4E3178CB
:101B5000204601F041FF687A022808D131782046FA
:101B600001F03AFFE7480178204601F035FF70BDEB
:101B700000680028EAD0687A0028E7D1E1480178B7
:101B8000204601F029FFE1E7B0B50446B52080000A
:101B90002058800020180B2292018558002D2AD051
:101BA000687A02280AD1EA480178204601F014FF39
:101BB000D4480178204601F00FFFB0BD49B200299A
:101BC00019D5012817D0232000012A1801201073ED
:101BD000CA48106000202872DD4801780D23204695
:101BE00001F01AFF212000012A18C64801781F239E
:101BF000204601F0E1FEB0BDF0B581B00446B5204D
:101C00008600A059800020180B218F01C559002D96
:101C10002AD023200201287AC11E022916D2AA182E
:101C200000201073B548106000202872C848017861
:101C30000D23204601F0F0FE212000012A18B148B2
:101C400001781F23204601F0B7FE0DE002280BD1DA
:101C50000B482818674900926A180178204600F05E
:101C60002DFB0099002801D401B0F0BDA019006837
:101C700080002018C559002DF6D06A180120D0E741
:101C80001D020000F0B581B00446B5208000215847
:101C9000890061180B229701CD59002D53D02118CE
:101CA00021200201AE18287A012842D000284AD10A
:101CB00000917068B1687062B16292480178204604
:101CC00001F020FE1F280CD130684B49884208D112
:101CD000717B012905D81020C043B27B113A8242A2
:101CE0005FD8717B05222023204601F0E7F902200E
:101CF00068720098006880002018C559002D22D015
:101D00004320C0002818017900293ED0904E317838
:101D1000204601F061FE687A022814D1317820460D
:101D200001F05AFE77480178204601F055FE01B0D7
:101D3000F0BD00922F482A180D46717B204600F016
:101D4000BDFA002801D401B0F0BD29462868800002
:101D50002018C559002DF6D0232000012A18012093
:101D600010736648106000202872794801780D23AE
:101D7000204601F051FE00982A18624801781F237E
:101D8000204601F019FE01B0F0BD00680028BDD06A
:101D9000687A0028BAD15B480178204601F01CFE21
:101DA000B4E714482A18204600F088FA297A002857
:101DB0000CD4481E0328C6D3EA68002A13D0103575
:101DC0002046294600F0A0F801B0F0BD052905D154
:101DD0000121204600F06EF801B0F0BD2046FFF76B
:101DE000A3FE01B0F0BD0021204600F063F801B071
:101DF000F0BDC0461F02000055534243B521890083
:101E00004158890040180B2189014058002801D011
:101E1000002101727047000070B50446B5208000B3
:101E20002058800021180B2080010D58002D1DD056
:101E3000132040012A180020288190701080B122C0
:101E400092008958096888472E4E3178204601F063
:101E500049FD3F480178204601F044FD2120000162
:101E60002A1831781F23204601F0A6FD70BDC04618
:101E700070B50446B52080002058800020180B2142
:101E800089014558002D14D00120000228813048D6
:101E90000178204601F006FD1A4E3178204601F007
:101EA00001FD212000012A1831781F23204601F06E
:101EB00083FD70BDB0B50446B52080002058800079
:101EC00020180B2292018558002D16D023200001E6
:101ED0002A18117309481060002028721C480178E4
:101EE0000D23204601F098FD212000012A18054805
:101EF00001781F23204601F05FFDB0BD55534253CA
:101F0000080000200900002070B50C46B5218900AA
:101F10004158890041180B239B01C958002915D04D
:101F20004323DB00CB188F25AD004D1900262E7002
:101F30001D6AAD1A1D6204250D721B68934200D301
:101F4000134603490978224601F066FD70BDC0467C
:101F50000800002010B5074C611C0748FEF77CF90B
:101F600001460020002901D0C04310BD012121708D
:101F700010BDC046400100202C010020F0B589B002
:101F80000024089435480168042211430160016867
:101F900011400391039901682022114301600168F7
:101FA00011400391039901680125294301600168EB
:101FB00029400391039901680222114301600068DE
:101FC00010400390039805200007029011210E0194
:101FD00031462246FEF726FA214822492246FEF7DC
:101FE00021FA2148402101912246FEF71BFA07946D
:101FF00006940595049604AF02983946FEF74CF90D
:102000000320079006950595049515483946FEF777
:1020100043F9069405941548049011483946FEF793
:102020003BF90794069405951920800204900C480A
:102030003946FEF731F906940594F0360496029875
:102040003946FEF729F907940694059501980490FE
:1020500005483946FEF720F909B0F0BD34100240BA
:10206000000400500164000000080050021000004D
:1020700010B5124800210122114B124C046043603C
:102080008160C260016141618161C1610162FEF7ED
:1020900017FA002801D0FEF7DAF808480021FEF709
:1020A000CDF9002801D0FEF7D2F804480021FEF750
:1020B000E6F9002801D0FEF7CAF810BDA8080020F4
:1020C000B57DB1100088004080B50748074900225F
:1020D000074B036042608160C160FEF77BFA002815
:1020E00001D0FEF7B4F880BDFC080020FF0F00000F
:1020F0000030004010B50F4800210F4A0823072484
:10210000016241628162C46201634363230241242C
:10211000A40014C0FC34016043608160C1600461AC
:1021200041610838FFF7FEFA002801D0FEF78FF86A
:1021300010BDC046EC0B00200030014010B5174820
:1021400000210C22164B016241628162E12464028B
:1021500018C0016041608160C2600161416108385E
:10216000FFF746FC002801D0FEF771F80B4800216C
:10217000FFF7FEFB002801D0FEF769F807480021B1
:10218000FFF7BAFB002801D0FEF761F80348FFF71C
:1021900097FB002801D0FEF75AF810BD500C002024
:1021A0000044004010B5174800210C22164B016274
:1021B00041628162E124640218C001604160816073
:1021C000C260016141610838FFF712FC002801D0AC
:1021D000FEF73DF80B480021FFF7CAFB002801D0AD
:1021E000FEF735F807480021FFF786FB002801D0ED
:1021F000FEF72DF80348FFF763FB002801D0FEF738
:1022000026F810BDE40C00200048004080B51048BE
:102210001049002201F031FB002801D0FEF717F829
:102220000B480D4901F071FE002801D0FEF70FF8B0
:1022300007480A4901F044FD002801D0FEF707F8DD
:10224000034801F081FE002801D0FEF700F880BDB0
:10225000CC0500200C00002078000020F0000020B9
:10226000FEE77047B0B5B521890041588900401894
:102270000B2189014458FF20002C18D04D21C900A2
:1022800061189A1809688A4213D90B4961180A78AB
:10229000D300E3180924A40105251D551B19212489
:1022A0009C80521CD3B2042B00D100220A7040B291
:1022B000B0BD002040B2B0BD61020000F0B589B0F1
:1022C000174606910646B5208100705880003018E8
:1022D0000B2294010559FF23002D01D100F0AFFC22
:1022E00072184321C9006918049113214901691822
:1022F000059139789D29039200DD7CE05A2900D9A7
:102300006DE249007944898849008F445A00680287
:102310006802B30068026802680268026802680224
:10232000680268026802680268026802680268025D
:10233000E0006802680268026802680268026802D7
:1023400017013D01680268025A01680268026802CA
:10235000680264016802920168026802BB016802B7
:10236000D8016802680268026802E4016802680233
:10237000680268026802680268026802680268020D
:1023800068026802680268026802680268026802FD
:1023900068026802680268026802680268026802ED
:1023A00068026802680268026802680268026802DD
:1023B00068026802680268026802680268026802CD
:1023C000020204990968002900D142E21C46059ED8
:1023D0007078C10069180922920105238B5489186D
:1023E00020228A80401CC1B2042900D1002023464B
:1023F000707000F024FC9E2900D1B0E1A82900D122
:10240000DEE1AA2900D0EAE1297A002900D05AE1C8
:10241000049A1168002900D18EE3029304215156D9
:10242000002900D5F2E3B12189000191405881686B
:102430000698884703990968002801D100F082FCBA
:10244000880030180059002801D100F09CFCF649A2
:10245000445CE200821809239B010226D654641CC6
:10246000E6B2042E00D100244454D0183A218180D1
:1024700000F089FC04980068002800D10CE228468E
:1024800011301121FDF769FE0C20E87570202874C9
:10249000059C2278607882420ED0D000281809214D
:1024A0008901435CAB74521CD3B2042B00D10022CF
:1024B000227040188088A8831220E86038790023B1
:1024C000122800D9BBE3E86058B209B0F0BD049906
:1024D0000968002900D1F2E17978C907059E00D08A
:1024E00038E22421069A5143B12292008058C069F3
:1024F000401801794A1D39798A4200D30A46EA60B8
:102500000023002A00D19AE3029303241440531EAF
:10251000002C00D18FE3C15CEE183174012C1946F8
:1025200000D189E3911E465C6F183E74022C00D1E5
:1025300082E3D11E425C6C1822747DE3397917293D
:1025400000D31721E9600023002900D177E31C465E
:1025500003230B404A1E002B00D106E2A818CC4EE4
:10256000B65C0674012B104600D1FFE1881E2E18C0
:10257000C74F3F5C3774C64E022B00D1F6E1C81E30
:102580002918335C0B74F1E13879059EB178012983
:1025900000D039E103210840022800D036E11C4672
:1025A0007078C10069180922920105238B5489189B
:1025B00024228A80401CC1B2042900D010E30020EC
:1025C0000EE338790023EB60411E8841059988703D
:1025D00058B209B0F0BDB12189004058436807A93D
:1025E00008AA06989847002804D105988078022800
:1025F00000D0F2E103980068800030180059FF23F2
:10260000002800D11BE31E46A049445CE20082186A
:1026100009239B010225D554641CE5B2042D00D189
:1026200000244454D0183A218180334658B209B06E
:10263000F0BD0293B12189004058436805980746D0
:102640000837021D0698394606929847002800D0A0
:1026500099E005988078022800D194E00023AB82AD
:102660000820E8603868401EE8740699098849BA6D
:10267000E982010AA974010C6974000E287458B229
:1026800009B0F0BD297A002900D09DE00421049A08
:102690005156002900D525E21C46059E7078C100E0
:1026A00069180922920105238B54891820228A80F7
:1026B000401CC1B2042900D092E2002090E2297AA5
:1026C000002900D10EE13046069900F07BFC03465C
:1026D00058B209B0F0BD7878800700D5A6E0059E15
:1026E0003246083207CA5118814200D897E01C468A
:1026F0007078C10069180922920105238B5489184A
:1027000021228A80401CC1B2042900D068E2002046
:1027100066E2397A1B2900D31B21E96000230029D6
:1027200000D18CE21C4603230B404A1E002B00D133
:1027300037E1A818574EB65C0674012B104600D13D
:1027400030E1881E2E18534F3F5C3774514E022BD8
:1027500000D127E1C81E2918335C0B7422E10293D3
:10276000B121890040584368059801460831021D8F
:102770000698049106929847002804D1059880781D
:10278000022800D065E103980068800030180059E5
:10279000002800D1A2E33D49445CE20082180923ED
:1027A0009B010225D554641CE5B2042D00D1002400
:1027B0004454D0183A218180029B58B209B0F0BD30
:1027C000297A002900D1ABE001204002E8603046C0
:1027D000069900F089FB034658B209B0F0BD1C46CB
:1027E000059E7078C10069180922920105238B5457
:1027F00002236B72891820228A80401CC1B20429EE
:1028000000D0EDE10020EBE1032108400021012888
:1028100004D0032802D0022801D10221B170002384
:10282000EB6058B209B0F0BD610200001C46059E85
:102830007078C10069180922920105238B54891808
:1028400024228A80401CC1B2042900D0C8E10020A3
:10285000C6E10293059FB978022900D0D6E07878C6
:10286000C10069180922920102238B5405232B729F
:1028700089183A228A80401CC1B2042900D1002064
:10288000029B787058B209B0F0BDC04661020000EA
:10289000470000202C0000201C46059E7078C100D7
:1028A00069180922920105238B54891820228A80F5
:1028B000401CC1B2042900D092E1002090E11C46E6
:1028C000059E7078C10069180922920105238B5476
:1028D000891820228A80401CC1B2042900D07FE1DF
:1028E00000207DE1049A1168002900D112E10293D1
:1028F00004215156002900D577E1B12189000191C9
:10290000405881680698884703990968002800D1D3
:10291000EEE1880030180059002800D03BE7DDE2E6
:1029200001940421049C6156002900D516E11C463F
:10293000059E7078C10069180922920105238B5405
:10294000891820228A80401CC1B2042900D047E1A6
:10295000002045E1B878802800D11AE1002800D095
:102960002EE10620E860F3481AE10846032A2346D0
:1029700000D264E1F049091F002217462B180C18F9
:10298000E678DE73A6789E7364785C730C5C1C73C7
:10299000091F2D1F121D9042F0D13B4658B209B0BD
:1029A000F0BD0846032A234600D248E1E349091F47
:1029B000002217462B180C18E678DE73A6789E7353
:1029C00064785C730C5C1C73091F2D1F121D9042F0
:1029D000F0D13B4658B209B0F0BD0023AB746B7424
:1029E0002B740820E874022028830C20E8600798E4
:1029F000401EE875089949BA6983010AA975010C56
:102A00006975000E287558B209B0F0BDB121890072
:102A10004058816806988847002800D1FFE603984F
:102A20000068800030180059002800D1ABE1C4498B
:102A3000445CE200821809239B010226D654641CE0
:102A4000E6B2042E00D100244454D0183A218180EB
:102A500099E1B87A0006F97A09040818397B090265
:102A60004018797B4018E8601ED000210B460A46CA
:102A7000EB18197401231343DBB2984214D9EC18F4
:102A80000023237402241443E4B2A0420CD92C196D
:102A9000237403241443E4B2A04205D92C192374EF
:102AA000121DD3B29842E3D800232B830498006808
:102AB000401EE8750699098849BA6983010AA97513
:102AC000010C6975000E2875B87A0006F97A0904B8
:102AD0000818397B09024018797B4018E86058B221
:102AE00009B0F0BD0293059A9178022900D0BFE0A9
:102AF0005078C100691814460922920102238B54B0
:102B000089183A228A80401CC1B2042921463BD14F
:102B1000002039E01C46059E7078C1006918092222
:102B2000920105238B54891820228A80401CC1B24F
:102B3000042955D1002053E01C46059E7078C10041
:102B400069180922920105238B54891820228A8052
:102B5000401CC1B2042943D1002041E00293059CEE
:102B6000A178022900D0B0E06078C100691809227C
:102B7000920102238B5489183A228A80401CC1B2E8
:102B80000429214600D10020029B487058B209B0A8
:102B9000F0BD0820E860D348C179E9758179A9754D
:102BA0004179697501792975C178E9748178A974C9
:102BB0004178697400782874002358B209B0F0BDD8
:102BC0001C467078C10069180922920105238B54B4
:102BD000891824228A80401CC1B2042900D1002017
:102BE0002346707058B209B0F0BD059C6078C100F2
:102BF00069180922920105238B54891820228A80A2
:102C0000401CC1B2042911D100200FE0059C60785E
:102C1000C10069180922920105238B5489182022CA
:102C20008A80401CC1B2042900D10020029B607040
:102C300058B209B0F0BD1146032B029B02D258B224
:102C400009B0F0BD001F002217466B184418E67843
:102C5000DE73A6789E7364785C73445C1C73001FFB
:102C60002D1F121D9142F0D13B4658B209B0F0BD64
:102C7000B12189004058816806988847002800D013
:102C800081E5B8780006F97809040818397909024D
:102C9000401879794218059BDA60387AF9791F462D
:102CA00009020B183B6130460699FFF7DBFA002852
:102CB00000D513E1B8883969414304980068884217
:102CC00000D0ECE0022028727EE5B1218900405856
:102CD0008168069C2046884700285AD003980068DF
:102CE0008000301801994058002800D053E5F5E0E5
:102CF0008800301801994058C16806988847002814
:102D000071D003980068800030180059002800D165
:102D1000E4E0F949445CE200821809239B010225A2
:102D2000D554641CE5B2042D00D100244454D018BD
:102D3000272140E55E000020470000202C000020F5
:102D4000610200008800301801994058C168069857
:102D5000884700286DD0039800688000301800591B
:102D6000002810D0E449445CE200821809239B014A
:102D70000226D654641CE6B2042E00D1002444542A
:102D8000D0182721818005202872029B58B209B0F3
:102D9000F0BDB8780006F9780904081839790902F5
:102DA000401879794218059BDA60B8790006F979FC
:102DB00009040818397A09024018797A1F4643181D
:102DC0003B6130462146FFF74DFA0028019A00D5B5
:102DD00084E0B8883969414304980068884276D114
:102DE00002202872F0E4B8780006F978090408187F
:102DF00039790902401879794218059BDA60387AE6
:102E0000F9791F4609020B183B6130460699FFF716
:102E100029FA002862D4B8883B69434304980068C3
:102E200098423CD101202872400283422CD30346B1
:102E30002AE0B8780006F9780904081839790902F7
:102E4000401879794218059BDA60B8790006F9795B
:102E500009040818397A09024018797A1F4643187C
:102E60003B6130460699FFF7FDF9002836D4B88853
:102E70003B69434304980068984210D101202872AE
:102E80004002834200D303468B4801781035304618
:102E90002A4600F091FD002358B209B0F0BD039816
:102EA0000068800030180059002817D09249445C0F
:102EB000E200821809239B010525D554641CE5B264
:102EC000042D00D100244454D018202173E4039829
:102ED00000688000301880580028E7D1029B58B263
:102EE00009B0F0BD64000020F0B587B0B5229300B2
:102EF000C258920084180B2295016759FF22002FB7
:102F00003BD0049006910295039301924721C9009A
:102F10007D18B1218900605800690590A98DAE6BBC
:102F20004E4301204002864200D306463046FDF75C
:102F30001FF903466A6B0097103706983946059CBF
:102F4000A04700281CD41E48017804983A4633460E
:102F500000F062FD2868801B2860B0B2A98DFDF7E3
:102F600007F9696B09186963A96B0A1AAA63002239
:102F7000814202D103200099087250B207B0F0BD1F
:102F800003980499081800688000081802994058AE
:102F9000002810D05849445CE200821809239B01A4
:102FA0000425D554641CE5B2042D00D100244454FA
:102FB000D01811218180019A50B207B0F0BDC046EF
:102FC00008000020F0B587B0B522920083589B001E
:102FD000C5180B239B01EE58FF24002E35D004901A
:102FE00006910293039201944721C9007718B121F9
:102FF0008900685840690590B98DBC6B4C4301202D
:1030000000904002844200D304462046FDF7B0F809
:1030100003467A6B103606983146059DA84700286E
:1030200016D43868001B3860A0B2BC8D2146FDF76D
:103030009FF8796B09187963B96B081AB86326D1C0
:10304000002404982146FEF735FF60B207B0F0BDBA
:1030500003980499081800688000081802994058DD
:10306000002825D02449445CE200821809239B01F2
:103070000425D554641CE5B2042D00D10024445429
:10308000D01803218180019C60B207B0F0BD444399
:10309000009841028C42049800D30C4606490978F6
:1030A0003246234600F088FC002460B207B0F0BD31
:1030B000019C60B207B0F0BD09000020F0B5B52159
:1030C00089004158890040180B2189014058002887
:1030D00011D00949465CF40004190925AD01625577
:1030E000761CF7B20022042F174600D0374647540B
:1030F000601942710371F0BD6102000001204302BA
:1031000013800004086000207047002070470020F2
:103110007047002070470020704700207047002053
:103120007047704780B5FDF787FA80BD7047B0B52E
:10313000816A0A070CD4CA0714D18A071CD44A072B
:1031400024D4CA062CD48A0634D44A063CD44CE093
:103150000122D20303685C689443826B22435A6065
:10316000CA07EAD00122520403685C689443C26A29
:1031700022435A608A07E2D50122120403685C6880
:103180009443026B22435A604A07DAD50122920423
:1031900003685C689443426B22435A60CA06D2D5E6
:1031A0000122120303689C689443C26B22439A6015
:1031B0008A06CAD50122520303689C689443026CB4
:1031C00022439A604A0610D501221305026854680A
:1031D0009C43456C2C4354609D4206D103235B0500
:1031E00054689C43836C23435360090607D501212F
:1031F000C904026853688B43C06C18435060B0BD6B
:10320000F0B583B00446064684360027F760FDF724
:1032100011F903462068016809071FD52848009066
:10322000012002904105002220461D4600F096F93B
:10323000002811D0EFF31080029981F310882168E3
:103240000A6880239A430A6080F310882020706007
:103250000320377003B0F0BD20682B46006840079C
:1032600025D5174800900125A9050022204600F029
:1032700075F900281BD0EFF3108085F31088092121
:103280004901226813688B43136080F31088EFF3C1
:10329000108085F3108821688A68AA438A6080F3C9
:1032A00010882020B0600320377003B0F0BD2020CC
:1032B0007060B060E76627673846377003B0F0BDCE
:1032C000FFFFFF01F0B583B00446026810688B4928
:1032D0000140A0682369034365691D430D43E76905
:1032E0003D4315600320010353688B43E168194394
:1032F00051600126B3021343A56981498B420190B5
:10330000029701D1294601E0216A2943204668300D
:1033100095687C4F2F400F439760D56A0F218D43EE
:10332000616A0D43D5620025774FBA420DDC7B4FB1
:10333000BA421FDC7C4DAA422ED07C4DAA420746E1
:1033400052D17B4A126812092AE0704FBA4219DC46
:10335000714DAA42074628D06948824244D1744838
:1033600000688005820F73487A44127952009744AE
:1033700033276C6A6A4FBA4228D06A4FBA4207466E
:1033800025D031E0624FBA42074620D0614DAA42B3
:103390002AD1674A126803E0654A12689208074614
:1033A0009207120F64A39D5823E06148006800054E
:1033B000820F60487A441279520097440D014644C6
:1033C000FDF710FF00280BD100268FE007464C4880
:1033D00083420ED1002E05D0FDF7F2FE0028F3D077
:1033E000616A32E0012681E01025002644488342CC
:1033F000F0D00126F2030298904212D1082D00D994
:1034000074E04C487D442D796D00AF44046F416FEA
:103410003A6F6F6F4000FDF7D3FE002835D0616A28
:1034200036E0082D62D843487D442D796D00AF44C5
:10343000045D4B5D445D5D5D4A00FDF7C1FE002803
:103440003FD0616A40E00120C00349003E4A515A22
:10345000FCF78EFE6268019951430126884245D3EC
:103460001103884242D8010E55080002002340197A
:103470005941FCF73BFE35494118354A914235D256
:1034800031E0FDF7AFFE0028C9D100262EE010463E
:1034900049002D4A515AFCF76BFE400061684A080A
:1034A0001018FCF765FE0246103A2A498A421DD2DE
:1034B00001400007400F084315E0FDF793FE002888
:1034C000BFD1002612E0104649001F4A515AFCF7AE
:1034D0004FFE61684A081018FCF74AFE0146103991
:1034E0001C4A914202D22168C86000261A483860FE
:1034F00000206067A067304603B0F0BDF369FFCFDE
:1035000000840040FFF4FF11FF7F0040FF370140BF
:10351000003C01400038014000800040FF4B00406B
:10352000004C004000500040004400400048004073
:10353000541002400024F4000000000004000000C9
:1035400002000000080000006051000800FDFFFFBD
:1035500000FD0F00F0FF000001000100F0B585B094
:103560001F4615460E460368D9693140891B4A42F9
:103570004A410021AA4222D10A9C002C22D0039168
:10358000611C24D1D9693140891B4A424A41AA426F
:1035900031D1D9693140891B4A424A41AA422AD1D4
:1035A000D9693140891B4A424A41AA4223D1D9698B
:1035B0003140891B4A424A41AA42E3D01BE00846F7
:1035C00005B0F0BDFCF736FF032005B0F0BD402E7E
:1035D000049001D0802E14D1FCF72CFFC01BA04218
:1035E0000CD8049800680168C0693040801B4142D3
:1035F0004141A942F0D0039805B0F0BD032005B0C9
:10360000F0BD8430019001200090C002029006E0DD
:10361000C8693040801B41424141A942EBD1FCF7CF
:1036200009FFC11B0320A1423FD8049909680A6819
:103630005207EDD5CA69120739D4CA69029B1A42EA
:10364000E6D0029A0A62EFF31082012181F310881A
:1036500009235B01049C246825689D43256082F34F
:103660001088EFF3108281F31088049B1B689C681C
:103670002A4D25409D60049B82F31088DA6E012A52
:103680000BD1EFF3108281F3108819680B681024B6
:10369000A3430B60049B82F310882021019CA1604E
:1036A0000022DA665A672270E16005B0F0BD082595
:1036B0000D62EFF31081009880F310880922520107
:1036C000049B1B681C6894431C6081F31088EFF313
:1036D000108180F31088049A126893680F4C1C4084
:1036E000049B946081F31088D96E01290CD1EFF30B
:1036F0001081012282F310881A6813681024A343F2
:103700001360049B81F310882021019A91600021AD
:10371000D96659671170D56005B0F0BDFEFFFFEFA7
:1037200010B50446802100F057F90021204600F032
:1037300053F910BD10B513460A46A521890002248D
:1037400044508361C3610024214600F065F920469E
:1037500010BD70B502468078D3781B021B18147810
:103760000020A34204D870BD6419A5B29D42FAD2CC
:10377000157852195678052E02D196788E4223D0AC
:103780006419A5B29D42EED2157852195678052ECD
:1037900002D196788E4217D06419A5B29D42E2D22A
:1037A000157852195678052E02D196788E420BD094
:1037B0006419A5B29D42D6D2157852195678052EB5
:1037C000D2D196788E42CFD1104670BD70B5002808
:1037D00052D00378002B14D0041D0023E51E2D7851
:1037E000002D10D0A51E2D78002D0ED0651E2D7831
:1037F000002D0CD0251D1B1D2478002C2C46EDD14E
:1038000007E0002305E0012402E0022400E0032495
:103810002343DBB25B009B1C138003224A700B70B6
:103820000378002B28D0021D0220C5B24B5501237E
:103830001D4300244C55D51E2D78002D1CD0861C10
:10384000F6B28D551E438C55951E2D78002D13D044
:10385000061DF6B28D551E438C55551E2D78002D34
:103860000AD0861DF6B28D553343CC54141D083052
:103870001378002B2246D8D170BD10B500280FD088
:10388000A7239B00C31800245C639C62DC610029B1
:1038900000D0996102700121197000F03BF810BD51
:1038A000032010BD80B55922D2008058FCF794FF48
:1038B000032804D8C1006048C840C0B280BD0320BE
:1038C000C0B280BD80B55922D2008058FCF75EFF9F
:1038D000032804D8C1005848C840C0B280BD0320A6
:1038E000C0B280BD80B55922D2008058FCF7A3FF3A
:1038F000032804D8C1005048C840C0B280BD03208E
:10390000C0B280BD80B55922D2008058FCF7AEFF0E
:1039100080BD0000B0B55921CA001A498150B723B3
:103920009B00C85000234B8102244C72CC71164C72
:103930008C80164C0C608B81CB810B7485180846EB
:10394000FDF71FF8002801D0FCF781FC286800244F
:10395000182321462246FCF7FDFE286880215823C3
:103960002246FCF7F7FE2868812198232246FCF7BF
:10397000F1FE28680121D8232246FCF7EBFE204601
:10398000B0BDC0460C09002008080000005C0040E3
:1039900010B514465922D20080581A462346FCF727
:1039A0006EFF032804D8C1002348C840C0B210BD30
:1039B0000320C0B210BDC04610B55924E400005920
:1039C000FCF789FF032804D8C1001B48C840C0B2D7
:1039D00010BD0320C0B210BD80B55922D20080585E
:1039E000FCF78DFF032804D8C1001348C840C0B2BB
:1039F00080BD0320C0B280BD80B55921C9004058A8
:103A0000FDF730F9032804D8C1000B48C840C0B204
:103A100080BD0320C0B280BD10B55924E400005918
:103A2000FCF799FF032804D8C1000348C840C0B27E
:103A300010BD0320C0B210BD0003010310B50A463B
:103A400003A09E4C2146FFF7C1FE204610BDC04694
:103A50004D534320436F6E666967000080B5FEF7E3
:103A6000CBF8002080BD80B5FEF70CF9002080BDAA
:103A7000F0B581B00446704D6978FFF723FF687890
:103A80002A460F27384014267043201859218900F0
:103A90000025455211782046FFF714FF664800784C
:103AA0003840704320188584AF2080002618B06904
:103AB000800020180B218F01C05900280CD020460F
:103AC000FEF79CF9E419B0698000205800F040FA34
:103AD000B069800025503560002001B0F0BDC046BF
:103AE0001220088000487047D00000200A21018081
:103AF00000487047E400002070B50446294E81213B
:103B00003046FFF726FE054601213046FFF721FE2D
:103B1000002D03D00021697140212971002803D0B4
:103B20000021417140210171202020801D4870BD7D
:103B3000F0B581B004461B4E81213046FFF709FEE7
:103B40000546012730463946FFF703FE7902002D6E
:103B500002D029710A0A6A71002802D00171090A8B
:103B60004171202020800F4801B0F0BD70B504469F
:103B70000C4E81213046FFF7ECFD05460121304611
:103B8000FFF7E7FD002D03D0002169714021297165
:103B9000002803D0002141714021017120202080A4
:103BA000004870BDB0000020F0B583B00446AF20DF
:103BB000800025189D20800000F0CCF9A9698900BB
:103BC00061180B2292018918002808D0086028602B
:103BD000207C01210028029106D0402705E000202A
:103BE0000860022003B0F0BD4F02134D6978022235
:103BF000019220463B46FFF7CBFE68782A460F210C
:103C00000091084014256843201859218900029E1C
:103C1000465211782046019A3B46FFF7B9FE064806
:103C20000078009908406843201886842046FEF7F3
:103C3000F3F8002003B0F0BD0800002010B50A46DC
:103C400003A01E4C2146FFF7C1FD204610BDC04613
:103C50004D534320496E74657266616365000000D0
:103C600004200880004870477400002010B50A4600
:103C700003A0124C2146FFF7A9FD204610BDC04607
:103C800053544D6963726F656C656374726F6E69CE
:103C90006373000010B50A4603A0084C2146FFF7E5
:103CA00095FD204610BDC04653544D3332204D6122
:103CB00073732053746F72616765000048010020C0
:103CC000002909D0B5229200825892008018B122B2
:103CD00092008150002070470320704710B51A20D1
:103CE0000880404801688268521879D041683E488F
:103CF00000234376C3754375C3744374C37343731E
:103D0000C3724372C3714371C3700F23134014070E
:103D1000640F052C01D3373300E030330374540FA4
:103D2000130F052C01D3373300E0303383704C0F71
:103D30000B0F052C01D3373300E0303383741306A7
:103D40005C0F1B0F052C01D3373300E03033837336
:103D500013055C0F1B0F052C01D3373300E0303304
:103D6000037313045C0F1B0F052C01D3373300E0E2
:103D70003033837213035C0F1B0F052C01D33733D1
:103D800000E03033037213025C0F1B0F052C01D3CC
:103D9000373300E0303383711201530F120F052BBC
:103DA00001D3373200E0303202710A03530F120F91
:103DB000052B01D3373200E0303202760A02530F6E
:103DC000120F052B01D3373200E030328275090122
:103DD0004A0F090F052A01D3373100E03031017550
:103DE000014810BD9075FF1F10010020F0B583B091
:103DF0000E460546A72080002918886B80002C18E5
:103E00000B229201A75802AA002313800320002F3F
:103E100039D0009301903278602313401BD0202BBF
:103E20002CD151B27278FF2A2FD0FE2A58D1728835
:103E3000002A55D1F288012A52D1002950D5B1214A
:103E400089006058806980473860012228463946D9
:103E5000FFF770FC4BE070780B2841D8784400796C
:103E60004000874405203D3D3D3D3D3D3D3D2A35DB
:103E70000878032834D102A9022223E028463146DB
:103E8000FFF74EFC019803B0F0BD7088002827D1E1
:103E9000F088002824D1002922D42846FDF7E8FF25
:103EA000009803B0F0BD0878032820D1708800285E
:103EB000009C1FD0204603B0F0BD087803280FD126
:103EC000391D01222846FFF735FC009803B0F0BDEC
:103ED0000878032804D1B0787860009803B0F0BD6A
:103EE00028463146FFF71CFC019803B0F0BD00984E
:103EF00003B0F0BD31792846FFF7F4FC317928464C
:103F0000FDF742FE204603B0F0BDB0B582B001AA75
:103F100000241480002913D05722D200851829606C
:103F2000E969890040188058C16A002902D001A8B7
:103F30008847A861286A401C2862204602B0B0BDAC
:103F40000324204602B0B0BD80B5FFF755FD80BD0B
:103F5000704700000048704748030020F0B582B069
:103F600002460F78B80013181058844C0440C878E3
:103F7000032801900AD800250095C04678440079AE
:103F80004000874401060C09012006E00120009052
:103F900005E00120800201E0032040020443784D47
:103FA0002C431C601868CA4C2040384328431860D2
:103FB000087B002804D00198022823D0284622E05C
:103FC0004878002800D183E0F800704F3A58704ECE
:103FD00032403A50C988032291433A580A433A5032
:103FE0001868400605D5186820402946403101432D
:103FF000196030341A6822400198012800D08FE0FF
:104000002A438FE05F481A685F4C144004431C60E9
:10401000F8005E4A84585E4F3C4084500324E443D9
:104020000E892640855835438550801842683A40AD
:1040300042604A892240446814434460012082035C
:10404000186810404A78B249002A1CD00028009E07
:104050009F4C04D0186820409F4A02431A60186899
:104060004006474D05D5186820402A464032024395
:104070001A60303418682040019A012A1FD02A465D
:10408000203250401CE00028009E914C04D018685B
:104090002040914A02431A6018684006384D05D501
:1040A000186820402A46403202431A6018680840C7
:1040B00088494140196030341A68224003E028439F
:1040C00018601A680A402A431A60304602B0F0BDF0
:1040D000009CF8002D4D281845682D4E3540456050
:1040E000CD880326B54346682E43466045683F2683
:1040F000B606B5434560051D08693F2817D3C106BC
:104100004009002900D1401E264680062968014347
:104110000120C007084328601868400418D41DE037
:1041200020356A40009E1A60304602B0F0BD00287B
:1041300005D00121014040084018810601E001201E
:10414000C10728680843264628601868400405D53A
:1041500018685F490840604901431960002F04D086
:1041600018686B4901400B4A03E010686849014038
:10417000584A4A401A60304602B0F0BD8F89FF07A6
:1041800080800000808100000F0EFF070098004033
:104190000000FFFF80A0000070B50A7892008658EA
:1041A00080184A780B7B2449002B27D001239B03DE
:1041B0001E40474B002A2AD0474D002E03D00268EC
:1041C0001A402A4302601C46303402685206504AA4
:1041D00003D506681E400E43066006681E402E4347
:1041E00006600B46403B056825401D43056003689B
:1041F0001340403919430160002070BD002A15D0DA
:10420000334C2246303273060B46F0D5EBE7002ED6
:1042100004D002681A40304C144304601A4630320D
:10422000046864063A4C0D46D3D4D6E77204384A83
:10423000DDD5294B264CD6E7C08000000121C903FB
:10424000826D0A4382650020704701210164026C7F
:104250008A430264C907026C8A43026400214164F4
:1042600008467047016C024A0A4002640020704709
:104270007F40FFFFB0B50A7B002A01D00020B0BD0F
:104280000A789300C258C0184B78002B0ED0520603
:104290000E4A0F4B05D504681C40154620352543B2
:1042A0000560C9780129E9D0303309E05104094A91
:1042B000174B05D50168064C0C4007496118016091
:1042C00001681940514001600020B0BDA08000008D
:1042D0000F0FFF0780B0000080C0000010B54B78C2
:1042E000002B04D0094A002B04D1094B03E0064AF5
:1042F000002BFAD0074B0978890044581C405440E1
:104300004450002010BDC046809000009080000006
:104310000F3FFF073F0FFF07F0B589B0074648780A
:1043200001285ED18E690869864200D306460A7B61
:10433000002A089700D180E00D6ACA78022A00D0CE
:10434000CEE007960A789300FC18FB58FB4E1E40FF
:104350008542069200D81BE1F94806432660086AA8
:10436000079D401B0862280423685B0600D5A9E16D
:10437000069AD200F34C13599BB2135113590343BD
:104380000592135103222B461340581E0393834179
:10439000A8B2C01C8008C61A088904194D69002EED
:1043A0000492029500D1A4E237461740721E002FF6
:1043B00000D1A6E228786B781B0218180190AB7820
:1043C000E8780002C0180004019BC318204608C00A
:1043D000012F00D09AE22F1D04461646059B00F0DF
:1043E00013FC0A7B002A59D0CA78012A00D1B6E012
:1043F000022A00D0C0E0002800D0BDE20878C0004A
:10440000E54BC458E54A1440C450C0180B693E2B14
:1044100000D8B8E1DC065B09002C00D15B1E9B06CE
:1044200004681C430125ED072C43046044681440D4
:10443000446042681A432A439DE2032432462240E4
:10444000501E154685410796B0B2C01C8008471B18
:10445000C888D14BC6184D69002F00D1F3E13C400C
:104460007B1E002C00D129E1059328786B781B0274
:1044700018180690AB78E8780002C0180004069B74
:10448000C318304608C0012C00D05DE12D1D064642
:10449000059B1F46032B00D3A4E1D5E108698A6977
:1044A000131A00D200238B610B78DB00BA4C1B1966
:1044B0005C683F25AD06AC435C60824200D3024697
:1044C000181D3F2A5BD3D3065209002B00D1521E80
:1044D0009206036813430122D2071A4302606CE27A
:1044E000A81B08620B789800385842063004002A4E
:1044F000069300D586E0DA003546A74E93599BB265
:10450000935193590343935103272C463C40601E1B
:1045100022468241A8B2C01C8008851A08898319E6
:104520004969002D00D128E12F40681E002F00D1DD
:1045300041E107900A784E783602B2188E78C87832
:1045400000028019000480181E4601C6012F00D009
:1045500097E1091D334607980546089F49E20A6915
:104560008B699C1A00D282E08C61934200D383E075
:10457000002800D184E020E2012009B0F0BD002A2B
:1045800000D1F4E0012313405208D2189206F0E063
:10459000834B1846303806432660D0007E4FC459FE
:1045A000A4B2C451C4592E042643C65103202A463E
:1045B0000240561E1446B441ADB2ED1CAD082E1B90
:1045C0000C89E5194969002E00D190E23040741E33
:1045D000002800D1F1E005940C784F783F023C1997
:1045E00007948F78CC782402E4192404079FE419F7
:1045F0002F4610C7012800D055E1091D3D46059CF6
:10460000264641E2DA003546634E921953689BB262
:10461000536053680343536003272C463C40601E9D
:1046200022468241A8B2C01C8008851A4889831995
:104630004969002D00D1A3E02F40681E002F00D152
:10464000BCE007900A784E783602B2188E78C878A7
:1046500000028019000480181E4601C6012F00D0F8
:1046600035E1091D334607980546089F64E200249A
:104670008C61934200D27BE71346002800D09CE176
:104680000878C000444C0559444A154005510019AA
:104690003F2B00D286E0DC065B09002C00D15B1EBC
:1046A0009B0604681C430125ED072C430460446805
:1046B0001440446042681A432A437DE1032B00D32F
:1046C00090E0C1E0069AD200334E059293195C68DF
:1046D000A4B25C605C6804435C6003222B46134018
:1046E000581E03938341A8B23546C01C8008C61AE1
:1046F000488944194B69002E0292049300D1FBE0D3
:1047000037461740701E0190002F00D1FCE018784A
:104710001A465B781B02181800909378D078000234
:10472000C0180004009BC318204608C0012F00D009
:1047300002E1171D00900446019E10E30F0EFF07D3
:10474000808100000098004028796B791B021818BE
:104750000690AB79E8790002C0180004069BC018E7
:104760007060022C2CD1BF1E0835083636E00122BD
:10477000D2070368134303601FE11E46089F6CE1E4
:104780001E46089F0CE2002B00D1EAE001241C40E9
:104790005B081B199B06E6E000980040FFFFFF0343
:1047A000B0800000002B00D1FCE001241C405B081D
:1047B0001B199B06F8E0089F1BE165E1089FBBE120
:1047C000287A6B7A1B021818AB7AEC7A2402E31869
:1047D0001B041818B060FF1E0C350C363046059BC4
:1047E000032B31D328786B781B021818AB78EC7840
:1047F0002402E3181B041818306028796B791B0217
:104800001818AB79EC792402E3181B0418187060AF
:10481000287A6B7A1B021818AB7AEC7A2402E31818
:104820001B041818B060287B6B7B1B021818AB7B2D
:10483000EC7B2402E3181B041818F06010363F1FAD
:104840001035002FCED13046002A089F0BD02C788F
:10485000012A07D06B781B021C19022A02D0AA7801
:104860001204141904600E78F000D74C215889B254
:1048700021502158079A13040B432350D34BD44D96
:104880009EE008794A79120210188A79CE793602A8
:10489000B218120410185860022F00D098E0AD1E14
:1048A00008310833A2E00C794F793F023C19079494
:1048B0008F79CC792402E4192404079FE4196C60F1
:1048C000022800D0D0E0B61E08310835DAE00879B9
:1048D0004A79120210188A79CE793602B218120477
:1048E00010185860022F00D015E1AD1E08310833B2
:1048F0001FE120462F46BBE120461F46059B039A39
:1049000068E22F46059B7FE11F4628E228796B79F4
:104910001B0218180190AB79E8790002C018000456
:10492000019BC0186060022F059B00D058E1B61EA5
:104930002F460837083466E1107953791B0218189E
:1049400000909379D0790002C0180004009BC01831
:104950006060022F00D0F2E1B61E17460837083417
:10496000FCE10123DB0704681C4304604468144035
:10497000446042681A434260C86900281DD0087824
:1049800080003A58934B1A409A4201D0002A14D121
:1049900038188F4A303A036813408C4A9A181032FC
:1049A00002600AE00123DB0704681C4304604468DA
:1049B0001440446042681A4342600E78864B874D2B
:1049C000B0003958294059403950002009B0F0BD95
:1049D000087A4A7A120210188A7ACE7A3602B21807
:1049E000120410189860ED1E0C310C331E46089FFF
:1049F0000798032831D308784A78120210188A7869
:104A0000CE783602B21812041018186008794A7964
:104A1000120210188A79CE793602B21812041018D0
:104A20005860087A4A7A120210188A7ACE7A3602C8
:104A3000B218120410189860087B4A7B12021018F2
:104A40008A7BCE7B3602B21812041018D86010335D
:104A50002D1F1031002DCED11E465C4B5C4D002C1D
:104A600000D0A1E0069EABE7087A4C7A2402201819
:104A70008C7ACF7A3F023C1924042018A860F61ED5
:104A80000C310C352F46059C032C31D308784C781B
:104A9000240220188C78CF783F023C192404201877
:104AA000286008794C79240220188C79CF793F024C
:104AB0003C19240420186860087A4C7A24022018D3
:104AC0008C7ACF7A3F023C1924042018A860087B16
:104AD0004C7B240220188C7BCF7B3F023C192404A2
:104AE0002018E8601035361F1031002ECED12F4629
:104AF000374D002A00D169E20878012A069E07D0C6
:104B00004C7824022018022A02D089780904081857
:104B10003860089F54E7087A4A7A120210188A7A95
:104B2000CE7A3602B218120410189860ED1E0C31BD
:104B30000C331E46089F0798032831D308784A781B
:104B4000120210188A78CE783602B21812041018A1
:104B5000186008794A79120210188A79CE793602DB
:104B6000B218120410185860087A4A7A1202101803
:104B70008A7ACE7A3602B218120410189860087B2E
:104B80004A7B120210188A7BCE7B3602B2181204BE
:104B90001018D86010332D1F1031002DCED11E46B5
:104BA0000A4B0B4D002C0DD00878012C07D04A7809
:104BB00012021018022C02D08978090408183060FB
:104BC000069EFDE6069EFBE600980040B0800000D1
:104BD0003F0FFF074040000080B000000F3FFF077D
:104BE000287A01921A466B7A1B021818AB7AEF7A70
:104BF0003F02FB181B0418181346019AA060F61E0A
:104C00002F460C370C342046032A32D338787B7871
:104C10001B021818BB78FD782D02EB181B0418181E
:104C2000206038797B791B021818BB79FD792D0239
:104C3000EB181B0418186060387A7B7A1B0218186E
:104C4000BB7AFD7A2D02EB181B041818A060387B84
:104C50007B7B1B021818BB7BFD7B2D02EB181B0412
:104C60001818E0601034361F1037002ECED12046C1
:104C7000059B039E002E079D0DD03C78012E09D088
:104C80001A467B781B021C19022E02D0BB781B042B
:104C90001C1913460460CF48C01843689BB2436098
:104CA0002B46029A56194E610C6A0D69AC4201D826
:104CB000002700E0E71A0F62AC4200D80794079D76
:104CC0002B0444681C4344602F46049A1740781E06
:104CD0003B468341A8B2C01C8008C31A4889BD491D
:104CE0004118002B00D15EE11A40581E002A00D165
:104CF000E3E00790347875782D022C19B578F078B8
:104D000000024019000400190C4601C4361D012A96
:104D100003D1214607980346CFE030787478240207
:104D20002018B478F5782D022C1924042018486036
:104D3000361D022A00D0B1E09B1E0831BCE0107A7B
:104D4000537A1B021818937AD77A3F02FB181B0478
:104D50001818A060F61E17460C370C340094059BFB
:104D60000398019A032A0246009833D338787B7857
:104D70001B021818BB78FD782D02EB181B041818BD
:104D8000206038797B791B021818BB79FD792D02D8
:104D9000EB181B0418186060387A7B7A1B0218180D
:104DA000BB7AFD7A2D02EB181B041818A060387B23
:104DB0007B7B1B021818BB7BFD7B2D02EB181B04B1
:104DC0001818E0601034361F1037002ECED1204660
:104DD000804D059B002A079E0CD03C78012A08D004
:104DE0007B781B021C19022A02D0BB781B041C19F9
:104DF000059B0460E85880B2E85008690C6A03908B
:104E000084423046374600D8204602040592EE58C8
:104E1000059A1643EE50049BDE194E61039A9442A4
:104E200001D8002300E0E31B6A4D029A0B6207469B
:104E300017407B1E3C469C4180B2C01C8008031B6F
:104E400008894119002B00D1ADE01A40581E002AF4
:104E500076D00790347875782D022C19B578F078D3
:104E600000024019000400190C4601C4361D012A35
:104E700003D121460798034662E030787478240213
:104E80002018B478F5782D022C19240420184860D5
:104E9000361D022A45D19B1E083150E030787478C7
:104EA00024022018B478F5782D022C192404201837
:104EB0008860DB1E361D0C310798032873D33078C9
:104EC000747824022018B478F5782D022C19240463
:104ED000201808603079747924022018B479F579A3
:104EE0002D022C19240420184860307A747A240288
:104EF0002018B47AF57A2D022C1924042018886021
:104F0000307B747B24022018B47BF57B2D022C1996
:104F100024042018C86010311B1F1036002BCED17E
:104F200041E03078747824022018B478F5782D02A6
:104F30002C19240420188860DB1E361D0C310798BC
:104F4000032830D33078747824022018B478F578A8
:104F50002D022C1924042018086030797479240259
:104F60002018B479F5792D022C19240420184860F2
:104F7000307A747A24022018B47AF57A2D022C192A
:104F8000240420188860307B747B24022018B47BB2
:104F9000F57B2D022C1924042018C86010311B1F2A
:104FA0001036002BCED10D4B0B4D002F0ED030788C
:104FB000012F07D0747824022018022F02D0B47871
:104FC00024042018089F069E0860F9E4089F069EA6
:104FD000F6E4C046009800403F0FFF07B080000095
:104FE00000214164014A02640846704780BF000006
:104FF00000207047002070470748012101700078A9
:105000007047C046012070470020704702480121C8
:10501000017000787047C0466C0000200020704787
:1050200094B0FBF713FB0025079506950126700247
:10503000FBF72EFEB0050C90300208902A20059058
:105040007007139070061290700411900820109051
:105050000F9502240E940D940B9640200A9009950A
:1050600005A8FCF703F9002803D0EFF3108072B60F
:10507000FEE70495039507200190029401A82146BC
:10508000FBF7A2FF002803D0EFF3108072B6FEE713
:10509000FCF774FFFDF718F8FDF750F8FDF72AF854
:1050A000FCF758FF002803D0EFF3108072B6FEE73C
:1050B000FCF7DEFFFDF776F8FDF7A8F8FEE702E063
:1050C00008C8121F08C1002AFAD170477047002093
:1050D00001E001C1121F002AFBD17047000000004F
:1050E00000000000000000000000000000000000C0
:1050F00000000000000000000000000001000000AF
:105100000200000003000000040000000600000090
:105110000700000008000000090000000000000077
:10512000000000000000000000000000010000007E
:1051300002000000030000000400000000800202E2
:105140001F00000053544D202020202050726F6417
:10515000756374202020202020202020302E303124
:10516000010002000400060008000A000C00100004
:105170002000400080000001010101030701000040
:105180000804020408010101A851000800000020E1
:10519000400100001402000888520008400100206D
:1051A00040100000CE500008420142043381012F1C
:1051B000E13A0008613C00086D3C0008953C6E082F
:1051C000DD3C00083D3A00083D3C00087226031211
:1051D00008124222031508125D02008000800008B8
:1051E00020202020012E24F40004030904A93B0000
:1051F00008713A9608ED3D0008D95D3A0008673A13
:1052000000082F313B0008F93A00086D3B0008ED1B
:105210003A3D0809022000010104C03209043B02A2
:105220000806500507058102403607050102404582
:10523000120100023C4083042A57000201020301CC
:10524000450A0600024340012F0F310008FD3000DF
:10525000081331000817312C081B3100081F3100DA
:10526000080B31081B083C5100081A032FF94F00A6
:10527000080D500008095000081D50160805500080
:0852800008000000000000001E
:04000005080000BD32
:00000001FF
