:020000040800F2
:10000000F0410020D10000082D38000857300008CA
:1000100000000000000000000000000000000000E0
:10002000000000000000000000000000C3470008BE
:10003000000000000000000031380008D14700082F
:10004000E3000008E3000008E3000008E300000804
:10005000E3000008E3000008E3000008E3000008F4
:10006000E300000811070008210700080107000845
:10007000E3000008E3000008E3000008E3000008D4
:10008000E3000008F9470008E3000008E300000867
:10009000E3000008E3000008E3000008E3000008B4
:1000A000E3000008E3000008E3000008E3000008A4
:1000B00091510008A1510008E3000008034885465B
:1000C00000F06EFA00480047B56C0008F0410020CF
:1000D0000448804704480047FEE7FEE7FEE7FEE7E6
:1000E000FEE7FEE7F5470008BD000008F0B51FB4C5
:1000F0000646002082B005464024019100901BE096
:10010000019922460F46304600F073F8049A059B89
:10011000801A994110D310461946224600F059F82A
:10012000361A8F410197224601200021009F00F0DE
:1001300050F838184D4100902046641E0028DFDC3E
:10014000019B00982946324607B0F0BD03460B4399
:100150009B0703D009E008C9121F08C0042AFAD27D
:1001600003E00B780370401C491C521EF9D2704703
:10017000D2B201E00270401C491EFBD2704700223F
:10018000F6E710B513460A4604461946FFF7F0FF96
:10019000204610BD70B50446002903D0002020225F
:1001A000012310E0002801D00020C043C046C04613
:1001B0000DE02546D5408D4205D30D469540641B84
:1001C0001D46954040191546521E002DF1DC214672
:1001D00070BD10B5202A04DB0146203A9140002072
:1001E00010BD914020239C1A0346E34019439040E0
:1001F00010BD10B5202A04DB0846203AD04000216B
:1002000010BD0B46D340D0402024A21A9140084391
:10021000194610BDF0B507460846584087B0C00FD4
:10022000049048000E46590040084908BC1A88410D
:1002300005D2384631461E4617460B460246580040
:10024000400810434CD0300D039040055900400D3C
:10025000490D0590401A0290402872DA18030121D6
:10026000000B09050843019004980092002805D06E
:100270000199524200208841009201900298402149
:100280000A1A01990098FFF7A4FF05460C466B4631
:1002900007CB00F097F9C0197141039A0E0D0023A6
:1002A000D71756401A467A40164344D0049A002A7B
:1002B0002DD0029A012A039A15DC1205C01A914129
:1002C00001263605001C7141D20F059ED20700930E
:1002D000019202962A46234600F094F907B0F0BD39
:1002E00038463146FAE71605224A0F46B218C01AB8
:1002F000B74101210905001C4F4100187F411146FB
:1003000018187941E20F10436D19644113E0E207B8
:100310006D0815436408C2071443039A01261205A9
:10032000C01A91413605001C7141CE074008304388
:100330004908C01851412A46234600F056F9CDE736
:10034000FFE7049801224000C117121A00238B41D5
:1003500004983146C417381AA141EEE730B401249D
:10036000E407634030BC55E730B40124E407614042
:1003700030BC4FE70000E0FFF0B51FB488B00B9928
:100380000998002448400999C00F4900490809917B
:10039000C0070B990090490049080B9109990898EA
:1003A000A64608431CD00B990A98084318D0099810
:1003B00001244000420D4800410D09982405000326
:1003C000000B204309900B980003000B20430B9077
:1003D00050181C494018002201901446104605E0B0
:1003E000002001460DB0F0BD032801DA034600E00D
:1003F00003239C46C11A0AAE0AE05F0008ADED5B1C
:100400004F00F75B7D430027AA187C41491C5B1E07
:100410006145F2DD410004AB5A522104120C0A433B
:10042000240C401C0828DFDB0198029000997046DC
:1004300001910090059B049A0799069800F0E2F854
:10044000D0E700000DFCFFFFF0B50C465C4085B026
:10045000E40FE40703944C00002664085900944616
:10046000490802460296224321D062460A431ED022
:100470006200570D4A000E032303550D0124024666
:100480002C492405781B1B0B360B401823432643AD
:10049000614600901C46501AB44103D30098401C9A
:1004A000009002E0921800985B41002803DA0020D7
:1004B000014605B0F0BD002001210905074686462A
:1004C00011E064461D46141BB54106D36546521B18
:1004D000B341744607430C43A646CD07400849087C
:1004E000284392185B4105460D43EAD11046184354
:1004F00013D06046194650407140084306D060460C
:10050000101AB34106D20122002306E00022012383
:10051000DB0702E00122D243531000987446010524
:10052000381C6141029C039D0019694100F05DF88F
:10053000BFE70000FD0300004A0009030123090B87
:100540001B0519430A4B10B5520D9A4202DA0020DE
:10055000014610BD064B34339A4203DC9A1AFFF76A
:1005600048FE10BD034BD218FFF733FE10BD00004C
:10057000FF030000CDFBFFFF10B5002904DB0124C1
:10058000E40740428C412146002B04DB1C4601233A
:10059000DB075242A341994200D1904210BD0000B6
:1005A000064C0125064E05E0E36807CC2B430C3CC6
:1005B00098471034B442F7D3FFF784FD808D0008CC
:1005C000A08D000810B5202A06DBCB170846203A7C
:1005D0001041C1170B4306E00B461341D0402024C5
:1005E000A21A91400843194610BD10B5002B08DA35
:1005F0000024401C614192185B411A4301D140081C
:10060000400010BDF0B51FB482B005460C0003D009
:10061000084607F0CDFE02E007F0CAFE2030024691
:10062000009021462846FFF7D4FD049B059A044616
:100630000F4618431143084314D0184610431BD0EB
:10064000009840210A1A18460599FFF7D2FD054681
:100650000E46009A05990498FFF7BBFD084305D0A4
:10066000012004E02046394607B0F0BD0020C11744
:1006700005430E432C43374300990E986305401AF7
:100680007905E40A00220C43FD0A0A3002D5002055
:100690000146E9E70105101969410C9C0D9D0019FF
:1006A0006941FFF7A2FFDFE770B58C180578401CA1
:1006B0006B075B0F01D10378401C2A1106D1027829
:1006C000401C03E006780E70401C491C5B1EF9D1EB
:1006D0002B0705D40023521E0DD40B70491CFAE7DA
:1006E0000378401CCB1A921C03E01D780D70491C46
:1006F0005B1C521EF9D5A142D8D3002070BD00006A
:1007000080B5024800F0A8F880BDC0469C0A0020D1
:1007100080B5024800F0A0F880BDC0467C090020EA
:1007200080B5034800F098F8024800F095F880BDC5
:10073000DC0900203C0A0020EFF3108072B6FEE7CF
:1007400010B502460D4B587A002801D0012010BD8B
:100750005C7A002018555C7AA4001C1962605A7AF1
:100760009A1810725A7A541C5C72C8702F238B70BE
:100770003A234B7030320A7010BDC04694060020F8
:10078000B0B500282AD0014624314A78022A27D160
:10079000046822680E239A432260826C15682D4BF0
:1007A0001D4015602568012295432560446C1C2579
:1007B00025401446AC40056C6C60C46C056D6560EA
:1007C000446D002C05D025681D402560836DC06DEB
:1007D00058604A70002000220A70B0BD0120B0BDF0
:1007E0000422C263012000220A70B0BDB0B50146E8
:1007F00024314A78022A29D103681A680E24A243B8
:100800001A601C68012294431C60846C2568114B9B
:100810001D402560446C1C2525401446AC40056CE9
:100820006C60C46C056D6560446D002C05D0256856
:100830001D402560836DC46D5C6000240C704A709F
:10084000816B002900D088472046B0BD0421C163D8
:100850000120B0BDFFFEFFFFF0B585B0016C039134
:100860000B6806683268042502922A4051425141C1
:100870000490426C18461C2313402F469F403A4672
:100880000240544254410C432ED0019601220227CB
:10089000029E314639404D424D419F4007420092F1
:1008A00000D02A46049C25462435002A2CD0082155
:1008B0000E4077427741D8400007009800D538466F
:1008C00000281FD1019A10680E2188431060012072
:1008D00001469940039A5160E063002129706870D5
:1008E000616B00290CD10DE03068800602D43068BD
:1008F000A843306003984760049C216B002901D015
:100900002046884705B0F0BD019B1868800605D4D5
:1009100018680A2188431860012068700020287038
:10092000054A10467C30834200D9044A1760E16AC8
:100930000029E5D1E6E7C046040002400404024075
:10094000F0B587B0002812D00446014624310220B9
:10095000069148703C480146083126688E4200D214
:100960003A4820648E42039104D33A4803E00120C0
:1009700007B0F0BD3648801914210291FFF70AFC38
:100980008000059060643068334901403160A76899
:10099000E168254610352DCD0195256A049508435B
:1009A00010431843019908430499084331680143EF
:1009B000049739433160294D28468030E064FC209B
:1009C000304008380299FFF7E5FB039FBE4200D391
:1009D000C01D1F22024001210B4693402365BE42E9
:1009E00000D31C3505982D18A5648A031C48049E65
:1009F000964206D100222A606260036015461346C3
:100A000018E062687F2616402E600360531E0022A5
:100A1000032B154613460DD8731E9A008218002525
:100A2000D56703251D400B46AB400E4D2B607C3235
:100A3000BC3005460020E0636265A565E365069A63
:100A40001070517007B0F0BD000402400000024079
:100A5000F8FFFDBFF8FBFDBF0F80FFFF000802405D
:100A60008408024044090240F0B583B004462420C3
:100A7000205C012802D1022003B0F0BD25462435B8
:100A8000012028706E78012E2DD10092022068700E
:100A90000020E06325682A6801260296B2432A6096
:100AA000E26C266D5660626D0192002A02D0A26D42
:100AB000E66D5660226C666C1C273740029EBE4075
:100AC00056606B60A368102B009E324600D00A4629
:100AD000AA60102B00D03146E9602968226B002AF9
:100AE00007D00E220AE0002129708021E16303B0C3
:100AF000F0BD0422914329602A680A21114329602C
:100B000002990902A26C1368DB0302D513680B4338
:100B10001360019B002B02D01A680A431A602968EF
:100B2000029A1143296003B0F0BD0000F0B589B00E
:100B300006900B68002B00D1B6E05C48069A824212
:100B400002D00846052501E0084604250B210907C7
:100B5000069A54180A21CC410094042C00D3009525
:100B600000273E463D463C46014607900EE029439D
:100B7000059D504801600799641C0B681846E040C9
:100B8000BF1C361D0835002800D18DE00120A04093
:100B900003400293F0D0059504960B460326314698
:100BA000B940C9433A465F683D4635406B1E012B4C
:100BB00008910397019211D806998B68089E3340DB
:100BC000079EF66896401E438E60FB06DB0FA3402F
:100BD0004E6886431E434E60089906E0032D04D1FB
:100BE00035460799049E019F1FE0069AD068084089
:100BF00007998B68019FBB400343D360022D049E7D
:100C000013D11C2030400F218140E3089B00069A3D
:100C1000D3181D6A8D4307990969814029431962D8
:100C200007994868032503900540BD40069A10685F
:100C3000089B18402843106003988003800F059D8F
:100C40009AD0182028400A460F21814003232546C8
:100C50009D43174E73191D6E8D43009981402943A2
:100C6000196631685068C30202D5029D294301E02C
:100C7000029DA943049E0E4B19605968830201D559
:100C8000294300E0A9430A4B59600A494968830394
:100C900001D5294300E0A943064B59601968C003F8
:100CA00000D564E7A94363E709B0F0BD0010005028
:100CB000001802408018024042690B4693430A40E4
:100CC0001104C91881617047002A02D0182281508E
:100CD0007047282281507047754800687047C046A9
:100CE000014800687047C0469075FF1F01480068C2
:100CF0007047C0469475FF1F014800687047C046A2
:100D00009875FF1FB0B50246034640335C78022059
:100D1000202C17D11C78012C14D024205870106876
:100D200002680124A243026022030568954305601E
:100D300002680A43026001682143016000201870C4
:100D400020215970B0BDB0B50246034640335C78EF
:100D50000220202C17D11C78012C14D0242058708C
:100D6000106802680124A24302600F221202056883
:100D70009543090229430160016821430160002075
:100D8000187020215970B0BDF0B581B0002822D074
:100D90000446054640356878002804D100202870B4
:100DA000204600F04BF8242068702068026801217A
:100DB0008A4302600F2212066368934303618368CB
:100DC0001C4A13408360A368E668012E06D1CE0357
:100DD000334383600CE0012001B0F0BD2127BF0246
:100DE0003B438360022E03D1CB0246681E4302E0E0
:100DF000CB0246689E43466043680F4E1E434660E2
:100E0000C3681340C360226963691343A269120275
:100E10001A43C260E269236A1343036002680A430B
:100E2000026000206064202169702063A87001B016
:100E3000F0BDC046FF7FFFFF0080000210B586B006
:100E400000681349884201D006B010BD114C2068DB
:100E50000221084320602068084000900620059089
:100E60000020049003901220029018200190009816
:100E7000094801A9FFF75AFE0120C005A1680143F6
:100E8000A160A16801400091009806B010BDC04665
:100E900000880040341002400004005003480078ED
:100EA00003490A68101808607047C0460000002017
:100EB000E83D002010B50124200208490A680243D9
:100EC0000A60032000F00CF8002801D0204610BD75
:100ED00000F052F80024204610BDC0460020024019
:100EE000F0B585B004463348016810221143016013
:100EF000006810400190019801A8694600F0CAFD01
:100F0000049F00F0DFFD174E1749184A3260002594
:100F1000B561B560F1603561791E8F41B840144903
:100F2000FFF738F9401E7060304601F0CCF9002818
:100F300001D005B0F0BD0B4801F0F2F90028F8D15E
:100F4000112000F039F8032C09D8112021462A4637
:100F500000F03EF807480460284605B0F0BD0120C7
:100F600005B0F0BDC00E0020E703000000100040F7
:100F700040420F000400002010B582B00D494A68BD
:100F8000012002434A604A6802400192019A020726
:100F90000B6813430B600968114000910099C0432E
:100FA00003240022214600F013F8600201F07EF9CC
:100FB00002B010BD3C100240002805D41F2108409B
:100FC00001218140014801607047C04600E100E016
:100FD000002805D40322034693430A4A9A1803E0E3
:100FE0000C220240064BD2188007C00E8901C9B2FC
:100FF0008140FF2383401068984308431060704786
:1010000014ED00E000E400E0B0B5B3218A00002157
:10101000815403685C6D01252C435C6580188560F4
:10102000586D022202435A650846B0BDB0B5282467
:101030000D060BD5072529404C4300191430002A12
:101040000BD08360012101730020B0BD4C43001917
:10105000552189004018002AF3D1C3800021017373
:101060000020B0BD10B507220A4049B2002908D4BB
:1010700028215143411855239B00C91800234B7068
:1010800005E028215143411801234B7514310A70A2
:10109000A5229200835C012B01D1022010BD84188F
:1010A00001222270006804F0BFFD0020207010BDF6
:1010B000B0B50F220A4003799A4201D90120B0BD90
:1010C00007220A4049B2002908D428215143411877
:1010D00055239B00C91800234B7005E0282151437C
:1010E000411801234B75143100248C700A70A5221D
:1010F0009200835C012B01D10220B0BD8518012232
:101100002A70006804F0FEFD2C702046B0BD10B5BA
:10111000A5229200835C012B01D1022010BD84180E
:101120000122227000684AB2002A04D405F0A8FC0B
:101130000020207010BD0722114005F0A3FC002004
:10114000207010BD07220A40282151434018172162
:10115000090140587047B0B507240C4049B2002936
:1011600008D42821614341185525AD0049190025AF
:101170004D7005E028216143411801254D7514315A
:101180000A61CB700C70022B01D100220A71A522DA
:101190009200835C012B01D10220B0BD8418012292
:1011A0002270006804F022FC00202070B0BDB0B5B1
:1011B00007240C402821614341185525AD004C55AA
:1011C000491900240D4614351CC54C70006804F004
:1011D000EBFD2046B0BD10B507220A4003799A42C4
:1011E00001D9012010BD4BB2002B08D428234B435A
:1011F000C11855239B00C91800234B7005E0282116
:101200005143411801234B7514310A7001228A7031
:10121000A5239B00C45C012C01D1022010BDC41881
:101220002270006804F0A2FD0020207010BD70B58F
:1012300007250D40282169434118382401260E5501
:1012400000248A62CB620C634B634E750D751431BA
:10125000006804F0A9FD204670BDF0B585B00028F7
:101260001FD00446A520800025186878002804D1E6
:1012700000202870204600F025F903276F702068B1
:1012800004F038FD2079002800D106E10740411E16
:10129000032904950390029107D20021002F46D123
:1012A0006BE00125284605B0F0BD0197FC23034003
:1012B000274654370022114601267E743A603A626E
:1012C0007A62BA62FA743D46173D2E703D46283D5B
:1012D0002A603D462C3D2A603D46303D2A603D4611
:1012E0003D3D2A703D46403D29703D463F3D2E70B4
:1012F0003D1F2A603D46083D2A603D46153D2A7047
:101300003D46183D481C28703846383046708D1CC4
:101310003D74CD1C3826BD55BA64FA643A65C27076
:10132000091DA0379942C7D1019F002F25D028253C
:101330002A464A433846A71800227A62BA62FA62FD
:10134000FA75397501267E750746012815D04F1CA0
:101350002B467B43E3185A629A62DA62DA751F758C
:1013600007465E75022808D0891C4D4363195A62EE
:101370009A62DA62DA7519755E75039E002E049D15
:1013800000D18AE00298032803D20021002F56D111
:1013900083E0792189006218FC210E400023194660
:1013A00010466738037010467838036010467C3862
:1013B000036010468038036010468D380370104675
:1013C0009038017010468F38037010463F38037014
:1013D00010465038036010465438036010465838A1
:1013E0000360104665380370104668384D1C057060
:1013F00010461738037010462838036010462C3802
:10140000036010463038036010463D3803701046C4
:1014100040388D1C05701360101F0360104608389B
:10142000036010461538037010461838CD1C05703F
:10143000091DA032B142B3D1049D002F2DD0282028
:1014400002464A43A21855239B00D1542E46D51874
:1014500000222A616A61AA61EA706A703546012F2A
:101460001BD02E464D1C0197374606466E43A619E3
:10147000F554F5182A616A61AA61EA706A703D46FE
:10148000019E022E09D0891C48432018C154C0185F
:10149000026142618261C27042700FCC2E46257893
:1014A0000095103C04F019FC002565740120707053
:1014B000207B012800D0F5E62046FFF7A5FD284651
:1014C00005B0F0BDB0B594B0044601A8001D482198
:1014D000FEF755FE20681749884201D014B0B0BD10
:1014E00001242006019001A800F088F8002801D00E
:1014F000FFF722F96003104D29680143296029682C
:101500000140009100982868C0000ED42407286884
:1015100020432860286820400090009800F064F87C
:101520002868A043286014B0B0BD00F05DF814B086
:10153000B0BDC046005C00403C100240B0B504465F
:10154000A5208000215C012901D10220B0BD251811
:1015500001202870206805F08BFA206804F0B6FBA3
:1015600000202870B0BD0000F0B581B003256902ED
:101570001A4E3246143A13688B4303431360012416
:1015800061020022884226D1154801683068400572
:1015900021D50092A702062048431249FEF7FAFD22
:1015A000201A022816D0316839420FD0012811D0F4
:1015B000316839420AD000280CD03168394205D050
:1015C000001D032806D031683942EAD1009A10463E
:1015D00001B0F0BD2A46104601B0F0BD14700040C5
:1015E0007000002040420F000120800202490A687A
:1015F00002430A607047C04604700040F0B587B0EF
:101600000446012630020590A07880079F4F04967B
:1016100005D4002003902068C10751D156E030075F
:10162000394618390191096802900140009108D1AA
:10163000019A1068029908431060106808400690EB
:101640000698944E3068059908433060FFF744FBD4
:10165000054630680599084206D1FFF73DFB401B5F
:101660000228F6D903201EE0032003900102B86887
:10167000084011D0216C88420BD0B8680499090445
:10168000BA680A43BA60BA688A43BA6080490840B7
:10169000B860C00700D0EBE0B8687D490840216C15
:1016A0000143B960002003900098002804D1019AFA
:1016B0001068029988431060049E2068C10705D015
:1016C00039680322914362680A433A60810711D462
:1016D000410717D4C1061DD4C10424D481052AD4DE
:1016E000410531D481066C4938D442063DD44204C8
:1016F00044D452E039680C229143A2680A433A600C
:101700004107E7D5396830229143E2680A433A60DD
:10171000C106E1D5032189023A688A432169114350
:101720003960C104DAD53968594A114062690A43FF
:101730003A608105D4D5032189043A688A43A16AB5
:10174000114339604105CDD5032109053A688A4323
:10175000E16A1143396081064F49C6D53A680A40AB
:10176000A36913433B604206C1D5032292033B6841
:101770009343E2691A433A6042040ED53A68474BF4
:101780001A40256B2A433A605A1C954205D132040F
:101790003B46483B1D6815431D60020305D53A686A
:1017A00040239A43636B13433B60B30532068502C3
:1017B0000DD53D689D43A66B35433D609E42049E1A
:1017C00005D13D46483D2E6816432E60049E1842C2
:1017D0000BD03B689343E56B2B433B60954204D1B0
:1017E0003B46483B1D6815431D6003050ED57B68CD
:1017F0000325AB43256A2B437B60012D06D13304BF
:101800003D46483D2E681E432E60049E83040ED53F
:101810007B680C25AB43656A2B437B60042D06D1A6
:1018200033043D46483D2E681E432E60049E104200
:101830000CD073037D680D40616C0D437D6099424F
:1018400004D1394648390B6813430B6080010CD52D
:1018500078680F490840A16C084378600598814278
:1018600003D1483F386810433860039807B0F0BD93
:10187000FFF732FA0646844DB868800700D50BE7BB
:10188000FFF72AFA801BA842F6D90DE75410024050
:10189000FFFCFFFF00700040FFCFFFFFFFFFFF3F97
:1018A000F0B583B00D46012100281BD001910290B4
:1018B0008348006807242040A84216D2804908685F
:1018C000A04328430860704EFFF706FA07467C489D
:1018D00000682040A84208D0FFF7FEF9C01BB042C4
:1018E000F5D90321084603B0F0BD029E3068810798
:1018F0009C4B0CD5410703D521031A680A431A6093
:101900000F2109021A688A43B16811431960C007A0
:101910001BD16B4800682040A8422CD96849086850
:10192000A04328430860584FFFF7D6F9064664489D
:1019300000682040A8421ED0FFF7CEF9801BB842B5
:10194000F5D90321084603B0F0BD0298406803288A
:101950005DD8810001A251588F46C0466D1900081C
:10196000131A00081D1A0008271A0008194608391A
:101970000968490559E0029A10784007794B05D566
:10198000200319688143D0680843186018688006EE
:10199000400F22D01A6838210A407348082A23D001
:1019A0001A680A40102A5ED1596803220A40032AA5
:1019B00000D06E4859684906490F491CFEF7EAFBFA
:1019C000684949684904490E484366494968490FCE
:1019D000491CFEF7DFFB634B06E018460838006839
:1019E0008004410F6148C840196889093C220A40B7
:1019F000264989581F220A40D040394908602448A6
:101A00000068FFF76DFA0146084603B0F0BD596D56
:101A10000AE0194608390968890306E019460839B9
:101A20000968890101E0996D8907019900D459E796
:101A30001968A14301431960134FFFF74DF906469A
:101A4000484800683821014002984068C00081423F
:101A500000D15EE7FFF740F9801BB842F0D90321BF
:101A6000084603B0F0BD18680840202802D10120C4
:101A7000C003B9E718680840182801D00020B3E770
:101A80007D200002B0E7C04688130000C08C00082B
:101A900004000020B0B507220260324B1C681440DD
:101AA00044600F2424021D682540856014031B68D0
:101AB0002340C3600248006810400860B0BDC046C3
:101AC000002002400648006826490968890A1C224D
:101AD0000A40044989581F220A40D0407047C04636
:101AE00070000020008D000810B51E4C2068800694
:101AF000400F06D0226838210A401B48082A07D127
:101B000010BD083C20688004410F1848C84010BD33
:101B100022680A40102A15D1616803220A40032A6C
:101B200000D0124861684906490F491CFEF732FB94
:101B300061684904490E48436168490F491CFEF732
:101B400029FB10BD20680840202802D10120C003D5
:101B500010BD20680840182801D0002010BD7D204D
:101B6000000210BD0810024000127A000024F400A8
:101B7000F0B587B00125002800D13AE20495059020
:101B80000078C007FD4F2DD10598007880074DD40F
:101B90000598007800070DD5B8683821014018294C
:101BA00000D0CEE0386E800704D505988069002803
:101BB00000D1A7E0059A1078400771D4107880060C
:101BC00000D5A3E00598046A002C00D101E2B868B2
:101BD00038210140102900D002E1012C00D071E130
:101BE000049D06E2B868F968032422468A43382136
:101BF00001401020484082185042504101256E0497
:101C0000082943D0002841D1059841682804814221
:101C100008D005221204914200D0FCE0A9043A68E1
:101C20000A433A60396801433960FEE0B9683820F8
:101C3000084010214140FA6803252A4002235340FE
:101C4000CA1851425141002836D0002934D1386891
:101C5000059AD168002900D1F7E00721C90288431D
:101C6000116901433960012001023A680A433A6070
:101C70008402FFF731F806463868204200D006E1BA
:101C8000FFF72AF8801B0228F6D9B2E13868304203
:101C900000D179E705984068002800D074E7A8E1F2
:101CA000B86838210140202962D1F86D800785D5B8
:101CB0009068002882D125E039684905059B02D546
:101CC000D96800291ED07F2109027A688A435969A0
:101CD00009021143796000280DD10720C00239683C
:101CE000814318690843386038688004400FC74949
:101CF000C140C7480160C7480068FFF7F1F80028F5
:101D000000D145E7049D284607B0F0BD38680121A1
:101D1000CC05059AD2698905002A00D1A7E00843BD
:101D20003860FEF7D9FF05463868204200D049E701
:101D3000FEF7D2FF401B0228F6D90325284607B03C
:101D4000F0BD386E05998969002900D1A9E001210B
:101D500008433866FEF7C0FF0646386E800700D598
:101D600028E7FEF7B9FF801B03250228F5D940E1DB
:101D7000012003900107F86B0840029006D1F86B30
:101D80000843F863F86B0840069006980191A24852
:101D90000068C00513D4039804029F4908682043D3
:101DA0000860FEF799FF06469B480068204206D16E
:101DB000FEF792FF801B03250228F5D919E105984B
:101DC0008068964C012806D0052800D0BFE0F86D49
:101DD00004210143F965F86D03990843F865C0E0F3
:101DE000012529063868039188433860FEF774FF9F
:101DF0000646022C00D08FE00295680604903868F1
:101E00000499084200D1BBE0FEF766FF801B032562
:101E10000228F4D9EDE03A6882433A60A8043A68AF
:101E200082433A60002900D181E0FEF755FF054664
:101E30003868304200D0A7E6FEF74EFF401B64280A
:101E4000F6D92546284607B0F0BD01210A02904385
:101E500038608C02FEF740FF06463868204200D109
:101E600096E6FEF739FF801B0228F6D9C1E08843C9
:101E70003860FEF731FF06463868204200D1A1E6FF
:101E8000FEF72AFF801B03250228F5D9B1E07F2049
:101E90000002796881430598406900020843786030
:101EA00076E6012188433866FEF716FF0646386E4F
:101EB000800700D47EE6FEF70FFF801B0325022873
:101EC000F5D996E0F86803210140059C626A9142C9
:101ED00000D017E770210140A26A914200D011E7BB
:101EE0007F2109020140E26A1202914200D009E713
:101EF0001F2149040140226B914200D002E70721D3
:101F00004A060240636B9A42049D72D14907084019
:101F1000A16B88426DD15CE06C063868204254D0D9
:101F2000FEF7DAFE801B03250228F6D961E0FEF7F2
:101F3000D3FE05463868304200D125E6FEF7CCFED8
:101F4000401B6428F6D92546284607B0F0BDF96D38
:101F5000039A9143F965F96D04229143F9650028CC
:101F60003BD0FEF7B9FE0646F86D800744D4FEF775
:101F7000B3FE801B0325A042F6D93AE000100240D0
:101F8000F86828490140059E24367DCE0843104359
:101F900019020143214329433143F9603868039909
:101FA0000843386002980007F9680143F960FEF7BA
:101FB00093FE04463868049908420AD1FEF78CFE65
:101FC000001B03250228F5D913E0F86814490140E5
:101FD000F9600025284607B0F0BDFEF77DFE0646F5
:101FE000F86D800708D5FEF777FE801B0325A04219
:101FF000F6D9284607B0F0BD02980028059A00D00F
:10200000DCE5F86B01998843F863D7E50024F40018
:1020100070000020040000200070004088130000C1
:10202000FCFFFEEE8C80C11170B5002831D0044653
:10203000064628367078002807D10020307011201D
:10204000C0026060204600F057F8022070702068DF
:10205000C168C9064AD4CA21416253214162C1689C
:10206000490618D4C16880220A43C260FEF734FED4
:1020700005462068C16849060DD4FEF72DFE401BB9
:102080007D21C9008842F4D9032070702168CA6894
:102090001AE0012070BD8169164A0A408261A16878
:1020A00062690A43E169114382690A4382612169D5
:1020B0000161E168090402690A430261204601F0F6
:1020C000D9FB2168002802D0FF224A6270BD072098
:1020D00040078A6982438A61206A626A0243A06972
:1020E00010438A6902438A61FF20486201207070B0
:1020F000002070BDBFFF8FFB10B594B0044601A84F
:10210000001D4821FEF73BF820681049884201D0A5
:1021100014B010BD0124600211906004019001A868
:10212000FFF76CFA002801D0FEF706FBE003084930
:102130000A6A02430A62A0020A6802430A60096846
:1021400001400091009814B010BDC0460028004026
:102150003C100240F0B585B000280CD0044605467E
:102160005C3541208600606A002807D0002020618D
:102170002046143007E0012005B0F0BD6068B04291
:1021800003D020461C30002101600027A762687838
:10219000002804D100202870204600F059F80220C1
:1021A0000495019068702068016840229143039073
:1021B0000160E168254A012591422A4600D33A464A
:1021C0001203ED020D430F2738020290854201D021
:1021D0000025A5626568A768354021239B023B4026
:1021E0005B192569019805401D436069012318406A
:1021F0002843FC36A7693E400643E0693825054080
:102200003543206A802606402E435803A56A0540C0
:102210003543039E3560380C042505400298014083
:102220000A432A43606A102101401143606B08226F
:1022300002400A437260D802F1698143F1610020D3
:10224000206604994B7005B0F0BDC0460107000040
:1022500080B586B000681349884201D006B080BDC1
:102260001148C268012103910B031A43C260C2687E
:102270001A400092009A02680A430260006808400F
:102280000090002005900320049002200290E0209E
:10229000019005200007009901A9FEF747FC06B050
:1022A00080BDC04600300140341002400321490285
:1022B000024A13688B4303431360704700000140D8
:1022C000704770477047F0B581B0002824D00446AD
:1022D00005463C3507463E370646443668780028B2
:1022E00004D100202870204600F019F80220687000
:1022F00001CC214602F088FA0120307138707870E4
:10230000B870F8703871787130707070B070F070AB
:102310006870002001B0F0BD012001B0F0BD704731
:1023200010B53D21415C012915D101463D31022204
:102330000A700168C86801221043C86011488142D0
:102340000BDD114881420ED0104881420BD010485D
:10235000814208D010E0012010BD9007814202D0D8
:102360000C48814208D188680B4B03400020062BA3
:1023700006D01404A34203D008681043086000206C
:1023800010BDC046FF07004000080040004001406B
:10239000002C0140000400400700010070470000CD
:1023A000F0B583B004460068C56802272946394065
:1023B0004A424A410169029139404B424B41134321
:1023C00013D16C49FE3101610121217780698007B9
:1023D00003D02046FFF7E2FF05E0204600F0CEF8EC
:1023E000204600F0CCF80020207701260422294660
:1023F00011404842484102994907314600D50146FB
:10240000032000020190002916D10092206859494A
:10241000FC310161277780690199084203D0204689
:10242000FFF7BCFF05E0204600F0A8F8204600F0CA
:10243000A6F800202077009A08272946394048420C
:10244000484102990907314600D50146002913D1B8
:1024500020684849F83101612277C069800703D0BC
:102460002046FFF79BFF05E0204600F087F8204656
:1024700000F085F80020207710212940484248418B
:102480000299C906314600D50146002914D12068B9
:102490003849F03101612777C0690199084203D0BA
:1024A0002046FFF77BFF05E0204600F067F8204656
:1024B00000F065F80020207701212940484248417A
:1024C0000299C907314600D00146002906D120688B
:1024D0002849FF310161204600F052F880272F4043
:1024E000784278414121C901029A0A42314600D01E
:1024F0000146002905D120681F4901612046FFF7E8
:10250000E0FE784278410299C905314600D501467E
:10251000002905D12068174901612046FFF7D0FE48
:10252000402129404842484102994906314600D598
:102530000146002906D120680E49C03101612046BC
:1025400000F02AF820200540684268410299890677
:1025500003D4002E04D003B0F0BD0646002EFAD1FD
:1025600020680449E03101612046FFF7ABFE03B06B
:10257000F0BDC046FFFEFFFF7FDFFFFF70477047E3
:1025800080B500680349884200D080BDFEF786FC14
:1025900080BDC046001000407047B0B58421415C4A
:1025A000012901D10220B0BD0246843224215160AC
:1025B00001680B680C680125AC430C606C07A343F1
:1025C0000B60002141661170202050600846B0BDAC
:1025D00070B504468C202058202810D101200029F5
:1025E00017D0002A15D001252803A368834208D1FB
:1025F000C80706D02069002803D1284670BD0220F4
:1026000070BDE56600262667204602F08BFC002898
:1026100000D070BDE06E01282846FAD12068102154
:102620000162EFF31080012282F3108822681368A0
:102630000B43136080F31088304670BDF0B583B053
:1026400000910446002002902D480068012827DBF5
:102650000221091A0191434203202A4FA526B50001
:102660003968A1421ED01918022919D07A191268A6
:10267000A24219D0019A1218032A11D0F200BA18F6
:102680001268A24212D000290AD01F49791809689D
:10269000A1420CD031017F18001D19180329DDD18A
:1026A00003B0F0BDC01E02E0801E00E0401E009995
:1026B00045431448461929200701F05932180C32B5
:1026C0000D1A706802AB11462A4605F07BFAF059E4
:1026D00040197F210140F15109484068216F0229CA
:1026E00004D1002802D002A905F006F802980028BB
:1026F000D6D0012000070549086003B0F0BDC046F0
:1027000050010020C0100020BC07000004ED00E0D4
:1027100070470000F0B581B0054668352A7F012A70
:1027200002D1022001B0F0BD24222A620668376877
:1027300032680124A243326007225206B3689343F1
:102740000B43B360406E0028204615D00097B76851
:10275000B068400F2B49095C2B4A105CC000FDF7A4
:1027600019FD04463801009F400F2649095C264A9E
:10277000105CC000FDF70EFD28806C8037600020E3
:1027800028772021296201B0F0BDC046F0B581B0A4
:10279000054668352A7F012A02D1022001B0F0BD2A
:1027A00024222A620668376832680124A243326014
:1027B00007225207B36893430B43B360406E00286F
:1027C000204615D00097B768B068400F0D49095CE6
:1027D0000D4A105CC000FDF7DDFC04463801009F87
:1027E000400F0849095C084A105CC000FDF7D2FCA4
:1027F00028806C803760002028772021296201B072
:10280000F0BDC046648D00085C8D000870477047BD
:1028100070470000F0B58BB003460268D4692027EA
:102820000125EE0231462F312140106809935C33B7
:10283000089306929268202905970A9407920FD16F
:102840000146394001231B071340C918044616D01E
:102850000998416F002900D109E288470BB0F0BD0B
:1028600031460F310C42044609D02B46CE49214057
:102870002D076F1C079A1740791800D099E0102295
:102880000494214611404B424B410A9E314611406F
:102890004C424C4109980746C16E491E4D1EA94144
:1028A000214319433FD001250124A1050798014088
:1028B0004B424B413046F1022946069A00D5194653
:1028C0000029059E00D105E1010608D58021049A62
:1028D0001140E205079B1340C91800D0B0E1402227
:1028E000049911404B424B414106294600D51946F7
:1028F000002900D145E1A107049A11404A424A410A
:102900000102294600D51146002900D1A4E104990D
:10291000002900DBA5E10024C10100D5A4E1002DC0
:1029200000D0A4E1A5E10698026280681646400640
:1029300000D5D6E008994B8808884A88002A00D13B
:1029400095E1984200D192E10A93EFF310830122BE
:1029500082F310880924640139463D682F68A74333
:102960002F6083F31088EFF3108382F310880C68D4
:10297000A568C24F2F40A76083F31088059B089C71
:10298000236300234B67CB66EFF3108382F3108839
:102990000A681468B443146083F3108802220A673B
:1029A0000A9A801A82B208461146FFF747FE0BB01A
:1029B000F0BD0297019503960A991E4619404B42B5
:1029C0004B41310221404D424D411D43069A05D1F4
:1029D00001211162089D6B6B0B436B630120079F04
:1029E0003B46049003405D425D410A9881073146B1
:1029F00000D52946002906D1022111620898416BB1
:102A000004250D4345635D425D410A984107314607
:102A10000ED5294600290DD1042111620898416B79
:102A200002230B4343630A980107099D15D505E06E
:102A30000029F1D00A980107099D0ED50298411E80
:102A40008841A106314600D40146012905D108215B
:102A500011620898436B0B4343630498810621403D
:102A60004B424B410A98039908420DD01E46002E56
:102A7000089E0CD103981062716B05980143716335
:102A8000716B002907D1F2E0002E089EF2D0716B25
:102A9000002900D1EBE005980A9901400AD001997C
:102AA0000F4004403C4305D0696F002902D02846FE
:102AB00088472A68706B28210140926840200240B4
:102AC000511800D072E02846FFF7A2FE0020706384
:102AD0000BB0F0BD210511623846FFF798FE0BB030
:102AE000F0BD089C606A006841688AB2002A00D183
:102AF000BDE023889A4200D3B9E03D46618000687A
:102B0000800633D4EFF31081012080F310885D4AF2
:102B100020322B681C6814401C6081F31088EFF38E
:102B2000108180F310882A6893688343936081F34F
:102B30001088EFF3108180F310882A68936840248E
:102B4000A343089C936081F31088059921630021B9
:102B5000E966EFF3108180F3108828680268B243B9
:102B6000026081F31088606AFDF70AFE0220286780
:102B700020886188401A81B22846FFF75FFD0BB0BC
:102B8000F0BDEFF3108084F3108839680B6893432D
:102B90000B6080F310880021B9670899CE6238462F
:102BA00000F0E0F90BB0F0BD20010004EFF310815C
:102BB000049E86F31088092252012B681C689443F6
:102BC0001C6081F31088EFF3108186F310882A6867
:102BD00093682A4C1C40946081F31088E96E0129A7
:102BE0000BD1EFF31081049A82F310882A681368DE
:102BF0001024A343136081F31088089C0599216376
:102C00000021E96669672968896849061FD5EFF3DD
:102C10001081049A82F310882A6893688343936032
:102C200081F31088606A002811D015498163FDF78F
:102C3000DDFD00281BD0606A816B88470BB0F0BDBA
:102C4000B96F002913D0384688470BB0F0BD28462D
:102C5000FFF7DEFD0BB0F0BD3846FFF7D7FD0BB038
:102C6000F0BDC10100D45AE62546002D01D00BB0BD
:102C7000F0BD3846FFF74CFD0BB0F0BDFEFFFFEF97
:102C8000994A0008DFFEFFFFB0B5002830D00446A7
:102C9000054684356868002804D100202870204645
:102CA00000F028F824206860206801680125A94305
:102CB0000160A06A002802D0204601F021FE2046D3
:102CC00001F0E4FF012811D00920C00221684A6800
:102CD00082434A6088682A229043886008680122FB
:102CE00002430A60204601F075FE05462846B0BD45
:102CF0000120B0BDF0B59BB0044600261A96199687
:102D000018961796169603A84C21FDF738FA0194E9
:102D100020685D49884255D05C49884200D0B1E0C6
:102D20000225039503A8FEF769FC002801D0FDF7F2
:102D300003FD5748816801271A977A04114381607F
:102D4000816811400291029901683943016000686D
:102D5000384002901996189617950C2016900298F4
:102D60000520000716A9FDF7E1FE38034E4D286245
:102D70002020802734214A4C2C606960AE60EE60D0
:102D80002F616E61AE61E8612846FDF7D9FD00282C
:102D900001D0FDF7D1FC0198C551A862434D102028
:102DA00035212E6214342C60696029460831C1C176
:102DB0006E61AE61EE612846FDF7C2FD1C2600285B
:102DC00053D154E00425039503A8FEF717FC00280F
:102DD00001D0FDF7B1FC0127B8042D498A680243F0
:102DE0008A608A68024002920298022017900A685C
:102DF00002430A600968014002911A9519961896D3
:102E0000244816900298244816A9FDF78FFE38032F
:102E1000224D2862202080273621214C224628324C
:102E20002A606960AE60EE602F616E61AE61E8613C
:102E30002846FDF785FD002801D0FDF77DFC0198AF
:102E4000C551A862174D102037212E623C342C60EA
:102E5000696029460831C1C16E61AE61EE612846E4
:102E6000FDF76EFD1D26002801D0FDF765FC0198D9
:102E7000A862C567032100223046FEF7A9F8304654
:102E8000FEF79AF81BB0F0BD004800400044004037
:102E90003410024004080000000400503C0A0020E6
:102EA000080002409C0A00207C090020DC09002068
:102EB00070477047F0B581B0044606465436706BD3
:102EC000202813D1012500290DD01346002A0AD04D
:102ED00001273803A26882420CD1C8070AD02069B2
:102EE000002807D13D46284601B0F0BD02252846FE
:102EF00001B0F0BD73800025F5633380216521208A
:102F00007063E06F002814D0154AC262134A02634E
:102F1000114A4263856322682832FDF7A5FD002827
:102F200007D01020F063202070633D46284601B092
:102F3000F0BD206840210162EFF31080012181F390
:102F4000108821688A68802313438B6080F310887F
:102F5000284601B0F0BDC046B14A0008834C0008C5
:102F6000394C0008F0B585B0039000200290049021
:102F7000344A1268012A31DB0223981A0090504229
:102F800001900325304CA5239A002168039EB1428D
:102F900026D001984619022E20D0A7183968039828
:102FA000814220D000984119032917D0D900671811
:102FB00039680398814218D0002E0FD02348271873
:102FC00039680398814212D0190164182D1D0198A7
:102FD00041190298001D02900329D4D105B0F0BD1B
:102FE0002746029806E0012102E0681E02E0032164
:102FF00002980843424314488618B06834468C341B
:1030000001256A0204AB214604F028FD002809D0FE
:10301000396882B208462146FFF74CFF0498002821
:103020000BD1DBE7A320840004F0F6F90021315531
:1030300004F053FA04980028D0D028070449086007
:1030400005B0F0BD50010020C0100020BC070000FA
:1030500004ED00E07047FEE770B50446B52080003F
:103060002058800020180B2189014558002D16D0CA
:103070004320C00028180179002911D0EC4E317886
:10308000204602F0F1F9687A022808D1317820460A
:1030900002F0EAF9E7480178204602F0E5F970BD50
:1030A00000680028EAD0687A0028E7D1E148017872
:1030B000204602F0D9F9E1E7B0B50446B52080001A
:1030C0002058800020180B2292018558002D2AD00C
:1030D000687A02280AD1EA480178204602F0C4F949
:1030E000D4480178204602F0BFF9B0BD49B20029AA
:1030F00019D5012817D0232000012A1801201073A8
:10310000CA48106000202872DD4801780D2320464F
:1031100002F0CAF9212000012A18C64801781F23AD
:10312000204602F091F9B0BDF0B581B00446B5205B
:103130008600A059800020180B218F01C559002D51
:103140002AD023200201287AC11E022916D2AA18E9
:1031500000201073B548106000202872C84801781C
:103160000D23204602F0A0F9212000012A18B148C1
:1031700001781F23204602F067F90DE002280BD1E9
:103180000B482818674900926A180178204600F019
:10319000E5FB0099002801D401B0F0BDA01900683A
:1031A00080002018C559002DF6D06A180120D0E7FC
:1031B0001D020000F0B581B00446B5208000215802
:1031C000890061180B229701CD59002D53D0211889
:1031D00021200201AE18287A012842D000284AD1C5
:1031E00000917068B1687062B162924801782046BF
:1031F00002F0D0F81F280CD130684B49884208D122
:10320000717B012905D81020C043B27B113A82425C
:103210005FD8717B05222023204601F09FFA02200F
:1032200068720098006880002018C559002D22D0CF
:103230004320C0002818017900293ED0904E3178F3
:10324000204602F011F9687A022814D1317820461C
:1032500002F00AF977480178204602F005F901B03A
:10326000F0BD00922F482A180D46717B204600F0D1
:1032700075FB002801D401B0F0BD29462868800004
:103280002018C559002DF6D0232000012A1801204E
:1032900010736648106000202872794801780D2369
:1032A000204602F001F900982A18624801781F238D
:1032B000204602F0C9F801B0F0BD00680028BDD07A
:1032C000687A0028BAD15B480178204602F0CCF831
:1032D000B4E714482A18204600F040FB297A002859
:1032E0000CD4481E0328C6D3EA68002A13D0103530
:1032F0002046294600F0A0F801B0F0BD052905D10F
:103300000121204600F06EF801B0F0BD2046FFF725
:10331000A3FE01B0F0BD0021204600F063F801B02B
:10332000F0BDC0461F02000055534243B52189003D
:103330004158890040180B2189014058002801D0CC
:10334000002101727047000070B50446B52080006E
:103350002058800021180B2080010D58002D1DD011
:10336000132040012A180020288190701080B1227B
:1033700092008958096888472E4E3178204601F01E
:10338000F9FF3F480178204601F0F4FF21200001B9
:103390002A1831781F23204602F056F870BDC04627
:1033A00070B50446B52080002058800020180B21FD
:1033B00089014558002D14D0012000022881304891
:1033C0000178204601F0B6FF1A4E3178204601F010
:1033D000B1FF212000012A1831781F23204602F076
:1033E00033F870BDB0B50446B52080002058800089
:1033F00020180B2292018558002D16D023200001A1
:103400002A18117309481060002028721C4801789E
:103410000D23204602F048F8212000012A18054813
:1034200001781F23204602F00FF8B0BD55534253D8
:10343000080000200900002070B50C46B521890065
:103440004158890041180B239B01C958002915D008
:103450004323DB00CB188F25AD004D1900262E70BD
:103460001D6AAD1A1D6204250D721B68934200D3BC
:10347000134603490978224602F016F870BDC0468B
:103480000800002070B582B0134801680122114382
:10349000016000681040019001980926032400256E
:1034A000304621462A46FDF793FD3046FDF784FD60
:1034B0000A26304621462A46FDF78AFD3046FDF7AA
:1034C0007BFD0B26304621462A46FDF781FD30461E
:1034D000FDF772FD02B070BD3810024010B5074C08
:1034E000611C0748FDF72CF901460020002901D096
:1034F000C04310BD0121217010BDC046480100200D
:103500002C010020B0B586B006A101A8024618C95A
:1035100018C238C938C2002103F03FFC06490860D0
:1035200006B0B0BD6C8D0008C54700080000000063
:10353000000000004000000090060020F0B589B0B7
:103540000024089435480168042211430160016891
:103550001140039103990168202211430160016821
:103560001140039103990168012529430160016815
:103570002940039103990168022211430160006808
:1035800010400390039805200007029011210E01BE
:1035900031462246FDF798FB214822492246FDF795
:1035A00093FB2148402101912246FDF78DFB0794B2
:1035B00006940595049604AF02983946FDF7B6FACD
:1035C0000320079006950595049515483946FDF7A3
:1035D000ADFA069405941548049011483946FDF754
:1035E000A5FA0794069405951920800204900C48CA
:1035F0003946FDF79BFA06940594F0360496029836
:103600003946FDF793FA07940694059501980490BE
:1036100005483946FDF78AFA09B0F0BD341002407A
:103620000004005001640000000800500210000077
:1036300010B5124800210122114B124C0460436066
:103640008160C260016141618161C1610162FDF718
:103650009BFB002801D0FDF76FF808480021FDF71B
:1036600051FB002801D0FDF767F804480021FDF761
:103670006AFB002801D0FDF75FF810BDFC0A0020AE
:10368000B57DB1100088004010B50B480021FF2225
:103690007F230A4C04600124A4078160C360026197
:1036A00041618161C16104624162FEF7BDFC002895
:1036B00001D0FDF741F810BD300E00200028004079
:1036C00010B50F4800210F4A082307240162416208
:1036D0008162C4620163436323024124A40014C0D5
:1036E000FC34016043608160C1600461416108385D
:1036F000FEF730FD002801D0FDF71EF810BDC046D2
:103700005C0E00200030014010B5174800210C224B
:10371000164B016241628162E124640218C00160BB
:1037200041608160C260016141610838FFF7ACFA15
:10373000002801D0FDF700F80B480021FFF726F81C
:10374000002801D0FCF7F8FF07480021FEF7E2FF50
:10375000002801D0FCF7F0FF0348FEF71EFF002809
:1037600001D0FCF7E9FF10BD0C0F00200044004021
:1037700010B5174800210C22164B0162416281628C
:10378000E124640218C0016041608160C26001618F
:1037900041610838FFF778FA002801D0FCF7CCFF28
:1037A0000B480021FEF7F2FF002801D0FCF7C4FF10
:1037B00007480021FEF7AEFF002801D0FCF7BCFF50
:1037C0000348FEF7EAFE002801D0FCF7B5FF10BD64
:1037D000A00F00200048004080B51048104900228A
:1037E00001F093FD002801D0FCF7A6FF0B480D491E
:1037F00002F0D3F8002801D0FCF79EFF07480A49E1
:1038000001F0A6FF002801D0FCF796FF034802F064
:10381000E3F8002801D0FCF78FFF80BDA006002050
:103820000C00002078000020F0000020FEE70000DF
:10383000EFF309800E4B1A6820381060F0C0444640
:103840004D4656465F46F0C008B572B603F0D4FF49
:1038500062B60CBC116808681030F0C8A046A946D2
:10386000B246BB4680F309882038F0C81847C046E6
:1038700058010020F0B581B00446204E30460C3887
:1038800001688022914301607D20C7003068800676
:103890001B4812D42168C860FDF71EFA054620684F
:1038A000C068800620D4FDF717FA401BB842F6D94D
:1038B00029210320605401B0F0BD3168202200921C
:1038C000914331602168C860FDF706FA054620681B
:1038D000C06880060BD4FDF7FFF9401BB842F6D94B
:1038E00029210320605403E0002001B0F0BD002036
:1038F0003168009A1143316001B0F0BD18280040D2
:103900005F000100B0B5B521890041588900401819
:103910000B2189014458FF20002C18D04D21C900EB
:1039200061189A1809688A4213D90B4961180A78F4
:10393000D300E3180924A40105251D551B192124D2
:103940009C80521CD3B2042B00D100220A7040B2DA
:10395000B0BD002040B2B0BD61020000F0B589B03A
:10396000174606910646B520810070588000301831
:103970000B2294010559FF23002D01D100F0AFFC6B
:1039800072184321C900691804911321490169186B
:10399000059139789D29039200DD7CE05A2900D9F0
:1039A0006DE249007944898849008F445A006802D1
:1039B0006802B3006802680268026802680268026E
:1039C00068026802680268026802680268026802A7
:1039D000E000680268026802680268026802680221
:1039E00017013D01680268025A0168026802680214
:1039F000680264016802920168026802BB01680201
:103A0000D8016802680268026802E401680268027C
:103A10006802680268026802680268026802680256
:103A20006802680268026802680268026802680246
:103A30006802680268026802680268026802680236
:103A40006802680268026802680268026802680226
:103A50006802680268026802680268026802680216
:103A6000020204990968002900D142E21C46059E21
:103A70007078C10069180922920105238B548918B6
:103A800020228A80401CC1B2042900D10020234694
:103A9000707000F024FC9E2900D1B0E1A82900D16B
:103AA000DEE1AA2900D0EAE1297A002900D05AE112
:103AB000049A1168002900D18EE302930421515623
:103AC000002900D5F2E3B1218900019140588168B5
:103AD0000698884703990968002801D100F082FC04
:103AE000880030180059002801D100F09CFCF649EC
:103AF000445CE200821809239B010226D654641C10
:103B0000E6B2042E00D100244454D0183A2181801A
:103B100000F089FC04980068002800D10CE22846D7
:103B200011301121FCF72BFB0C20E8757020287454
:103B3000059C2278607882420ED0D0002818092196
:103B40008901435CAB74521CD3B2042B00D1002218
:103B5000227040188088A8831220E86038790023FA
:103B6000122800D9BBE3E86058B209B0F0BD04994F
:103B70000968002900D1F2E17978C907059E00D0D3
:103B800038E22421069A5143B12292008058C0693C
:103B9000401801794A1D39798A4200D30A46EA6001
:103BA0000023002A00D19AE3029303241440531EF9
:103BB000002C00D18FE3C15CEE183174012C194642
:103BC00000D189E3911E465C6F183E74022C00D12F
:103BD00082E3D11E425C6C1822747DE33979172987
:103BE00000D31721E9600023002900D177E31C46A8
:103BF00003230B404A1E002B00D106E2A818CC4E2E
:103C0000B65C0674012B104600D1FFE1881E2E1809
:103C1000C74F3F5C3774C64E022B00D1F6E1C81E79
:103C20002918335C0B74F1E13879059EB1780129CC
:103C300000D039E103210840022800D036E11C46BB
:103C40007078C10069180922920105238B548918E4
:103C500024228A80401CC1B2042900D010E3002035
:103C60000EE338790023EB60411E88410599887086
:103C700058B209B0F0BDB12189004058436807A986
:103C800008AA06989847002804D105988078022849
:103C900000D0F2E103980068800030180059FF233B
:103CA000002800D11BE31E46A049445CE2008218B4
:103CB00009239B010225D554641CE5B2042D00D1D3
:103CC00000244454D0183A218180334658B209B0B8
:103CD000F0BD0293B121890040584368059807461A
:103CE0000837021D0698394606929847002800D0EA
:103CF00099E005988078022800D194E00023AB82F7
:103D00000820E8603868401EE8740699098849BAB6
:103D1000E982010AA974010C6974000E287458B272
:103D200009B0F0BD297A002900D09DE00421049A51
:103D30005156002900D525E21C46059E7078C10029
:103D400069180922920105238B54891820228A8040
:103D5000401CC1B2042900D092E2002090E2297AEE
:103D6000002900D10EE13046069900F07BFC0346A5
:103D700058B209B0F0BD7878800700D5A6E0059E5E
:103D80003246083207CA5118814200D897E01C46D3
:103D90007078C10069180922920105238B54891893
:103DA00021228A80401CC1B2042900D068E2002090
:103DB00066E2397A1B2900D31B21E9600023002920
:103DC00000D18CE21C4603230B404A1E002B00D17D
:103DD00037E1A818574EB65C0674012B104600D187
:103DE00030E1881E2E18534F3F5C3774514E022B22
:103DF00000D127E1C81E2918335C0B7422E102931D
:103E0000B121890040584368059801460831021DD8
:103E10000698049106929847002804D10598807866
:103E2000022800D065E1039800688000301800592E
:103E3000002800D1A2E33D49445CE2008218092336
:103E40009B010225D554641CE5B2042D00D1002449
:103E50004454D0183A218180029B58B209B0F0BD79
:103E6000297A002900D1ABE001204002E860304609
:103E7000069900F089FB034658B209B0F0BD1C4614
:103E8000059E7078C10069180922920105238B54A0
:103E900002236B72891820228A80401CC1B2042937
:103EA00000D0EDE10020EBE10321084000210128D2
:103EB00004D0032802D0022801D10221B1700023CE
:103EC000EB6058B209B0F0BD610200001C46059ECF
:103ED0007078C10069180922920105238B54891852
:103EE00024228A80401CC1B2042900D0C8E10020ED
:103EF000C6E10293059FB978022900D0D6E0787810
:103F0000C10069180922920102238B5405232B72E8
:103F100089183A228A80401CC1B2042900D10020AD
:103F2000029B787058B209B0F0BDC0466102000033
:103F3000470000202C0000201C46059E7078C10020
:103F400069180922920105238B54891820228A803E
:103F5000401CC1B2042900D092E1002090E11C462F
:103F6000059E7078C10069180922920105238B54BF
:103F7000891820228A80401CC1B2042900D07FE128
:103F800000207DE1049A1168002900D112E102931A
:103F900004215156002900D577E1B1218900019112
:103FA000405881680698884703990968002800D11D
:103FB000EEE1880030180059002800D03BE7DDE230
:103FC00001940421049C6156002900D516E11C4689
:103FD000059E7078C10069180922920105238B544F
:103FE000891820228A80401CC1B2042900D047E1F0
:103FF000002045E1B878802800D11AE1002800D0DF
:104000002EE10620E860F3481AE10846032A234619
:1040100000D264E1F049091F002217462B180C1842
:10402000E678DE73A6789E7364785C730C5C1C7310
:10403000091F2D1F121D9042F0D13B4658B209B006
:10404000F0BD0846032A234600D248E1E349091F90
:10405000002217462B180C18E678DE73A6789E739C
:1040600064785C730C5C1C73091F2D1F121D904239
:10407000F0D13B4658B209B0F0BD0023AB746B746D
:104080002B740820E874022028830C20E86007982D
:10409000401EE875089949BA6983010AA975010C9F
:1040A0006975000E287558B209B0F0BDB1218900BC
:1040B0004058816806988847002800D1FFE6039899
:1040C0000068800030180059002800D1ABE1C449D5
:1040D000445CE200821809239B010226D654641C2A
:1040E000E6B2042E00D100244454D0183A21818035
:1040F00099E1B87A0006F97A09040818397B0902AF
:104100004018797B4018E8601ED000210B460A4613
:10411000EB18197401231343DBB2984214D9EC183D
:104120000023237402241443E4B2A0420CD92C19B6
:10413000237403241443E4B2A04205D92C19237438
:10414000121DD3B29842E3D800232B830498006851
:10415000401EE8750699098849BA6983010AA9755C
:10416000010C6975000E2875B87A0006F97A090401
:104170000818397B09024018797B4018E86058B26A
:1041800009B0F0BD0293059A9178022900D0BFE0F2
:104190005078C100691814460922920102238B54F9
:1041A00089183A228A80401CC1B2042921463BD199
:1041B000002039E01C46059E7078C100691809226C
:1041C000920105238B54891820228A80401CC1B299
:1041D000042955D1002053E01C46059E7078C1008B
:1041E00069180922920105238B54891820228A809C
:1041F000401CC1B2042943D1002041E00293059C38
:10420000A178022900D0B0E06078C10069180922C5
:10421000920102238B5489183A228A80401CC1B231
:104220000429214600D10020029B487058B209B0F1
:10423000F0BD0820E860D348C179E9758179A97596
:104240004179697501792975C178E9748178A97412
:104250004178697400782874002358B209B0F0BD21
:104260001C467078C10069180922920105238B54FD
:10427000891824228A80401CC1B2042900D1002060
:104280002346707058B209B0F0BD059C6078C1003B
:1042900069180922920105238B54891820228A80EB
:1042A000401CC1B2042911D100200FE0059C6078A8
:1042B000C10069180922920105238B548918202214
:1042C0008A80401CC1B2042900D10020029B60708A
:1042D00058B209B0F0BD1146032B029B02D258B26E
:1042E00009B0F0BD001F002217466B184418E6788D
:1042F000DE73A6789E7364785C73445C1C73001F45
:104300002D1F121D9142F0D13B4658B209B0F0BDAD
:10431000B12189004058816806988847002800D05C
:1043200081E5B8780006F978090408183979090296
:10433000401879794218059BDA60387AF9791F4676
:1043400009020B183B6130460699FFF7DBFA00289B
:1043500000D513E1B8883969414304980068884260
:1043600000D0ECE0022028727EE5B121890040589F
:104370008168069C2046884700285AD00398006828
:104380008000301801994058002800D053E5F5E02E
:104390008800301801994058C1680698884700285D
:1043A00071D003980068800030180059002800D1AF
:1043B000E4E0F949445CE200821809239B010225EC
:1043C000D554641CE5B2042D00D100244454D01807
:1043D000272140E55E000020470000202C0000203F
:1043E000610200008800301801994058C1680698A1
:1043F000884700286DD00398006880003018005965
:10440000002810D0E449445CE200821809239B0193
:104410000226D654641CE6B2042E00D10024445473
:10442000D0182721818005202872029B58B209B03C
:10443000F0BDB8780006F97809040818397909023E
:10444000401879794218059BDA60B8790006F97945
:1044500009040818397A09024018797A1F46431866
:104460003B6130462146FFF74DFA0028019A00D5FE
:1044700084E0B8883969414304980068884276D15D
:1044800002202872F0E4B8780006F97809040818C8
:1044900039790902401879794218059BDA60387A2F
:1044A000F9791F4609020B183B6130460699FFF760
:1044B00029FA002862D4B8883B694343049800680D
:1044C00098423CD101202872400283422CD30346FB
:1044D0002AE0B8780006F978090408183979090241
:1044E000401879794218059BDA60B8790006F979A5
:1044F00009040818397A09024018797A1F464318C6
:104500003B6130460699FFF7FDF9002836D4B8889C
:104510003B69434304980068984210D101202872F7
:104520004002834200D303468B4801781035304661
:104530002A4600F089FF002358B209B0F0BD039865
:104540000068800030180059002817D09249445C58
:10455000E200821809239B010525D554641CE5B2AD
:10456000042D00D100244454D018202173E4039872
:1045700000688000301880580028E7D1029B58B2AC
:1045800009B0F0BD64000020F0B587B0B5229300FB
:10459000C258920084180B2295016759FF22002F00
:1045A0003BD0049006910295039301924721C900E4
:1045B0007D18B1218900605800690590A98DAE6B06
:1045C0004E4301204002864200D306463046FBF7A8
:1045D000E1FD03466A6B0097103706983946059C43
:1045E000A04700281CD41E48017804983A46334658
:1045F00000F05AFF2868801B2860B0B2A98DFBF735
:10460000C9FD696B09186963A96B0A1AAA630022BC
:10461000814202D103200099087250B207B0F0BD68
:1046200003980499081800688000081802994058F7
:10463000002810D05849445CE200821809239B01ED
:104640000425D554641CE5B2042D00D10024445443
:10465000D01811218180019A50B207B0F0BDC04638
:1046600008000020F0B587B0B522920083589B0067
:10467000C5180B239B01EE58FF24002E35D0049063
:1046800006910293039201944721C9007718B12142
:104690008900685840690590B98DBC6B4C43012076
:1046A00000904002844200D304462046FBF772FD8E
:1046B00003467A6B103606983146059DA8470028B8
:1046C00016D43868001B3860A0B2BC8D2146FBF7B9
:1046D00061FD796B09187963B96B081AB86326D143
:1046E000002404982146FEF77DFE60B207B0F0BDBD
:1046F0000398049908180068800008180299405827
:10470000002825D02449445CE200821809239B013B
:104710000425D554641CE5B2042D00D10024445472
:10472000D01803218180019C60B207B0F0BD4443E2
:10473000009841028C42049800D30C46064909783F
:104740003246234600F080FE002460B207B0F0BD80
:10475000019C60B207B0F0BD09000020F0B5B521A2
:1047600089004158890040180B21890140580028D0
:1047700011D00949465CF40004190925AD016255C0
:10478000761CF7B20022042F174600D03746475454
:10479000601942710371F0BD610200000120430203
:1047A000138000040860002070470020704700203C
:1047B000704700207047002070470020704700209D
:1047C00070477047FFF708F8012002F0D9FAFBE7BD
:1047D00010B502F021FE044603F05CFC002803D073
:1047E0000120000702490860204602F076FE10BD55
:1047F00004ED00E07047000080B50248FDF7D0FDF1
:1048000080BDC046C00E002010B50468314B9842F0
:1048100007DC01229207904209D0314A904206D02B
:104820001DE02D4A904202D02C4A904217D17022AE
:1048300094434A6822432B4CA04214DC984207DC84
:1048400001239B0798421ED0254B98421BD03EE087
:10485000224B984217D0284B984214D037E022467A
:10486000204CA042EADD204B984206DC1A4B9842CD
:1048700009D0204B984206D029E01C4B984202D028
:104880001B4B984223D103231B029A43CB6813434B
:10489000802293434A691A4302608A68C2620A68A6
:1048A0008262164A82180A23DA41072A06D80123AF
:1048B0009340E122134201D0096901630121416162
:1048C0000269D20702D002698A43026110BD134611
:1048D000DEE7C046FF070040002C01400008004012
:1048E00000040040FF2B0140FF430140004801400D
:1048F00000440140004001400020004000D4FEBFC1
:10490000B0B5816A0A070CD4CA0714D18A071CD42F
:104910004A0724D4CA062CD48A0634D44A063CD486
:104920004CE00122D20303685C689443826B22430B
:104930005A60CA07EAD00122520403685C689443B3
:10494000C26A22435A608A07E2D501221204036830
:104950005C689443026B22435A604A07DAD501220D
:10496000920403685C689443426B22435A60CA060F
:10497000D2D50122120303689C689443C26B224380
:104980009A608A06CAD50122520303689C68944340
:10499000026C22439A604A0610D501221305026870
:1049A00054689C43456C2C4354609D4206D10323BC
:1049B0005B0554689C43836C23435360090607D509
:1049C0000121C904026853688B43C06C18435060CE
:1049D000B0BD0000F0B583B004460646843600271B
:1049E000F760FCF779F903462068016809071FD5CD
:1049F00028480090012002904105002220461D46D3
:104A000000F0E4FA002811D0EFF31080029981F34E
:104A1000108821680A6880239A430A6080F310880E
:104A2000202070600320377003B0F0BD20682B4653
:104A30000068400725D5174800900125A9050022E8
:104A4000204600F0C3FA00281BD0EFF3108085F356
:104A5000108809214901226813688B43136080F391
:104A60001088EFF3108085F3108821688A68AA43C4
:104A70008A6080F310882020B0600320377003B074
:104A8000F0BD20207060B060E76627673846377059
:104A900003B0F0BDFFFFFF0180B5806A01465631CB
:104AA00000220A8156214252FDF7B2FE80BD00006D
:104AB000F0B581B0806A88214558014688314F6839
:104AC000024656320468A668360621D5212D1FD12C
:104AD00000241480EFF310830093012585F31088E0
:104AE00006683C463768C0239F4337602746009BD3
:104AF00083F31088EFF3108385F31088EC050568C5
:104B0000AE68A643AE6083F3108820230B60046870
:104B1000A3685B062DD5222F2BD100231381EFF341
:104B20001084012282F3108809256D010668376818
:104B3000AF43376084F31088EFF3108482F310885A
:104B40000568AE680F4F3740AF6084F31088C46EBD
:104B5000012C0AD1EFF3108482F3108802681568E3
:104B60001026B543156084F3108820224A604367FD
:104B7000C3668A68102313438B60FDF749FE01B0BA
:104B8000F0BDC046FEFFFFEF70B50146806A0246E9
:104B90005C3209680968890632D400215180EFF33C
:104BA0001083012181F310880C0205682E68A6434A
:104BB0002E6083F31088EFF3108381F3108804686C
:104BC000A5688D43A56083F31088EFF3108381F30C
:104BD00010880468A5684026B543A56083F3108853
:104BE00020231363C36E012B0AD1EFF3108381F3EB
:104BF000108801680C681025AC430C6083F31088A2
:104C000000210167C16E012903D11188FDF716FD4E
:104C100070BDFEF74DF970BD80B5806A0121016756
:104C2000C16E012905D15C21415A4908FDF706FDF5
:104C300080BDFEF73EF980BDB0B50146806A0968C7
:104C4000096889061AD4562100224252EFF31081D6
:104C5000012282F3108803689C688025AC439C6025
:104C600081F31088EFF3108182F3108800680268E6
:104C700040231343036081F31088B0BDFEF772F93F
:104C8000B0BD80B5806AFEF7E5F980BDF0B583B0B0
:104C90000446026810688B490140A06823690343F9
:104CA00065691D430D43E7693D431560032001031A
:104CB00053688B43E168194351600126B3021343E3
:104CC000A56981498B420190029701D1294601E0F3
:104CD000216A29432046683095687C4F2F400F4356
:104CE0009760D56A0F218D43616A0D43D562002517
:104CF000774FBA420DDC7B4FBA421FDC7C4DAA4293
:104D00002ED07C4DAA42074652D17B4A1268120926
:104D10002AE0704FBA4219DC714DAA42074628D0EA
:104D20006948824244D1744800688005820F734804
:104D30007A4412795200974433276C6A6A4FBA4218
:104D400028D06A4FBA42074625D031E0624FBA42B6
:104D5000074620D0614DAA422AD1674A126803E073
:104D6000654A1268920807469207120F64A39D587D
:104D700023E0614800680005820F60487A44127998
:104D8000520097440D014644FCF7AEFE00280BD1BB
:104D900000268FE007464C4883420ED1002E05D0F6
:104DA000FCF790FE0028F3D0616A32E0012681E032
:104DB0001025002644488342F0D00126F2030298D1
:104DC000904212D1082D00D974E04C487D442D79D1
:104DD0006D00AF44046F416F3A6F6F6F4000FCF796
:104DE00071FE002835D0616A36E0082D62D843484C
:104DF0007D442D796D00AF44045D4B5D445D5D5D88
:104E00004A00FCF75FFE00283FD0616A40E00120C5
:104E1000C00349003E4A515AFBF7BCF96268019948
:104E200051430126884245D31103884242D8010EDE
:104E300055080002002340195941FBF757F935493D
:104E40004118354A914235D231E0FCF74DFE002839
:104E5000C9D100262EE0104649002D4A515AFBF7D1
:104E600099F9400061684A081018FBF793F9024667
:104E7000103A2A498A421DD201400007400F0843D8
:104E800015E0FCF731FE0028BFD1002612E01046E5
:104E900049001F4A515AFBF77DF961684A0810180A
:104EA000FBF778F9014610391C4A914202D2216879
:104EB000C86000261A48386000206067A067304646
:104EC00003B0F0BDF369FFCF00840040FFF4FF1191
:104ED000FF7F0040FF370140003C014000380140A7
:104EE00000800040FF4B0040004C0040005000405C
:104EF0000044004000480040541002400024F400E8
:104F00000000000004000000020000000800000093
:104F1000448D000800FDFFFF00FD0F00F0FF0000C2
:104F200001000100F0B581B0134605465C202A520D
:104F30002E465C3600247463A96522203063706AB3
:104F4000002815D00A461F4F1F49C16207631C493C
:104F50004163846329682431FBF786FD002807D06C
:104F600010207063202030630124204601B0F0BD82
:104F7000286900280BD0EFF31080012181F31088FD
:104F800009022A6813680B43136080F31088EFF35B
:104F90001080012181F310882A6893680B43936085
:104FA00080F31088EFF3108081F3108829688A68F5
:104FB000402313438B6080F31088204601B0F0BD7E
:104FC000B14A0008194C0008894B0008F0B585B0BB
:104FD0001F4615460E460368D9693140891B4A426F
:104FE0004A410021AA4222D10A9C002C22D00391DE
:104FF000611C24D1D9693140891B4A424A41AA42E5
:1050000031D1D9693140891B4A424A41AA422AD149
:10501000D9693140891B4A424A41AA4223D1D96900
:105020003140891B4A424A41AA42E3D01BE008466C
:1050300005B0F0BDFBF750FE032005B0F0BD402EDB
:10504000049001D0802E14D1FBF746FEC01BA04275
:105050000CD8049800680168C0693040801B414248
:105060004141A942F0D0039805B0F0BD032005B03E
:10507000F0BD8430019001200090C002029006E053
:10508000C8693040801B41424141A942EBD1FBF746
:1050900023FEC11B0320A1423FD8049909680A6876
:1050A0005207EDD5CA69120739D4CA69029B1A4260
:1050B000E6D0029A0A62EFF31082012181F3108890
:1050C00009235B01049C246825689D43256082F3C5
:1050D0001088EFF3108281F31088049B1B689C6892
:1050E0002A4D25409D60049B82F31088DA6E012AC8
:1050F0000BD1EFF3108281F3108819680B6810242C
:10510000A3430B60049B82F310882021019CA160C3
:105110000022DA665A672270E16005B0F0BD08250A
:105120000D62EFF31081009880F31088092252017C
:10513000049B1B681C6894431C6081F31088EFF388
:10514000108180F31088049A126893680F4C1C40F9
:10515000049B946081F31088D96E01290CD1EFF380
:105160001081012282F310881A6813681024A34367
:105170001360049B81F310882021019A9160002123
:10518000D96659671170D56005B0F0BDFEFFFFEF1D
:1051900080B50248FDF73EFB80BDC0460C0F0020E5
:1051A00080B50248FDF736FB80BDC046A00F002049
:1051B00010B50446802100F057F90021204600F088
:1051C00053F910BD10B513460A46A52189000224E3
:1051D00044508361C3610024214600F065F92046F4
:1051E00010BD70B502468078D3781B021B18147866
:1051F0000020A34204D870BD6419A5B29D42FAD222
:10520000157852195678052E02D196788E4223D001
:105210006419A5B29D42EED2157852195678052E22
:1052200002D196788E4217D06419A5B29D42E2D27F
:10523000157852195678052E02D196788E420BD0E9
:105240006419A5B29D42D6D2157852195678052E0A
:10525000D2D196788E42CFD1104670BD70B500285D
:1052600052D00378002B14D0041D0023E51E2D78A6
:10527000002D10D0A51E2D78002D0ED0651E2D7886
:10528000002D0CD0251D1B1D2478002C2C46EDD1A3
:1052900007E0002305E0012402E0022400E00324EB
:1052A0002343DBB25B009B1C138003224A700B700C
:1052B0000378002B28D0021D0220C5B24B550123D4
:1052C0001D4300244C55D51E2D78002D1CD0861C66
:1052D000F6B28D551E438C55951E2D78002D13D09A
:1052E000061DF6B28D551E438C55551E2D78002D8A
:1052F0000AD0861DF6B28D553343CC54141D0830A8
:105300001378002B2246D8D170BD10B500280FD0DD
:10531000A7239B00C31800245C639C62DC61002906
:1053200000D0996102700121197000F03BF810BDA6
:10533000032010BD80B55922D2008058FBF7B8FE7B
:10534000032804D8C1006048C840C0B280BD032013
:10535000C0B280BD80B55922D2008058FBF782FED2
:10536000032804D8C1005848C840C0B280BD0320FB
:10537000C0B280BD80B55922D2008058FBF7C7FE6D
:10538000032804D8C1005048C840C0B280BD0320E3
:10539000C0B280BD80B55922D2008058FBF7D2FE42
:1053A00080BD0000B0B55921CA001A498150B72309
:1053B0009B00C85000234B8102244C72CC71164CC8
:1053C0008C80164C0C608B81CB810B748518084641
:1053D000FBF743FF002801D0FBF7AEF92868002453
:1053E000182321462246FBF721FE286880215823F6
:1053F0002246FBF71BFE2868812198232246FBF7F3
:1054000015FE28680121D8232246FBF70FFE20460F
:10541000B0BDC046500B002008080000005C0040F2
:1054200010B514465922D20080581A462346FBF77D
:1054300092FE032804D8C1002348C840C0B210BD62
:105440000320C0B210BDC04610B55924E400005975
:10545000FBF7ADFE032804D8C1001B48C840C0B20A
:1054600010BD0320C0B210BD80B55922D2008058B3
:10547000FBF7B1FE032804D8C1001348C840C0B2EE
:1054800080BD0320C0B280BD80B55921C9004058FD
:10549000FCF754F8032804D8C1000B48C840C0B238
:1054A00080BD0320C0B280BD10B55924E40000596E
:1054B000FBF7BDFE032804D8C1000348C840C0B2B2
:1054C00010BD0320C0B210BD0003010310B50A4691
:1054D00003A09E4C2146FFF7C1FE204610BDC046EA
:1054E0004D534320436F6E666967000080B5FDF73A
:1054F0001BFE002080BD80B5FDF75CFE002080BD56
:10550000F0B581B00446704D6978FFF723FF6878E5
:105510002A460F2738401426704320185921890045
:105520000025455211782046FFF714FF66480078A1
:105530003840704320188584AF2080002618B06959
:10554000800020180B218F01C05900280CD0204664
:10555000FDF7ECFEE419B0698000205800F040FA35
:10556000B069800025503560002001B0F0BDC04614
:105570001220088000487047D00000200A210180D6
:1055800000487047E400002070B50446294E812190
:105590003046FFF726FE054601213046FFF721FE83
:1055A000002D03D00021697140212971002803D00A
:1055B0000021417140210171202020801D4870BDD3
:1055C000F0B581B004461B4E81213046FFF709FE3D
:1055D0000546012730463946FFF703FE7902002DC4
:1055E00002D029710A0A6A71002802D00171090AE1
:1055F0004171202020800F4801B0F0BD70B50446F5
:105600000C4E81213046FFF7ECFD05460121304666
:10561000FFF7E7FD002D03D00021697140212971BA
:10562000002803D0002141714021017120202080F9
:10563000004870BDB0000020F0B583B00446AF2034
:10564000800025189D20800000F0CCF9A969890010
:1056500061180B2292018918002808D00860286080
:10566000207C01210028029106D0402705E000207F
:105670000860022003B0F0BD4F02134D697802228A
:10568000019220463B46FFF7CBFE68782A460F2161
:105690000091084014256843201859218900029E72
:1056A000465211782046019A3B46FFF7B9FE06485C
:1056B0000078009908406843201886842046FDF74A
:1056C00043FE002003B0F0BD0800002010B50A46DC
:1056D00003A01E4C2146FFF7C1FD204610BDC04669
:1056E0004D534320496E7465726661636500000026
:1056F00004200880004870477400002010B50A4656
:1057000003A0124C2146FFF7A9FD204610BDC0465C
:1057100053544D6963726F656C656374726F6E6923
:105720006373000010B50A4603A0084C2146FFF73A
:1057300095FD204610BDC04653544D3332204D6177
:1057400073732053746F7261676500001802002044
:10575000002909D0B5229200825892008018B12207
:1057600092008150002070470320704710B51A2026
:105770000880404801688268521879D041683E48E4
:1057800000234376C3754375C3744374C373437373
:10579000C3724372C3714371C3700F231340140764
:1057A000640F052C01D3373300E030330374540FFA
:1057B000130F052C01D3373300E0303383704C0FC7
:1057C0000B0F052C01D3373300E0303383741306FD
:1057D0005C0F1B0F052C01D3373300E0303383738C
:1057E00013055C0F1B0F052C01D3373300E030335A
:1057F000037313045C0F1B0F052C01D3373300E038
:105800003033837213035C0F1B0F052C01D3373326
:1058100000E03033037213025C0F1B0F052C01D321
:10582000373300E0303383711201530F120F052B11
:1058300001D3373200E0303202710A03530F120FE6
:10584000052B01D3373200E0303202760A02530FC3
:10585000120F052B01D3373200E030328275090177
:105860004A0F090F052A01D3373100E030310175A5
:10587000014810BD9075FF1F10010020F0B583B0E6
:105880000E460546A72080002918886B80002C183A
:105890000B229201A75802AA002313800320002F95
:1058A00039D0009301903278602313401BD0202B15
:1058B0002CD151B27278FF2A2FD0FE2A58D172888B
:1058C000002A55D1F288012A52D1002950D5B121A0
:1058D000890060588069804738600122284639462F
:1058E000FFF770FC4BE070780B2841D878440079C2
:1058F0004000874405203D3D3D3D3D3D3D3D2A3531
:105900000878032834D102A9022223E02846314630
:10591000FFF74EFC019803B0F0BD7088002827D136
:10592000F088002824D1002922D42846FDF738FD2C
:10593000009803B0F0BD0878032820D170880028B3
:10594000009C1FD0204603B0F0BD087803280FD17B
:10595000391D01222846FFF735FC009803B0F0BD41
:105960000878032804D1B0787860009803B0F0BDBF
:1059700028463146FFF71CFC019803B0F0BD0098A3
:1059800003B0F0BD31792846FFF7F4FC31792846A1
:10599000FDF792FB204603B0F0BDB0B582B001AA7E
:1059A00000241480002913D05722D20085182960C2
:1059B000E969890040188058C16A002902D001A80D
:1059C0008847A861286A401C2862204602B0B0BD02
:1059D0000324204602B0B0BD80B5FFF755FD80BD61
:1059E000704700000048704718040020F0B582B0EE
:1059F00002460F78B80013181058844C0440C87839
:105A0000032801900AD800250095C0467844007903
:105A10004000874401060C09012006E001200090A7
:105A200005E00120800201E0032040020443784D9C
:105A30002C431C601868CA4C204038432843186027
:105A4000087B002804D00198022823D0284622E0B1
:105A50004878002800D183E0F800704F3A58704E23
:105A600032403A50C988032291433A580A433A5087
:105A70001868400605D51868204029464031014382
:105A8000196030341A6822400198012800D08FE054
:105A90002A438FE05F481A685F4C144004431C603F
:105AA000F8005E4A84585E4F3C4084500324E4432F
:105AB0000E892640855835438550801842683A4003
:105AC00042604A89224044681443446001208203B2
:105AD000186810404A78B249002A1CD00028009E5D
